{
	"Section5/SmartContractWallet.sol": {
		"SmartContractWallet": {
			"abi": [
				{
					"inputs": [],
					"stateMutability": "nonpayable",
					"type": "constructor"
				},
				{
					"inputs": [
						{
							"internalType": "address",
							"name": "",
							"type": "address"
						}
					],
					"name": "allowance",
					"outputs": [
						{
							"internalType": "uint256",
							"name": "",
							"type": "uint256"
						}
					],
					"stateMutability": "view",
					"type": "function"
				},
				{
					"inputs": [],
					"name": "confirmationFromGuardiansForReset",
					"outputs": [
						{
							"internalType": "uint256",
							"name": "",
							"type": "uint256"
						}
					],
					"stateMutability": "view",
					"type": "function"
				},
				{
					"inputs": [
						{
							"internalType": "address",
							"name": "",
							"type": "address"
						}
					],
					"name": "guardians",
					"outputs": [
						{
							"internalType": "bool",
							"name": "",
							"type": "bool"
						}
					],
					"stateMutability": "view",
					"type": "function"
				},
				{
					"inputs": [
						{
							"internalType": "address",
							"name": "",
							"type": "address"
						}
					],
					"name": "isAllowedToSend",
					"outputs": [
						{
							"internalType": "bool",
							"name": "",
							"type": "bool"
						}
					],
					"stateMutability": "view",
					"type": "function"
				},
				{
					"inputs": [
						{
							"internalType": "address payable",
							"name": "_newOwner",
							"type": "address"
						}
					],
					"name": "proposeNewOwner",
					"outputs": [],
					"stateMutability": "nonpayable",
					"type": "function"
				},
				{
					"inputs": [
						{
							"internalType": "address",
							"name": "_from",
							"type": "address"
						},
						{
							"internalType": "uint256",
							"name": "_amount",
							"type": "uint256"
						}
					],
					"name": "setAllowance",
					"outputs": [],
					"stateMutability": "nonpayable",
					"type": "function"
				},
				{
					"inputs": [
						{
							"internalType": "address",
							"name": "_guardian",
							"type": "address"
						},
						{
							"internalType": "bool",
							"name": "_isGuarding",
							"type": "bool"
						}
					],
					"name": "setGuarding",
					"outputs": [],
					"stateMutability": "nonpayable",
					"type": "function"
				},
				{
					"inputs": [
						{
							"internalType": "address payable",
							"name": "_to",
							"type": "address"
						},
						{
							"internalType": "uint256",
							"name": "_amount",
							"type": "uint256"
						},
						{
							"internalType": "bytes",
							"name": "_payload",
							"type": "bytes"
						}
					],
					"name": "transfer",
					"outputs": [
						{
							"internalType": "bytes",
							"name": "",
							"type": "bytes"
						}
					],
					"stateMutability": "nonpayable",
					"type": "function"
				},
				{
					"stateMutability": "payable",
					"type": "receive"
				}
			],
			"devdoc": {
				"kind": "dev",
				"methods": {},
				"version": 1
			},
			"evm": {
				"assembly": "    /* \"Section5/SmartContractWallet.sol\":213:4878  contract SmartContractWallet{... */\n  mstore(0x40, 0x80)\n    /* \"Section5/SmartContractWallet.sol\":2196:2256  constructor(){... */\n  callvalue\n  dup1\n  iszero\n  tag_1\n  jumpi\n  0x00\n  dup1\n  revert\ntag_1:\n  pop\n    /* \"Section5/SmartContractWallet.sol\":2237:2247  msg.sender */\n  caller\n    /* \"Section5/SmartContractWallet.sol\":2220:2225  owner */\n  0x00\n  dup1\n    /* \"Section5/SmartContractWallet.sol\":2220:2248  owner = payable (msg.sender) */\n  0x0100\n  exp\n  dup2\n  sload\n  dup2\n  0xffffffffffffffffffffffffffffffffffffffff\n  mul\n  not\n  and\n  swap1\n  dup4\n  0xffffffffffffffffffffffffffffffffffffffff\n  and\n  mul\n  or\n  swap1\n  sstore\n  pop\n    /* \"Section5/SmartContractWallet.sol\":213:4878  contract SmartContractWallet{... */\n  dataSize(sub_0)\n  dup1\n  dataOffset(sub_0)\n  0x00\n  codecopy\n  0x00\n  return\nstop\n\nsub_0: assembly {\n        /* \"Section5/SmartContractWallet.sol\":213:4878  contract SmartContractWallet{... */\n      mstore(0x40, 0x80)\n      jumpi(tag_1, lt(calldatasize, 0x04))\n      shr(0xe0, calldataload(0x00))\n      dup1\n      0x3e5beab9\n      gt\n      tag_11\n      jumpi\n      dup1\n      0x3e5beab9\n      eq\n      tag_7\n      jumpi\n      dup1\n      0x58e404b1\n      eq\n      tag_8\n      jumpi\n      dup1\n      0xb1f8100d\n      eq\n      tag_9\n      jumpi\n      dup1\n      0xbe45fd62\n      eq\n      tag_10\n      jumpi\n      jump(tag_2)\n    tag_11:\n      dup1\n      0x0633b14a\n      eq\n      tag_3\n      jumpi\n      dup1\n      0x069672ae\n      eq\n      tag_4\n      jumpi\n      dup1\n      0x0bc605ad\n      eq\n      tag_5\n      jumpi\n      dup1\n      0x310ec4a7\n      eq\n      tag_6\n      jumpi\n      jump(tag_2)\n    tag_1:\n      jumpi(tag_2, calldatasize)\n      stop\n    tag_2:\n      0x00\n      dup1\n      revert\n        /* \"Section5/SmartContractWallet.sol\":1089:1129  mapping (address=>bool) public guardians */\n    tag_3:\n      callvalue\n      dup1\n      iszero\n      tag_14\n      jumpi\n      0x00\n      dup1\n      revert\n    tag_14:\n      pop\n      tag_15\n      0x04\n      dup1\n      calldatasize\n      sub\n      dup2\n      add\n      swap1\n      tag_16\n      swap2\n      swap1\n      tag_17\n      jump\t// in\n    tag_16:\n      tag_18\n      jump\t// in\n    tag_15:\n      mload(0x40)\n      tag_19\n      swap2\n      swap1\n      tag_20\n      jump\t// in\n    tag_19:\n      mload(0x40)\n      dup1\n      swap2\n      sub\n      swap1\n      return\n        /* \"Section5/SmartContractWallet.sol\":2316:2508  function setGuarding(address _guardian, bool _isGuarding) public {... */\n    tag_4:\n      callvalue\n      dup1\n      iszero\n      tag_21\n      jumpi\n      0x00\n      dup1\n      revert\n    tag_21:\n      pop\n      tag_22\n      0x04\n      dup1\n      calldatasize\n      sub\n      dup2\n      add\n      swap1\n      tag_23\n      swap2\n      swap1\n      tag_24\n      jump\t// in\n    tag_23:\n      tag_25\n      jump\t// in\n    tag_22:\n      stop\n        /* \"Section5/SmartContractWallet.sol\":286:332  mapping (address=>bool) public isAllowedToSend */\n    tag_5:\n      callvalue\n      dup1\n      iszero\n      tag_26\n      jumpi\n      0x00\n      dup1\n      revert\n    tag_26:\n      pop\n      tag_27\n      0x04\n      dup1\n      calldatasize\n      sub\n      dup2\n      add\n      swap1\n      tag_28\n      swap2\n      swap1\n      tag_17\n      jump\t// in\n    tag_28:\n      tag_29\n      jump\t// in\n    tag_27:\n      mload(0x40)\n      tag_30\n      swap2\n      swap1\n      tag_20\n      jump\t// in\n    tag_30:\n      mload(0x40)\n      dup1\n      swap2\n      sub\n      swap1\n      return\n        /* \"Section5/SmartContractWallet.sol\":2547:2990  function setAllowance(address _from, uint _amount) public {... */\n    tag_6:\n      callvalue\n      dup1\n      iszero\n      tag_31\n      jumpi\n      0x00\n      dup1\n      revert\n    tag_31:\n      pop\n      tag_32\n      0x04\n      dup1\n      calldatasize\n      sub\n      dup2\n      add\n      swap1\n      tag_33\n      swap2\n      swap1\n      tag_34\n      jump\t// in\n    tag_33:\n      tag_35\n      jump\t// in\n    tag_32:\n      stop\n        /* \"Section5/SmartContractWallet.sol\":484:524  mapping (address=>uint) public allowance */\n    tag_7:\n      callvalue\n      dup1\n      iszero\n      tag_36\n      jumpi\n      0x00\n      dup1\n      revert\n    tag_36:\n      pop\n      tag_37\n      0x04\n      dup1\n      calldatasize\n      sub\n      dup2\n      add\n      swap1\n      tag_38\n      swap2\n      swap1\n      tag_17\n      jump\t// in\n    tag_38:\n      tag_39\n      jump\t// in\n    tag_37:\n      mload(0x40)\n      tag_40\n      swap2\n      swap1\n      tag_41\n      jump\t// in\n    tag_40:\n      mload(0x40)\n      dup1\n      swap2\n      sub\n      swap1\n      return\n        /* \"Section5/SmartContractWallet.sol\":2048:2106  uint public constant confirmationFromGuardiansForReset = 3 */\n    tag_8:\n      callvalue\n      dup1\n      iszero\n      tag_42\n      jumpi\n      0x00\n      dup1\n      revert\n    tag_42:\n      pop\n      tag_43\n      tag_44\n      jump\t// in\n    tag_43:\n      mload(0x40)\n      tag_45\n      swap2\n      swap1\n      tag_41\n      jump\t// in\n    tag_45:\n      mload(0x40)\n      dup1\n      swap2\n      sub\n      swap1\n      return\n        /* \"Section5/SmartContractWallet.sol\":3000:3841  function proposeNewOwner(address payable _newOwner) public {... */\n    tag_9:\n      callvalue\n      dup1\n      iszero\n      tag_46\n      jumpi\n      0x00\n      dup1\n      revert\n    tag_46:\n      pop\n      tag_47\n      0x04\n      dup1\n      calldatasize\n      sub\n      dup2\n      add\n      swap1\n      tag_48\n      swap2\n      swap1\n      tag_49\n      jump\t// in\n    tag_48:\n      tag_50\n      jump\t// in\n    tag_47:\n      stop\n        /* \"Section5/SmartContractWallet.sol\":3865:4838  function transfer(address payable _to, uint _amount ,  bytes memory _payload) public returns(bytes memory) {... */\n    tag_10:\n      callvalue\n      dup1\n      iszero\n      tag_51\n      jumpi\n      0x00\n      dup1\n      revert\n    tag_51:\n      pop\n      tag_52\n      0x04\n      dup1\n      calldatasize\n      sub\n      dup2\n      add\n      swap1\n      tag_53\n      swap2\n      swap1\n      tag_54\n      jump\t// in\n    tag_53:\n      tag_55\n      jump\t// in\n    tag_52:\n      mload(0x40)\n      tag_56\n      swap2\n      swap1\n      tag_57\n      jump\t// in\n    tag_56:\n      mload(0x40)\n      dup1\n      swap2\n      sub\n      swap1\n      return\n        /* \"Section5/SmartContractWallet.sol\":1089:1129  mapping (address=>bool) public guardians */\n    tag_18:\n      mstore(0x20, 0x03)\n      dup1\n      0x00\n      mstore\n      keccak256(0x00, 0x40)\n      0x00\n      swap2\n      pop\n      sload\n      swap1\n      0x0100\n      exp\n      swap1\n      div\n      0xff\n      and\n      dup2\n      jump\t// out\n        /* \"Section5/SmartContractWallet.sol\":2316:2508  function setGuarding(address _guardian, bool _isGuarding) public {... */\n    tag_25:\n        /* \"Section5/SmartContractWallet.sol\":2414:2419  owner */\n      0x00\n      dup1\n      sload\n      swap1\n      0x0100\n      exp\n      swap1\n      div\n      0xffffffffffffffffffffffffffffffffffffffff\n      and\n        /* \"Section5/SmartContractWallet.sol\":2400:2419  msg.sender == owner */\n      0xffffffffffffffffffffffffffffffffffffffff\n      and\n        /* \"Section5/SmartContractWallet.sol\":2400:2410  msg.sender */\n      caller\n        /* \"Section5/SmartContractWallet.sol\":2400:2419  msg.sender == owner */\n      0xffffffffffffffffffffffffffffffffffffffff\n      and\n      eq\n        /* \"Section5/SmartContractWallet.sol\":2392:2455  require(msg.sender == owner, \"You are not the owner, aborting\") */\n      tag_59\n      jumpi\n      mload(0x40)\n      0x08c379a000000000000000000000000000000000000000000000000000000000\n      dup2\n      mstore\n      0x04\n      add\n      tag_60\n      swap1\n      tag_61\n      jump\t// in\n    tag_60:\n      mload(0x40)\n      dup1\n      swap2\n      sub\n      swap1\n      revert\n    tag_59:\n        /* \"Section5/SmartContractWallet.sol\":2489:2500  _isGuarding */\n      dup1\n        /* \"Section5/SmartContractWallet.sol\":2466:2475  guardians */\n      0x03\n        /* \"Section5/SmartContractWallet.sol\":2466:2486  guardians[_guardian] */\n      0x00\n        /* \"Section5/SmartContractWallet.sol\":2476:2485  _guardian */\n      dup5\n        /* \"Section5/SmartContractWallet.sol\":2466:2486  guardians[_guardian] */\n      0xffffffffffffffffffffffffffffffffffffffff\n      and\n      0xffffffffffffffffffffffffffffffffffffffff\n      and\n      dup2\n      mstore\n      0x20\n      add\n      swap1\n      dup2\n      mstore\n      0x20\n      add\n      0x00\n      keccak256\n      0x00\n        /* \"Section5/SmartContractWallet.sol\":2466:2500  guardians[_guardian] = _isGuarding */\n      0x0100\n      exp\n      dup2\n      sload\n      dup2\n      0xff\n      mul\n      not\n      and\n      swap1\n      dup4\n      iszero\n      iszero\n      mul\n      or\n      swap1\n      sstore\n      pop\n        /* \"Section5/SmartContractWallet.sol\":2316:2508  function setGuarding(address _guardian, bool _isGuarding) public {... */\n      pop\n      pop\n      jump\t// out\n        /* \"Section5/SmartContractWallet.sol\":286:332  mapping (address=>bool) public isAllowedToSend */\n    tag_29:\n      mstore(0x20, 0x01)\n      dup1\n      0x00\n      mstore\n      keccak256(0x00, 0x40)\n      0x00\n      swap2\n      pop\n      sload\n      swap1\n      0x0100\n      exp\n      swap1\n      div\n      0xff\n      and\n      dup2\n      jump\t// out\n        /* \"Section5/SmartContractWallet.sol\":2547:2990  function setAllowance(address _from, uint _amount) public {... */\n    tag_35:\n        /* \"Section5/SmartContractWallet.sol\":2638:2643  owner */\n      0x00\n      dup1\n      sload\n      swap1\n      0x0100\n      exp\n      swap1\n      div\n      0xffffffffffffffffffffffffffffffffffffffff\n      and\n        /* \"Section5/SmartContractWallet.sol\":2624:2643  msg.sender == owner */\n      0xffffffffffffffffffffffffffffffffffffffff\n      and\n        /* \"Section5/SmartContractWallet.sol\":2624:2634  msg.sender */\n      caller\n        /* \"Section5/SmartContractWallet.sol\":2624:2643  msg.sender == owner */\n      0xffffffffffffffffffffffffffffffffffffffff\n      and\n      eq\n        /* \"Section5/SmartContractWallet.sol\":2616:2679  require(msg.sender == owner, \"You are not the owner, aborting\") */\n      tag_63\n      jumpi\n      mload(0x40)\n      0x08c379a000000000000000000000000000000000000000000000000000000000\n      dup2\n      mstore\n      0x04\n      add\n      tag_64\n      swap1\n      tag_61\n      jump\t// in\n    tag_64:\n      mload(0x40)\n      dup1\n      swap2\n      sub\n      swap1\n      revert\n    tag_63:\n        /* \"Section5/SmartContractWallet.sol\":2725:2729  true */\n      0x01\n        /* \"Section5/SmartContractWallet.sol\":2700:2715  isAllowedToSend */\n      dup1\n        /* \"Section5/SmartContractWallet.sol\":2700:2722  isAllowedToSend[_from] */\n      0x00\n        /* \"Section5/SmartContractWallet.sol\":2716:2721  _from */\n      dup5\n        /* \"Section5/SmartContractWallet.sol\":2700:2722  isAllowedToSend[_from] */\n      0xffffffffffffffffffffffffffffffffffffffff\n      and\n      0xffffffffffffffffffffffffffffffffffffffff\n      and\n      dup2\n      mstore\n      0x20\n      add\n      swap1\n      dup2\n      mstore\n      0x20\n      add\n      0x00\n      keccak256\n      0x00\n        /* \"Section5/SmartContractWallet.sol\":2700:2729  isAllowedToSend[_from] = true */\n      0x0100\n      exp\n      dup2\n      sload\n      dup2\n      0xff\n      mul\n      not\n      and\n      swap1\n      dup4\n      iszero\n      iszero\n      mul\n      or\n      swap1\n      sstore\n      pop\n        /* \"Section5/SmartContractWallet.sol\":2790:2797  _amount */\n      dup1\n        /* \"Section5/SmartContractWallet.sol\":2771:2780  allowance */\n      0x02\n        /* \"Section5/SmartContractWallet.sol\":2771:2787  allowance[_from] */\n      0x00\n        /* \"Section5/SmartContractWallet.sol\":2781:2786  _from */\n      dup5\n        /* \"Section5/SmartContractWallet.sol\":2771:2787  allowance[_from] */\n      0xffffffffffffffffffffffffffffffffffffffff\n      and\n      0xffffffffffffffffffffffffffffffffffffffff\n      and\n      dup2\n      mstore\n      0x20\n      add\n      swap1\n      dup2\n      mstore\n      0x20\n      add\n      0x00\n      keccak256\n        /* \"Section5/SmartContractWallet.sol\":2771:2797  allowance[_from] = _amount */\n      dup2\n      swap1\n      sstore\n      pop\n        /* \"Section5/SmartContractWallet.sol\":2547:2990  function setAllowance(address _from, uint _amount) public {... */\n      pop\n      pop\n      jump\t// out\n        /* \"Section5/SmartContractWallet.sol\":484:524  mapping (address=>uint) public allowance */\n    tag_39:\n      mstore(0x20, 0x02)\n      dup1\n      0x00\n      mstore\n      keccak256(0x00, 0x40)\n      0x00\n      swap2\n      pop\n      swap1\n      pop\n      sload\n      dup2\n      jump\t// out\n        /* \"Section5/SmartContractWallet.sol\":2048:2106  uint public constant confirmationFromGuardiansForReset = 3 */\n    tag_44:\n        /* \"Section5/SmartContractWallet.sol\":2105:2106  3 */\n      0x03\n        /* \"Section5/SmartContractWallet.sol\":2048:2106  uint public constant confirmationFromGuardiansForReset = 3 */\n      dup2\n      jump\t// out\n        /* \"Section5/SmartContractWallet.sol\":3000:3841  function proposeNewOwner(address payable _newOwner) public {... */\n    tag_50:\n        /* \"Section5/SmartContractWallet.sol\":3078:3087  guardians */\n      0x03\n        /* \"Section5/SmartContractWallet.sol\":3078:3099  guardians[msg.sender] */\n      0x00\n        /* \"Section5/SmartContractWallet.sol\":3088:3098  msg.sender */\n      caller\n        /* \"Section5/SmartContractWallet.sol\":3078:3099  guardians[msg.sender] */\n      0xffffffffffffffffffffffffffffffffffffffff\n      and\n      0xffffffffffffffffffffffffffffffffffffffff\n      and\n      dup2\n      mstore\n      0x20\n      add\n      swap1\n      dup2\n      mstore\n      0x20\n      add\n      0x00\n      keccak256\n      0x00\n      swap1\n      sload\n      swap1\n      0x0100\n      exp\n      swap1\n      div\n      0xff\n      and\n        /* \"Section5/SmartContractWallet.sol\":3070:3149  require(guardians[msg.sender], \"You are not guardian of this wallet, aborting\") */\n      tag_66\n      jumpi\n      mload(0x40)\n      0x08c379a000000000000000000000000000000000000000000000000000000000\n      dup2\n      mstore\n      0x04\n      add\n      tag_67\n      swap1\n      tag_68\n      jump\t// in\n    tag_67:\n      mload(0x40)\n      dup1\n      swap2\n      sub\n      swap1\n      revert\n    tag_66:\n        /* \"Section5/SmartContractWallet.sol\":3262:3267  false */\n      0x00\n        /* \"Section5/SmartContractWallet.sol\":3211:3267  nextOwnerGuardianVotedBool[_newOwner][msg.sender]==false */\n      iszero\n      iszero\n        /* \"Section5/SmartContractWallet.sol\":3211:3237  nextOwnerGuardianVotedBool */\n      0x05\n        /* \"Section5/SmartContractWallet.sol\":3211:3248  nextOwnerGuardianVotedBool[_newOwner] */\n      0x00\n        /* \"Section5/SmartContractWallet.sol\":3238:3247  _newOwner */\n      dup4\n        /* \"Section5/SmartContractWallet.sol\":3211:3248  nextOwnerGuardianVotedBool[_newOwner] */\n      0xffffffffffffffffffffffffffffffffffffffff\n      and\n      0xffffffffffffffffffffffffffffffffffffffff\n      and\n      dup2\n      mstore\n      0x20\n      add\n      swap1\n      dup2\n      mstore\n      0x20\n      add\n      0x00\n      keccak256\n        /* \"Section5/SmartContractWallet.sol\":3211:3260  nextOwnerGuardianVotedBool[_newOwner][msg.sender] */\n      0x00\n        /* \"Section5/SmartContractWallet.sol\":3249:3259  msg.sender */\n      caller\n        /* \"Section5/SmartContractWallet.sol\":3211:3260  nextOwnerGuardianVotedBool[_newOwner][msg.sender] */\n      0xffffffffffffffffffffffffffffffffffffffff\n      and\n      0xffffffffffffffffffffffffffffffffffffffff\n      and\n      dup2\n      mstore\n      0x20\n      add\n      swap1\n      dup2\n      mstore\n      0x20\n      add\n      0x00\n      keccak256\n      0x00\n      swap1\n      sload\n      swap1\n      0x0100\n      exp\n      swap1\n      div\n      0xff\n      and\n        /* \"Section5/SmartContractWallet.sol\":3211:3267  nextOwnerGuardianVotedBool[_newOwner][msg.sender]==false */\n      iszero\n      iszero\n      eq\n        /* \"Section5/SmartContractWallet.sol\":3203:3299  require(nextOwnerGuardianVotedBool[_newOwner][msg.sender]==false, \"You already voted, aborting\") */\n      tag_69\n      jumpi\n      mload(0x40)\n      0x08c379a000000000000000000000000000000000000000000000000000000000\n      dup2\n      mstore\n      0x04\n      add\n      tag_70\n      swap1\n      tag_71\n      jump\t// in\n    tag_70:\n      mload(0x40)\n      dup1\n      swap2\n      sub\n      swap1\n      revert\n    tag_69:\n        /* \"Section5/SmartContractWallet.sol\":3381:3390  _newOwner */\n      dup1\n        /* \"Section5/SmartContractWallet.sol\":3368:3390  nextOwner != _newOwner */\n      0xffffffffffffffffffffffffffffffffffffffff\n      and\n        /* \"Section5/SmartContractWallet.sol\":3368:3377  nextOwner */\n      0x04\n      0x00\n      swap1\n      sload\n      swap1\n      0x0100\n      exp\n      swap1\n      div\n      0xffffffffffffffffffffffffffffffffffffffff\n      and\n        /* \"Section5/SmartContractWallet.sol\":3368:3390  nextOwner != _newOwner */\n      0xffffffffffffffffffffffffffffffffffffffff\n      and\n      eq\n        /* \"Section5/SmartContractWallet.sol\":3365:3478  if(nextOwner != _newOwner) {... */\n      tag_72\n      jumpi\n        /* \"Section5/SmartContractWallet.sol\":3419:3428  _newOwner */\n      dup1\n        /* \"Section5/SmartContractWallet.sol\":3407:3416  nextOwner */\n      0x04\n      0x00\n        /* \"Section5/SmartContractWallet.sol\":3407:3428  nextOwner = _newOwner */\n      0x0100\n      exp\n      dup2\n      sload\n      dup2\n      0xffffffffffffffffffffffffffffffffffffffff\n      mul\n      not\n      and\n      swap1\n      dup4\n      0xffffffffffffffffffffffffffffffffffffffff\n      and\n      mul\n      or\n      swap1\n      sstore\n      pop\n        /* \"Section5/SmartContractWallet.sol\":3465:3466  0 */\n      0x00\n        /* \"Section5/SmartContractWallet.sol\":3443:3462  guardiansResetCount */\n      0x06\n        /* \"Section5/SmartContractWallet.sol\":3443:3466  guardiansResetCount = 0 */\n      dup2\n      swap1\n      sstore\n      pop\n        /* \"Section5/SmartContractWallet.sol\":3365:3478  if(nextOwner != _newOwner) {... */\n    tag_72:\n        /* \"Section5/SmartContractWallet.sol\":3542:3546  true */\n      0x01\n        /* \"Section5/SmartContractWallet.sol\":3490:3516  nextOwnerGuardianVotedBool */\n      0x05\n        /* \"Section5/SmartContractWallet.sol\":3490:3527  nextOwnerGuardianVotedBool[_newOwner] */\n      0x00\n        /* \"Section5/SmartContractWallet.sol\":3517:3526  _newOwner */\n      dup4\n        /* \"Section5/SmartContractWallet.sol\":3490:3527  nextOwnerGuardianVotedBool[_newOwner] */\n      0xffffffffffffffffffffffffffffffffffffffff\n      and\n      0xffffffffffffffffffffffffffffffffffffffff\n      and\n      dup2\n      mstore\n      0x20\n      add\n      swap1\n      dup2\n      mstore\n      0x20\n      add\n      0x00\n      keccak256\n        /* \"Section5/SmartContractWallet.sol\":3490:3539  nextOwnerGuardianVotedBool[_newOwner][msg.sender] */\n      0x00\n        /* \"Section5/SmartContractWallet.sol\":3528:3538  msg.sender */\n      caller\n        /* \"Section5/SmartContractWallet.sol\":3490:3539  nextOwnerGuardianVotedBool[_newOwner][msg.sender] */\n      0xffffffffffffffffffffffffffffffffffffffff\n      and\n      0xffffffffffffffffffffffffffffffffffffffff\n      and\n      dup2\n      mstore\n      0x20\n      add\n      swap1\n      dup2\n      mstore\n      0x20\n      add\n      0x00\n      keccak256\n      0x00\n        /* \"Section5/SmartContractWallet.sol\":3490:3546  nextOwnerGuardianVotedBool[_newOwner][msg.sender] = true */\n      0x0100\n      exp\n      dup2\n      sload\n      dup2\n      0xff\n      mul\n      not\n      and\n      swap1\n      dup4\n      iszero\n      iszero\n      mul\n      or\n      swap1\n      sstore\n      pop\n        /* \"Section5/SmartContractWallet.sol\":3644:3663  guardiansResetCount */\n      0x06\n      0x00\n        /* \"Section5/SmartContractWallet.sol\":3644:3665  guardiansResetCount++ */\n      dup2\n      sload\n      dup1\n      swap3\n      swap2\n      swap1\n      tag_73\n      swap1\n      tag_74\n      jump\t// in\n    tag_73:\n      swap2\n      swap1\n      pop\n      sstore\n      pop\n        /* \"Section5/SmartContractWallet.sol\":2105:2106  3 */\n      0x03\n        /* \"Section5/SmartContractWallet.sol\":3683:3702  guardiansResetCount */\n      sload(0x06)\n        /* \"Section5/SmartContractWallet.sol\":3683:3739  guardiansResetCount >= confirmationFromGuardiansForReset */\n      lt\n        /* \"Section5/SmartContractWallet.sol\":3680:3832  if(guardiansResetCount >= confirmationFromGuardiansForReset) {... */\n      tag_75\n      jumpi\n        /* \"Section5/SmartContractWallet.sol\":3764:3773  nextOwner */\n      0x04\n      0x00\n      swap1\n      sload\n      swap1\n      0x0100\n      exp\n      swap1\n      div\n      0xffffffffffffffffffffffffffffffffffffffff\n      and\n        /* \"Section5/SmartContractWallet.sol\":3756:3761  owner */\n      0x00\n      dup1\n        /* \"Section5/SmartContractWallet.sol\":3756:3773  owner = nextOwner */\n      0x0100\n      exp\n      dup2\n      sload\n      dup2\n      0xffffffffffffffffffffffffffffffffffffffff\n      mul\n      not\n      and\n      swap1\n      dup4\n      0xffffffffffffffffffffffffffffffffffffffff\n      and\n      mul\n      or\n      swap1\n      sstore\n      pop\n        /* \"Section5/SmartContractWallet.sol\":3817:3818  0 */\n      0x00\n        /* \"Section5/SmartContractWallet.sol\":3788:3797  nextOwner */\n      0x04\n      0x00\n        /* \"Section5/SmartContractWallet.sol\":3788:3820  nextOwner = payable (address(0)) */\n      0x0100\n      exp\n      dup2\n      sload\n      dup2\n      0xffffffffffffffffffffffffffffffffffffffff\n      mul\n      not\n      and\n      swap1\n      dup4\n      0xffffffffffffffffffffffffffffffffffffffff\n      and\n      mul\n      or\n      swap1\n      sstore\n      pop\n        /* \"Section5/SmartContractWallet.sol\":3680:3832  if(guardiansResetCount >= confirmationFromGuardiansForReset) {... */\n    tag_75:\n        /* \"Section5/SmartContractWallet.sol\":3000:3841  function proposeNewOwner(address payable _newOwner) public {... */\n      pop\n      jump\t// out\n        /* \"Section5/SmartContractWallet.sol\":3865:4838  function transfer(address payable _to, uint _amount ,  bytes memory _payload) public returns(bytes memory) {... */\n    tag_55:\n        /* \"Section5/SmartContractWallet.sol\":3958:3970  bytes memory */\n      0x60\n        /* \"Section5/SmartContractWallet.sol\":4005:4010  owner */\n      0x00\n      dup1\n      sload\n      swap1\n      0x0100\n      exp\n      swap1\n      div\n      0xffffffffffffffffffffffffffffffffffffffff\n      and\n        /* \"Section5/SmartContractWallet.sol\":3991:4010  msg.sender == owner */\n      0xffffffffffffffffffffffffffffffffffffffff\n      and\n        /* \"Section5/SmartContractWallet.sol\":3991:4001  msg.sender */\n      caller\n        /* \"Section5/SmartContractWallet.sol\":3991:4010  msg.sender == owner */\n      0xffffffffffffffffffffffffffffffffffffffff\n      and\n      eq\n        /* \"Section5/SmartContractWallet.sol\":3983:4047  require(msg.sender == owner, \"You are not the owner, aborting.\") */\n      tag_77\n      jumpi\n      mload(0x40)\n      0x08c379a000000000000000000000000000000000000000000000000000000000\n      dup2\n      mstore\n      0x04\n      add\n      tag_78\n      swap1\n      tag_79\n      jump\t// in\n    tag_78:\n      mload(0x40)\n      dup1\n      swap2\n      sub\n      swap1\n      revert\n    tag_77:\n        /* \"Section5/SmartContractWallet.sol\":4115:4120  owner */\n      0x00\n      dup1\n      sload\n      swap1\n      0x0100\n      exp\n      swap1\n      div\n      0xffffffffffffffffffffffffffffffffffffffff\n      and\n        /* \"Section5/SmartContractWallet.sol\":4101:4120  msg.sender != owner */\n      0xffffffffffffffffffffffffffffffffffffffff\n      and\n        /* \"Section5/SmartContractWallet.sol\":4101:4111  msg.sender */\n      caller\n        /* \"Section5/SmartContractWallet.sol\":4101:4120  msg.sender != owner */\n      0xffffffffffffffffffffffffffffffffffffffff\n      and\n      eq\n        /* \"Section5/SmartContractWallet.sol\":4098:4605  if(msg.sender != owner){... */\n      tag_80\n      jumpi\n        /* \"Section5/SmartContractWallet.sol\":4144:4159  isAllowedToSend */\n      0x01\n        /* \"Section5/SmartContractWallet.sol\":4144:4171  isAllowedToSend[msg.sender] */\n      0x00\n        /* \"Section5/SmartContractWallet.sol\":4160:4170  msg.sender */\n      caller\n        /* \"Section5/SmartContractWallet.sol\":4144:4171  isAllowedToSend[msg.sender] */\n      0xffffffffffffffffffffffffffffffffffffffff\n      and\n      0xffffffffffffffffffffffffffffffffffffffff\n      and\n      dup2\n      mstore\n      0x20\n      add\n      swap1\n      dup2\n      mstore\n      0x20\n      add\n      0x00\n      keccak256\n      0x00\n      swap1\n      sload\n      swap1\n      0x0100\n      exp\n      swap1\n      div\n      0xff\n      and\n        /* \"Section5/SmartContractWallet.sol\":4136:4247  require(isAllowedToSend[msg.sender], \"You are not allowed to send anything from this smart contract, aborting\") */\n      tag_81\n      jumpi\n      mload(0x40)\n      0x08c379a000000000000000000000000000000000000000000000000000000000\n      dup2\n      mstore\n      0x04\n      add\n      tag_82\n      swap1\n      tag_83\n      jump\t// in\n    tag_82:\n      mload(0x40)\n      dup1\n      swap2\n      sub\n      swap1\n      revert\n    tag_81:\n        /* \"Section5/SmartContractWallet.sol\":4345:4352  _amount */\n      dup3\n        /* \"Section5/SmartContractWallet.sol\":4320:4329  allowance */\n      0x02\n        /* \"Section5/SmartContractWallet.sol\":4320:4341  allowance[msg.sender] */\n      0x00\n        /* \"Section5/SmartContractWallet.sol\":4330:4340  msg.sender */\n      caller\n        /* \"Section5/SmartContractWallet.sol\":4320:4341  allowance[msg.sender] */\n      0xffffffffffffffffffffffffffffffffffffffff\n      and\n      0xffffffffffffffffffffffffffffffffffffffff\n      and\n      dup2\n      mstore\n      0x20\n      add\n      swap1\n      dup2\n      mstore\n      0x20\n      add\n      0x00\n      keccak256\n      sload\n        /* \"Section5/SmartContractWallet.sol\":4320:4352  allowance[msg.sender] >= _amount */\n      lt\n      iszero\n        /* \"Section5/SmartContractWallet.sol\":4312:4418  require(allowance[msg.sender] >= _amount, \"You are trying to send more than you are allowed to, aborting\") */\n      tag_84\n      jumpi\n      mload(0x40)\n      0x08c379a000000000000000000000000000000000000000000000000000000000\n      dup2\n      mstore\n      0x04\n      add\n      tag_85\n      swap1\n      tag_86\n      jump\t// in\n    tag_85:\n      mload(0x40)\n      dup1\n      swap2\n      sub\n      swap1\n      revert\n    tag_84:\n        /* \"Section5/SmartContractWallet.sol\":4513:4520  _amount */\n      dup3\n        /* \"Section5/SmartContractWallet.sol\":4488:4497  allowance */\n      0x02\n        /* \"Section5/SmartContractWallet.sol\":4488:4509  allowance[msg.sender] */\n      0x00\n        /* \"Section5/SmartContractWallet.sol\":4498:4508  msg.sender */\n      caller\n        /* \"Section5/SmartContractWallet.sol\":4488:4509  allowance[msg.sender] */\n      0xffffffffffffffffffffffffffffffffffffffff\n      and\n      0xffffffffffffffffffffffffffffffffffffffff\n      and\n      dup2\n      mstore\n      0x20\n      add\n      swap1\n      dup2\n      mstore\n      0x20\n      add\n      0x00\n      keccak256\n      0x00\n        /* \"Section5/SmartContractWallet.sol\":4488:4520  allowance[msg.sender] -= _amount */\n      dup3\n      dup3\n      sload\n      tag_87\n      swap2\n      swap1\n      tag_88\n      jump\t// in\n    tag_87:\n      swap3\n      pop\n      pop\n      dup2\n      swap1\n      sstore\n      pop\n        /* \"Section5/SmartContractWallet.sol\":4098:4605  if(msg.sender != owner){... */\n    tag_80:\n        /* \"Section5/SmartContractWallet.sol\":4618:4630  bool success */\n      0x00\n        /* \"Section5/SmartContractWallet.sol\":4632:4655  bytes memory returnData */\n      dup1\n        /* \"Section5/SmartContractWallet.sol\":4659:4662  _to */\n      dup6\n        /* \"Section5/SmartContractWallet.sol\":4659:4667  _to.call */\n      0xffffffffffffffffffffffffffffffffffffffff\n      and\n        /* \"Section5/SmartContractWallet.sol\":4674:4681  _amount */\n      dup6\n        /* \"Section5/SmartContractWallet.sol\":4683:4691  _payload */\n      dup6\n        /* \"Section5/SmartContractWallet.sol\":4659:4692  _to.call{value:_amount}(_payload) */\n      mload(0x40)\n      tag_89\n      swap2\n      swap1\n      tag_90\n      jump\t// in\n    tag_89:\n      0x00\n      mload(0x40)\n      dup1\n      dup4\n      sub\n      dup2\n      dup6\n      dup8\n      gas\n      call\n      swap3\n      pop\n      pop\n      pop\n      returndatasize\n      dup1\n      0x00\n      dup2\n      eq\n      tag_93\n      jumpi\n      mload(0x40)\n      swap2\n      pop\n      and(add(returndatasize, 0x3f), not(0x1f))\n      dup3\n      add\n      0x40\n      mstore\n      returndatasize\n      dup3\n      mstore\n      returndatasize\n      0x00\n      0x20\n      dup5\n      add\n      returndatacopy\n      jump(tag_92)\n    tag_93:\n      0x60\n      swap2\n      pop\n    tag_92:\n      pop\n        /* \"Section5/SmartContractWallet.sol\":4617:4692  (bool success, bytes memory returnData) = _to.call{value:_amount}(_payload) */\n      swap2\n      pop\n      swap2\n      pop\n        /* \"Section5/SmartContractWallet.sol\":4711:4718  success */\n      dup2\n        /* \"Section5/SmartContractWallet.sol\":4703:4756  require(success, \"Aborting, call was not successful\") */\n      tag_94\n      jumpi\n      mload(0x40)\n      0x08c379a000000000000000000000000000000000000000000000000000000000\n      dup2\n      mstore\n      0x04\n      add\n      tag_95\n      swap1\n      tag_96\n      jump\t// in\n    tag_95:\n      mload(0x40)\n      dup1\n      swap2\n      sub\n      swap1\n      revert\n    tag_94:\n        /* \"Section5/SmartContractWallet.sol\":4805:4815  returnData */\n      dup1\n        /* \"Section5/SmartContractWallet.sol\":4798:4815  return returnData */\n      swap3\n      pop\n      pop\n      pop\n        /* \"Section5/SmartContractWallet.sol\":3865:4838  function transfer(address payable _to, uint _amount ,  bytes memory _payload) public returns(bytes memory) {... */\n      swap4\n      swap3\n      pop\n      pop\n      pop\n      jump\t// out\n        /* \"#utility.yul\":7:82   */\n    tag_97:\n        /* \"#utility.yul\":40:46   */\n      0x00\n        /* \"#utility.yul\":73:75   */\n      0x40\n        /* \"#utility.yul\":67:76   */\n      mload\n        /* \"#utility.yul\":57:76   */\n      swap1\n      pop\n        /* \"#utility.yul\":7:82   */\n      swap1\n      jump\t// out\n        /* \"#utility.yul\":88:205   */\n    tag_98:\n        /* \"#utility.yul\":197:198   */\n      0x00\n        /* \"#utility.yul\":194:195   */\n      dup1\n        /* \"#utility.yul\":187:199   */\n      revert\n        /* \"#utility.yul\":211:328   */\n    tag_99:\n        /* \"#utility.yul\":320:321   */\n      0x00\n        /* \"#utility.yul\":317:318   */\n      dup1\n        /* \"#utility.yul\":310:322   */\n      revert\n        /* \"#utility.yul\":334:460   */\n    tag_100:\n        /* \"#utility.yul\":371:378   */\n      0x00\n        /* \"#utility.yul\":411:453   */\n      0xffffffffffffffffffffffffffffffffffffffff\n        /* \"#utility.yul\":404:409   */\n      dup3\n        /* \"#utility.yul\":400:454   */\n      and\n        /* \"#utility.yul\":389:454   */\n      swap1\n      pop\n        /* \"#utility.yul\":334:460   */\n      swap2\n      swap1\n      pop\n      jump\t// out\n        /* \"#utility.yul\":466:562   */\n    tag_101:\n        /* \"#utility.yul\":503:510   */\n      0x00\n        /* \"#utility.yul\":532:556   */\n      tag_153\n        /* \"#utility.yul\":550:555   */\n      dup3\n        /* \"#utility.yul\":532:556   */\n      tag_100\n      jump\t// in\n    tag_153:\n        /* \"#utility.yul\":521:556   */\n      swap1\n      pop\n        /* \"#utility.yul\":466:562   */\n      swap2\n      swap1\n      pop\n      jump\t// out\n        /* \"#utility.yul\":568:690   */\n    tag_102:\n        /* \"#utility.yul\":641:665   */\n      tag_155\n        /* \"#utility.yul\":659:664   */\n      dup2\n        /* \"#utility.yul\":641:665   */\n      tag_101\n      jump\t// in\n    tag_155:\n        /* \"#utility.yul\":634:639   */\n      dup2\n        /* \"#utility.yul\":631:666   */\n      eq\n        /* \"#utility.yul\":621:684   */\n      tag_156\n      jumpi\n        /* \"#utility.yul\":680:681   */\n      0x00\n        /* \"#utility.yul\":677:678   */\n      dup1\n        /* \"#utility.yul\":670:682   */\n      revert\n        /* \"#utility.yul\":621:684   */\n    tag_156:\n        /* \"#utility.yul\":568:690   */\n      pop\n      jump\t// out\n        /* \"#utility.yul\":696:835   */\n    tag_103:\n        /* \"#utility.yul\":742:747   */\n      0x00\n        /* \"#utility.yul\":780:786   */\n      dup2\n        /* \"#utility.yul\":767:787   */\n      calldataload\n        /* \"#utility.yul\":758:787   */\n      swap1\n      pop\n        /* \"#utility.yul\":796:829   */\n      tag_158\n        /* \"#utility.yul\":823:828   */\n      dup2\n        /* \"#utility.yul\":796:829   */\n      tag_102\n      jump\t// in\n    tag_158:\n        /* \"#utility.yul\":696:835   */\n      swap3\n      swap2\n      pop\n      pop\n      jump\t// out\n        /* \"#utility.yul\":841:1170   */\n    tag_17:\n        /* \"#utility.yul\":900:906   */\n      0x00\n        /* \"#utility.yul\":949:951   */\n      0x20\n        /* \"#utility.yul\":937:946   */\n      dup3\n        /* \"#utility.yul\":928:935   */\n      dup5\n        /* \"#utility.yul\":924:947   */\n      sub\n        /* \"#utility.yul\":920:952   */\n      slt\n        /* \"#utility.yul\":917:1036   */\n      iszero\n      tag_160\n      jumpi\n        /* \"#utility.yul\":955:1034   */\n      tag_161\n      tag_98\n      jump\t// in\n    tag_161:\n        /* \"#utility.yul\":917:1036   */\n    tag_160:\n        /* \"#utility.yul\":1075:1076   */\n      0x00\n        /* \"#utility.yul\":1100:1153   */\n      tag_162\n        /* \"#utility.yul\":1145:1152   */\n      dup5\n        /* \"#utility.yul\":1136:1142   */\n      dup3\n        /* \"#utility.yul\":1125:1134   */\n      dup6\n        /* \"#utility.yul\":1121:1143   */\n      add\n        /* \"#utility.yul\":1100:1153   */\n      tag_103\n      jump\t// in\n    tag_162:\n        /* \"#utility.yul\":1090:1153   */\n      swap2\n      pop\n        /* \"#utility.yul\":1046:1163   */\n      pop\n        /* \"#utility.yul\":841:1170   */\n      swap3\n      swap2\n      pop\n      pop\n      jump\t// out\n        /* \"#utility.yul\":1176:1266   */\n    tag_104:\n        /* \"#utility.yul\":1210:1217   */\n      0x00\n        /* \"#utility.yul\":1253:1258   */\n      dup2\n        /* \"#utility.yul\":1246:1259   */\n      iszero\n        /* \"#utility.yul\":1239:1260   */\n      iszero\n        /* \"#utility.yul\":1228:1260   */\n      swap1\n      pop\n        /* \"#utility.yul\":1176:1266   */\n      swap2\n      swap1\n      pop\n      jump\t// out\n        /* \"#utility.yul\":1272:1381   */\n    tag_105:\n        /* \"#utility.yul\":1353:1374   */\n      tag_165\n        /* \"#utility.yul\":1368:1373   */\n      dup2\n        /* \"#utility.yul\":1353:1374   */\n      tag_104\n      jump\t// in\n    tag_165:\n        /* \"#utility.yul\":1348:1351   */\n      dup3\n        /* \"#utility.yul\":1341:1375   */\n      mstore\n        /* \"#utility.yul\":1272:1381   */\n      pop\n      pop\n      jump\t// out\n        /* \"#utility.yul\":1387:1597   */\n    tag_20:\n        /* \"#utility.yul\":1474:1478   */\n      0x00\n        /* \"#utility.yul\":1512:1514   */\n      0x20\n        /* \"#utility.yul\":1501:1510   */\n      dup3\n        /* \"#utility.yul\":1497:1515   */\n      add\n        /* \"#utility.yul\":1489:1515   */\n      swap1\n      pop\n        /* \"#utility.yul\":1525:1590   */\n      tag_167\n        /* \"#utility.yul\":1587:1588   */\n      0x00\n        /* \"#utility.yul\":1576:1585   */\n      dup4\n        /* \"#utility.yul\":1572:1589   */\n      add\n        /* \"#utility.yul\":1563:1569   */\n      dup5\n        /* \"#utility.yul\":1525:1590   */\n      tag_105\n      jump\t// in\n    tag_167:\n        /* \"#utility.yul\":1387:1597   */\n      swap3\n      swap2\n      pop\n      pop\n      jump\t// out\n        /* \"#utility.yul\":1603:1719   */\n    tag_106:\n        /* \"#utility.yul\":1673:1694   */\n      tag_169\n        /* \"#utility.yul\":1688:1693   */\n      dup2\n        /* \"#utility.yul\":1673:1694   */\n      tag_104\n      jump\t// in\n    tag_169:\n        /* \"#utility.yul\":1666:1671   */\n      dup2\n        /* \"#utility.yul\":1663:1695   */\n      eq\n        /* \"#utility.yul\":1653:1713   */\n      tag_170\n      jumpi\n        /* \"#utility.yul\":1709:1710   */\n      0x00\n        /* \"#utility.yul\":1706:1707   */\n      dup1\n        /* \"#utility.yul\":1699:1711   */\n      revert\n        /* \"#utility.yul\":1653:1713   */\n    tag_170:\n        /* \"#utility.yul\":1603:1719   */\n      pop\n      jump\t// out\n        /* \"#utility.yul\":1725:1858   */\n    tag_107:\n        /* \"#utility.yul\":1768:1773   */\n      0x00\n        /* \"#utility.yul\":1806:1812   */\n      dup2\n        /* \"#utility.yul\":1793:1813   */\n      calldataload\n        /* \"#utility.yul\":1784:1813   */\n      swap1\n      pop\n        /* \"#utility.yul\":1822:1852   */\n      tag_172\n        /* \"#utility.yul\":1846:1851   */\n      dup2\n        /* \"#utility.yul\":1822:1852   */\n      tag_106\n      jump\t// in\n    tag_172:\n        /* \"#utility.yul\":1725:1858   */\n      swap3\n      swap2\n      pop\n      pop\n      jump\t// out\n        /* \"#utility.yul\":1864:2332   */\n    tag_24:\n        /* \"#utility.yul\":1929:1935   */\n      0x00\n        /* \"#utility.yul\":1937:1943   */\n      dup1\n        /* \"#utility.yul\":1986:1988   */\n      0x40\n        /* \"#utility.yul\":1974:1983   */\n      dup4\n        /* \"#utility.yul\":1965:1972   */\n      dup6\n        /* \"#utility.yul\":1961:1984   */\n      sub\n        /* \"#utility.yul\":1957:1989   */\n      slt\n        /* \"#utility.yul\":1954:2073   */\n      iszero\n      tag_174\n      jumpi\n        /* \"#utility.yul\":1992:2071   */\n      tag_175\n      tag_98\n      jump\t// in\n    tag_175:\n        /* \"#utility.yul\":1954:2073   */\n    tag_174:\n        /* \"#utility.yul\":2112:2113   */\n      0x00\n        /* \"#utility.yul\":2137:2190   */\n      tag_176\n        /* \"#utility.yul\":2182:2189   */\n      dup6\n        /* \"#utility.yul\":2173:2179   */\n      dup3\n        /* \"#utility.yul\":2162:2171   */\n      dup7\n        /* \"#utility.yul\":2158:2180   */\n      add\n        /* \"#utility.yul\":2137:2190   */\n      tag_103\n      jump\t// in\n    tag_176:\n        /* \"#utility.yul\":2127:2190   */\n      swap3\n      pop\n        /* \"#utility.yul\":2083:2200   */\n      pop\n        /* \"#utility.yul\":2239:2241   */\n      0x20\n        /* \"#utility.yul\":2265:2315   */\n      tag_177\n        /* \"#utility.yul\":2307:2314   */\n      dup6\n        /* \"#utility.yul\":2298:2304   */\n      dup3\n        /* \"#utility.yul\":2287:2296   */\n      dup7\n        /* \"#utility.yul\":2283:2305   */\n      add\n        /* \"#utility.yul\":2265:2315   */\n      tag_107\n      jump\t// in\n    tag_177:\n        /* \"#utility.yul\":2255:2315   */\n      swap2\n      pop\n        /* \"#utility.yul\":2210:2325   */\n      pop\n        /* \"#utility.yul\":1864:2332   */\n      swap3\n      pop\n      swap3\n      swap1\n      pop\n      jump\t// out\n        /* \"#utility.yul\":2338:2415   */\n    tag_108:\n        /* \"#utility.yul\":2375:2382   */\n      0x00\n        /* \"#utility.yul\":2404:2409   */\n      dup2\n        /* \"#utility.yul\":2393:2409   */\n      swap1\n      pop\n        /* \"#utility.yul\":2338:2415   */\n      swap2\n      swap1\n      pop\n      jump\t// out\n        /* \"#utility.yul\":2421:2543   */\n    tag_109:\n        /* \"#utility.yul\":2494:2518   */\n      tag_180\n        /* \"#utility.yul\":2512:2517   */\n      dup2\n        /* \"#utility.yul\":2494:2518   */\n      tag_108\n      jump\t// in\n    tag_180:\n        /* \"#utility.yul\":2487:2492   */\n      dup2\n        /* \"#utility.yul\":2484:2519   */\n      eq\n        /* \"#utility.yul\":2474:2537   */\n      tag_181\n      jumpi\n        /* \"#utility.yul\":2533:2534   */\n      0x00\n        /* \"#utility.yul\":2530:2531   */\n      dup1\n        /* \"#utility.yul\":2523:2535   */\n      revert\n        /* \"#utility.yul\":2474:2537   */\n    tag_181:\n        /* \"#utility.yul\":2421:2543   */\n      pop\n      jump\t// out\n        /* \"#utility.yul\":2549:2688   */\n    tag_110:\n        /* \"#utility.yul\":2595:2600   */\n      0x00\n        /* \"#utility.yul\":2633:2639   */\n      dup2\n        /* \"#utility.yul\":2620:2640   */\n      calldataload\n        /* \"#utility.yul\":2611:2640   */\n      swap1\n      pop\n        /* \"#utility.yul\":2649:2682   */\n      tag_183\n        /* \"#utility.yul\":2676:2681   */\n      dup2\n        /* \"#utility.yul\":2649:2682   */\n      tag_109\n      jump\t// in\n    tag_183:\n        /* \"#utility.yul\":2549:2688   */\n      swap3\n      swap2\n      pop\n      pop\n      jump\t// out\n        /* \"#utility.yul\":2694:3168   */\n    tag_34:\n        /* \"#utility.yul\":2762:2768   */\n      0x00\n        /* \"#utility.yul\":2770:2776   */\n      dup1\n        /* \"#utility.yul\":2819:2821   */\n      0x40\n        /* \"#utility.yul\":2807:2816   */\n      dup4\n        /* \"#utility.yul\":2798:2805   */\n      dup6\n        /* \"#utility.yul\":2794:2817   */\n      sub\n        /* \"#utility.yul\":2790:2822   */\n      slt\n        /* \"#utility.yul\":2787:2906   */\n      iszero\n      tag_185\n      jumpi\n        /* \"#utility.yul\":2825:2904   */\n      tag_186\n      tag_98\n      jump\t// in\n    tag_186:\n        /* \"#utility.yul\":2787:2906   */\n    tag_185:\n        /* \"#utility.yul\":2945:2946   */\n      0x00\n        /* \"#utility.yul\":2970:3023   */\n      tag_187\n        /* \"#utility.yul\":3015:3022   */\n      dup6\n        /* \"#utility.yul\":3006:3012   */\n      dup3\n        /* \"#utility.yul\":2995:3004   */\n      dup7\n        /* \"#utility.yul\":2991:3013   */\n      add\n        /* \"#utility.yul\":2970:3023   */\n      tag_103\n      jump\t// in\n    tag_187:\n        /* \"#utility.yul\":2960:3023   */\n      swap3\n      pop\n        /* \"#utility.yul\":2916:3033   */\n      pop\n        /* \"#utility.yul\":3072:3074   */\n      0x20\n        /* \"#utility.yul\":3098:3151   */\n      tag_188\n        /* \"#utility.yul\":3143:3150   */\n      dup6\n        /* \"#utility.yul\":3134:3140   */\n      dup3\n        /* \"#utility.yul\":3123:3132   */\n      dup7\n        /* \"#utility.yul\":3119:3141   */\n      add\n        /* \"#utility.yul\":3098:3151   */\n      tag_110\n      jump\t// in\n    tag_188:\n        /* \"#utility.yul\":3088:3151   */\n      swap2\n      pop\n        /* \"#utility.yul\":3043:3161   */\n      pop\n        /* \"#utility.yul\":2694:3168   */\n      swap3\n      pop\n      swap3\n      swap1\n      pop\n      jump\t// out\n        /* \"#utility.yul\":3174:3292   */\n    tag_111:\n        /* \"#utility.yul\":3261:3285   */\n      tag_190\n        /* \"#utility.yul\":3279:3284   */\n      dup2\n        /* \"#utility.yul\":3261:3285   */\n      tag_108\n      jump\t// in\n    tag_190:\n        /* \"#utility.yul\":3256:3259   */\n      dup3\n        /* \"#utility.yul\":3249:3286   */\n      mstore\n        /* \"#utility.yul\":3174:3292   */\n      pop\n      pop\n      jump\t// out\n        /* \"#utility.yul\":3298:3520   */\n    tag_41:\n        /* \"#utility.yul\":3391:3395   */\n      0x00\n        /* \"#utility.yul\":3429:3431   */\n      0x20\n        /* \"#utility.yul\":3418:3427   */\n      dup3\n        /* \"#utility.yul\":3414:3432   */\n      add\n        /* \"#utility.yul\":3406:3432   */\n      swap1\n      pop\n        /* \"#utility.yul\":3442:3513   */\n      tag_192\n        /* \"#utility.yul\":3510:3511   */\n      0x00\n        /* \"#utility.yul\":3499:3508   */\n      dup4\n        /* \"#utility.yul\":3495:3512   */\n      add\n        /* \"#utility.yul\":3486:3492   */\n      dup5\n        /* \"#utility.yul\":3442:3513   */\n      tag_111\n      jump\t// in\n    tag_192:\n        /* \"#utility.yul\":3298:3520   */\n      swap3\n      swap2\n      pop\n      pop\n      jump\t// out\n        /* \"#utility.yul\":3526:3630   */\n    tag_112:\n        /* \"#utility.yul\":3571:3578   */\n      0x00\n        /* \"#utility.yul\":3600:3624   */\n      tag_194\n        /* \"#utility.yul\":3618:3623   */\n      dup3\n        /* \"#utility.yul\":3600:3624   */\n      tag_100\n      jump\t// in\n    tag_194:\n        /* \"#utility.yul\":3589:3624   */\n      swap1\n      pop\n        /* \"#utility.yul\":3526:3630   */\n      swap2\n      swap1\n      pop\n      jump\t// out\n        /* \"#utility.yul\":3636:3774   */\n    tag_113:\n        /* \"#utility.yul\":3717:3749   */\n      tag_196\n        /* \"#utility.yul\":3743:3748   */\n      dup2\n        /* \"#utility.yul\":3717:3749   */\n      tag_112\n      jump\t// in\n    tag_196:\n        /* \"#utility.yul\":3710:3715   */\n      dup2\n        /* \"#utility.yul\":3707:3750   */\n      eq\n        /* \"#utility.yul\":3697:3768   */\n      tag_197\n      jumpi\n        /* \"#utility.yul\":3764:3765   */\n      0x00\n        /* \"#utility.yul\":3761:3762   */\n      dup1\n        /* \"#utility.yul\":3754:3766   */\n      revert\n        /* \"#utility.yul\":3697:3768   */\n    tag_197:\n        /* \"#utility.yul\":3636:3774   */\n      pop\n      jump\t// out\n        /* \"#utility.yul\":3780:3935   */\n    tag_114:\n        /* \"#utility.yul\":3834:3839   */\n      0x00\n        /* \"#utility.yul\":3872:3878   */\n      dup2\n        /* \"#utility.yul\":3859:3879   */\n      calldataload\n        /* \"#utility.yul\":3850:3879   */\n      swap1\n      pop\n        /* \"#utility.yul\":3888:3929   */\n      tag_199\n        /* \"#utility.yul\":3923:3928   */\n      dup2\n        /* \"#utility.yul\":3888:3929   */\n      tag_113\n      jump\t// in\n    tag_199:\n        /* \"#utility.yul\":3780:3935   */\n      swap3\n      swap2\n      pop\n      pop\n      jump\t// out\n        /* \"#utility.yul\":3941:4286   */\n    tag_49:\n        /* \"#utility.yul\":4008:4014   */\n      0x00\n        /* \"#utility.yul\":4057:4059   */\n      0x20\n        /* \"#utility.yul\":4045:4054   */\n      dup3\n        /* \"#utility.yul\":4036:4043   */\n      dup5\n        /* \"#utility.yul\":4032:4055   */\n      sub\n        /* \"#utility.yul\":4028:4060   */\n      slt\n        /* \"#utility.yul\":4025:4144   */\n      iszero\n      tag_201\n      jumpi\n        /* \"#utility.yul\":4063:4142   */\n      tag_202\n      tag_98\n      jump\t// in\n    tag_202:\n        /* \"#utility.yul\":4025:4144   */\n    tag_201:\n        /* \"#utility.yul\":4183:4184   */\n      0x00\n        /* \"#utility.yul\":4208:4269   */\n      tag_203\n        /* \"#utility.yul\":4261:4268   */\n      dup5\n        /* \"#utility.yul\":4252:4258   */\n      dup3\n        /* \"#utility.yul\":4241:4250   */\n      dup6\n        /* \"#utility.yul\":4237:4259   */\n      add\n        /* \"#utility.yul\":4208:4269   */\n      tag_114\n      jump\t// in\n    tag_203:\n        /* \"#utility.yul\":4198:4269   */\n      swap2\n      pop\n        /* \"#utility.yul\":4154:4279   */\n      pop\n        /* \"#utility.yul\":3941:4286   */\n      swap3\n      swap2\n      pop\n      pop\n      jump\t// out\n        /* \"#utility.yul\":4292:4409   */\n    tag_115:\n        /* \"#utility.yul\":4401:4402   */\n      0x00\n        /* \"#utility.yul\":4398:4399   */\n      dup1\n        /* \"#utility.yul\":4391:4403   */\n      revert\n        /* \"#utility.yul\":4415:4532   */\n    tag_116:\n        /* \"#utility.yul\":4524:4525   */\n      0x00\n        /* \"#utility.yul\":4521:4522   */\n      dup1\n        /* \"#utility.yul\":4514:4526   */\n      revert\n        /* \"#utility.yul\":4538:4640   */\n    tag_117:\n        /* \"#utility.yul\":4579:4585   */\n      0x00\n        /* \"#utility.yul\":4630:4632   */\n      0x1f\n        /* \"#utility.yul\":4626:4633   */\n      not\n        /* \"#utility.yul\":4621:4623   */\n      0x1f\n        /* \"#utility.yul\":4614:4619   */\n      dup4\n        /* \"#utility.yul\":4610:4624   */\n      add\n        /* \"#utility.yul\":4606:4634   */\n      and\n        /* \"#utility.yul\":4596:4634   */\n      swap1\n      pop\n        /* \"#utility.yul\":4538:4640   */\n      swap2\n      swap1\n      pop\n      jump\t// out\n        /* \"#utility.yul\":4646:4826   */\n    tag_118:\n        /* \"#utility.yul\":4694:4771   */\n      0x4e487b7100000000000000000000000000000000000000000000000000000000\n        /* \"#utility.yul\":4691:4692   */\n      0x00\n        /* \"#utility.yul\":4684:4772   */\n      mstore\n        /* \"#utility.yul\":4791:4795   */\n      0x41\n        /* \"#utility.yul\":4788:4789   */\n      0x04\n        /* \"#utility.yul\":4781:4796   */\n      mstore\n        /* \"#utility.yul\":4815:4819   */\n      0x24\n        /* \"#utility.yul\":4812:4813   */\n      0x00\n        /* \"#utility.yul\":4805:4820   */\n      revert\n        /* \"#utility.yul\":4832:5113   */\n    tag_119:\n        /* \"#utility.yul\":4915:4942   */\n      tag_209\n        /* \"#utility.yul\":4937:4941   */\n      dup3\n        /* \"#utility.yul\":4915:4942   */\n      tag_117\n      jump\t// in\n    tag_209:\n        /* \"#utility.yul\":4907:4913   */\n      dup2\n        /* \"#utility.yul\":4903:4943   */\n      add\n        /* \"#utility.yul\":5045:5051   */\n      dup2\n        /* \"#utility.yul\":5033:5043   */\n      dup2\n        /* \"#utility.yul\":5030:5052   */\n      lt\n        /* \"#utility.yul\":5009:5027   */\n      0xffffffffffffffff\n        /* \"#utility.yul\":4997:5007   */\n      dup3\n        /* \"#utility.yul\":4994:5028   */\n      gt\n        /* \"#utility.yul\":4991:5053   */\n      or\n        /* \"#utility.yul\":4988:5076   */\n      iszero\n      tag_210\n      jumpi\n        /* \"#utility.yul\":5056:5074   */\n      tag_211\n      tag_118\n      jump\t// in\n    tag_211:\n        /* \"#utility.yul\":4988:5076   */\n    tag_210:\n        /* \"#utility.yul\":5096:5106   */\n      dup1\n        /* \"#utility.yul\":5092:5094   */\n      0x40\n        /* \"#utility.yul\":5085:5107   */\n      mstore\n        /* \"#utility.yul\":4875:5113   */\n      pop\n        /* \"#utility.yul\":4832:5113   */\n      pop\n      pop\n      jump\t// out\n        /* \"#utility.yul\":5119:5248   */\n    tag_120:\n        /* \"#utility.yul\":5153:5159   */\n      0x00\n        /* \"#utility.yul\":5180:5200   */\n      tag_213\n      tag_97\n      jump\t// in\n    tag_213:\n        /* \"#utility.yul\":5170:5200   */\n      swap1\n      pop\n        /* \"#utility.yul\":5209:5242   */\n      tag_214\n        /* \"#utility.yul\":5237:5241   */\n      dup3\n        /* \"#utility.yul\":5229:5235   */\n      dup3\n        /* \"#utility.yul\":5209:5242   */\n      tag_119\n      jump\t// in\n    tag_214:\n        /* \"#utility.yul\":5119:5248   */\n      swap2\n      swap1\n      pop\n      jump\t// out\n        /* \"#utility.yul\":5254:5561   */\n    tag_121:\n        /* \"#utility.yul\":5315:5319   */\n      0x00\n        /* \"#utility.yul\":5405:5423   */\n      0xffffffffffffffff\n        /* \"#utility.yul\":5397:5403   */\n      dup3\n        /* \"#utility.yul\":5394:5424   */\n      gt\n        /* \"#utility.yul\":5391:5447   */\n      iszero\n      tag_216\n      jumpi\n        /* \"#utility.yul\":5427:5445   */\n      tag_217\n      tag_118\n      jump\t// in\n    tag_217:\n        /* \"#utility.yul\":5391:5447   */\n    tag_216:\n        /* \"#utility.yul\":5465:5494   */\n      tag_218\n        /* \"#utility.yul\":5487:5493   */\n      dup3\n        /* \"#utility.yul\":5465:5494   */\n      tag_117\n      jump\t// in\n    tag_218:\n        /* \"#utility.yul\":5457:5494   */\n      swap1\n      pop\n        /* \"#utility.yul\":5549:5553   */\n      0x20\n        /* \"#utility.yul\":5543:5547   */\n      dup2\n        /* \"#utility.yul\":5539:5554   */\n      add\n        /* \"#utility.yul\":5531:5554   */\n      swap1\n      pop\n        /* \"#utility.yul\":5254:5561   */\n      swap2\n      swap1\n      pop\n      jump\t// out\n        /* \"#utility.yul\":5567:5713   */\n    tag_122:\n        /* \"#utility.yul\":5664:5670   */\n      dup3\n        /* \"#utility.yul\":5659:5662   */\n      dup2\n        /* \"#utility.yul\":5654:5657   */\n      dup4\n        /* \"#utility.yul\":5641:5671   */\n      calldatacopy\n        /* \"#utility.yul\":5705:5706   */\n      0x00\n        /* \"#utility.yul\":5696:5702   */\n      dup4\n        /* \"#utility.yul\":5691:5694   */\n      dup4\n        /* \"#utility.yul\":5687:5703   */\n      add\n        /* \"#utility.yul\":5680:5707   */\n      mstore\n        /* \"#utility.yul\":5567:5713   */\n      pop\n      pop\n      pop\n      jump\t// out\n        /* \"#utility.yul\":5719:6142   */\n    tag_123:\n        /* \"#utility.yul\":5796:5801   */\n      0x00\n        /* \"#utility.yul\":5821:5886   */\n      tag_221\n        /* \"#utility.yul\":5837:5885   */\n      tag_222\n        /* \"#utility.yul\":5878:5884   */\n      dup5\n        /* \"#utility.yul\":5837:5885   */\n      tag_121\n      jump\t// in\n    tag_222:\n        /* \"#utility.yul\":5821:5886   */\n      tag_120\n      jump\t// in\n    tag_221:\n        /* \"#utility.yul\":5812:5886   */\n      swap1\n      pop\n        /* \"#utility.yul\":5909:5915   */\n      dup3\n        /* \"#utility.yul\":5902:5907   */\n      dup2\n        /* \"#utility.yul\":5895:5916   */\n      mstore\n        /* \"#utility.yul\":5947:5951   */\n      0x20\n        /* \"#utility.yul\":5940:5945   */\n      dup2\n        /* \"#utility.yul\":5936:5952   */\n      add\n        /* \"#utility.yul\":5985:5988   */\n      dup5\n        /* \"#utility.yul\":5976:5982   */\n      dup5\n        /* \"#utility.yul\":5971:5974   */\n      dup5\n        /* \"#utility.yul\":5967:5983   */\n      add\n        /* \"#utility.yul\":5964:5989   */\n      gt\n        /* \"#utility.yul\":5961:6073   */\n      iszero\n      tag_223\n      jumpi\n        /* \"#utility.yul\":5992:6071   */\n      tag_224\n      tag_116\n      jump\t// in\n    tag_224:\n        /* \"#utility.yul\":5961:6073   */\n    tag_223:\n        /* \"#utility.yul\":6082:6136   */\n      tag_225\n        /* \"#utility.yul\":6129:6135   */\n      dup5\n        /* \"#utility.yul\":6124:6127   */\n      dup3\n        /* \"#utility.yul\":6119:6122   */\n      dup6\n        /* \"#utility.yul\":6082:6136   */\n      tag_122\n      jump\t// in\n    tag_225:\n        /* \"#utility.yul\":5802:6142   */\n      pop\n        /* \"#utility.yul\":5719:6142   */\n      swap4\n      swap3\n      pop\n      pop\n      pop\n      jump\t// out\n        /* \"#utility.yul\":6161:6499   */\n    tag_124:\n        /* \"#utility.yul\":6216:6221   */\n      0x00\n        /* \"#utility.yul\":6265:6268   */\n      dup3\n        /* \"#utility.yul\":6258:6262   */\n      0x1f\n        /* \"#utility.yul\":6250:6256   */\n      dup4\n        /* \"#utility.yul\":6246:6263   */\n      add\n        /* \"#utility.yul\":6242:6269   */\n      slt\n        /* \"#utility.yul\":6232:6354   */\n      tag_227\n      jumpi\n        /* \"#utility.yul\":6273:6352   */\n      tag_228\n      tag_115\n      jump\t// in\n    tag_228:\n        /* \"#utility.yul\":6232:6354   */\n    tag_227:\n        /* \"#utility.yul\":6390:6396   */\n      dup2\n        /* \"#utility.yul\":6377:6397   */\n      calldataload\n        /* \"#utility.yul\":6415:6493   */\n      tag_229\n        /* \"#utility.yul\":6489:6492   */\n      dup5\n        /* \"#utility.yul\":6481:6487   */\n      dup3\n        /* \"#utility.yul\":6474:6478   */\n      0x20\n        /* \"#utility.yul\":6466:6472   */\n      dup7\n        /* \"#utility.yul\":6462:6479   */\n      add\n        /* \"#utility.yul\":6415:6493   */\n      tag_123\n      jump\t// in\n    tag_229:\n        /* \"#utility.yul\":6406:6493   */\n      swap2\n      pop\n        /* \"#utility.yul\":6222:6499   */\n      pop\n        /* \"#utility.yul\":6161:6499   */\n      swap3\n      swap2\n      pop\n      pop\n      jump\t// out\n        /* \"#utility.yul\":6505:7318   */\n    tag_54:\n        /* \"#utility.yul\":6599:6605   */\n      0x00\n        /* \"#utility.yul\":6607:6613   */\n      dup1\n        /* \"#utility.yul\":6615:6621   */\n      0x00\n        /* \"#utility.yul\":6664:6666   */\n      0x60\n        /* \"#utility.yul\":6652:6661   */\n      dup5\n        /* \"#utility.yul\":6643:6650   */\n      dup7\n        /* \"#utility.yul\":6639:6662   */\n      sub\n        /* \"#utility.yul\":6635:6667   */\n      slt\n        /* \"#utility.yul\":6632:6751   */\n      iszero\n      tag_231\n      jumpi\n        /* \"#utility.yul\":6670:6749   */\n      tag_232\n      tag_98\n      jump\t// in\n    tag_232:\n        /* \"#utility.yul\":6632:6751   */\n    tag_231:\n        /* \"#utility.yul\":6790:6791   */\n      0x00\n        /* \"#utility.yul\":6815:6876   */\n      tag_233\n        /* \"#utility.yul\":6868:6875   */\n      dup7\n        /* \"#utility.yul\":6859:6865   */\n      dup3\n        /* \"#utility.yul\":6848:6857   */\n      dup8\n        /* \"#utility.yul\":6844:6866   */\n      add\n        /* \"#utility.yul\":6815:6876   */\n      tag_114\n      jump\t// in\n    tag_233:\n        /* \"#utility.yul\":6805:6876   */\n      swap4\n      pop\n        /* \"#utility.yul\":6761:6886   */\n      pop\n        /* \"#utility.yul\":6925:6927   */\n      0x20\n        /* \"#utility.yul\":6951:7004   */\n      tag_234\n        /* \"#utility.yul\":6996:7003   */\n      dup7\n        /* \"#utility.yul\":6987:6993   */\n      dup3\n        /* \"#utility.yul\":6976:6985   */\n      dup8\n        /* \"#utility.yul\":6972:6994   */\n      add\n        /* \"#utility.yul\":6951:7004   */\n      tag_110\n      jump\t// in\n    tag_234:\n        /* \"#utility.yul\":6941:7004   */\n      swap3\n      pop\n        /* \"#utility.yul\":6896:7014   */\n      pop\n        /* \"#utility.yul\":7081:7083   */\n      0x40\n        /* \"#utility.yul\":7070:7079   */\n      dup5\n        /* \"#utility.yul\":7066:7084   */\n      add\n        /* \"#utility.yul\":7053:7085   */\n      calldataload\n        /* \"#utility.yul\":7112:7130   */\n      0xffffffffffffffff\n        /* \"#utility.yul\":7104:7110   */\n      dup2\n        /* \"#utility.yul\":7101:7131   */\n      gt\n        /* \"#utility.yul\":7098:7215   */\n      iszero\n      tag_235\n      jumpi\n        /* \"#utility.yul\":7134:7213   */\n      tag_236\n      tag_99\n      jump\t// in\n    tag_236:\n        /* \"#utility.yul\":7098:7215   */\n    tag_235:\n        /* \"#utility.yul\":7239:7301   */\n      tag_237\n        /* \"#utility.yul\":7293:7300   */\n      dup7\n        /* \"#utility.yul\":7284:7290   */\n      dup3\n        /* \"#utility.yul\":7273:7282   */\n      dup8\n        /* \"#utility.yul\":7269:7291   */\n      add\n        /* \"#utility.yul\":7239:7301   */\n      tag_124\n      jump\t// in\n    tag_237:\n        /* \"#utility.yul\":7229:7301   */\n      swap2\n      pop\n        /* \"#utility.yul\":7024:7311   */\n      pop\n        /* \"#utility.yul\":6505:7318   */\n      swap3\n      pop\n      swap3\n      pop\n      swap3\n      jump\t// out\n        /* \"#utility.yul\":7324:7422   */\n    tag_125:\n        /* \"#utility.yul\":7375:7381   */\n      0x00\n        /* \"#utility.yul\":7409:7414   */\n      dup2\n        /* \"#utility.yul\":7403:7415   */\n      mload\n        /* \"#utility.yul\":7393:7415   */\n      swap1\n      pop\n        /* \"#utility.yul\":7324:7422   */\n      swap2\n      swap1\n      pop\n      jump\t// out\n        /* \"#utility.yul\":7428:7596   */\n    tag_126:\n        /* \"#utility.yul\":7511:7522   */\n      0x00\n        /* \"#utility.yul\":7545:7551   */\n      dup3\n        /* \"#utility.yul\":7540:7543   */\n      dup3\n        /* \"#utility.yul\":7533:7552   */\n      mstore\n        /* \"#utility.yul\":7585:7589   */\n      0x20\n        /* \"#utility.yul\":7580:7583   */\n      dup3\n        /* \"#utility.yul\":7576:7590   */\n      add\n        /* \"#utility.yul\":7561:7590   */\n      swap1\n      pop\n        /* \"#utility.yul\":7428:7596   */\n      swap3\n      swap2\n      pop\n      pop\n      jump\t// out\n        /* \"#utility.yul\":7602:7848   */\n    tag_127:\n        /* \"#utility.yul\":7683:7684   */\n      0x00\n        /* \"#utility.yul\":7693:7806   */\n    tag_241:\n        /* \"#utility.yul\":7707:7713   */\n      dup4\n        /* \"#utility.yul\":7704:7705   */\n      dup2\n        /* \"#utility.yul\":7701:7714   */\n      lt\n        /* \"#utility.yul\":7693:7806   */\n      iszero\n      tag_243\n      jumpi\n        /* \"#utility.yul\":7792:7793   */\n      dup1\n        /* \"#utility.yul\":7787:7790   */\n      dup3\n        /* \"#utility.yul\":7783:7794   */\n      add\n        /* \"#utility.yul\":7777:7795   */\n      mload\n        /* \"#utility.yul\":7773:7774   */\n      dup2\n        /* \"#utility.yul\":7768:7771   */\n      dup5\n        /* \"#utility.yul\":7764:7775   */\n      add\n        /* \"#utility.yul\":7757:7796   */\n      mstore\n        /* \"#utility.yul\":7729:7731   */\n      0x20\n        /* \"#utility.yul\":7726:7727   */\n      dup2\n        /* \"#utility.yul\":7722:7732   */\n      add\n        /* \"#utility.yul\":7717:7732   */\n      swap1\n      pop\n        /* \"#utility.yul\":7693:7806   */\n      jump(tag_241)\n    tag_243:\n        /* \"#utility.yul\":7840:7841   */\n      0x00\n        /* \"#utility.yul\":7831:7837   */\n      dup5\n        /* \"#utility.yul\":7826:7829   */\n      dup5\n        /* \"#utility.yul\":7822:7838   */\n      add\n        /* \"#utility.yul\":7815:7842   */\n      mstore\n        /* \"#utility.yul\":7664:7848   */\n      pop\n        /* \"#utility.yul\":7602:7848   */\n      pop\n      pop\n      pop\n      jump\t// out\n        /* \"#utility.yul\":7854:8227   */\n    tag_128:\n        /* \"#utility.yul\":7940:7943   */\n      0x00\n        /* \"#utility.yul\":7968:8006   */\n      tag_245\n        /* \"#utility.yul\":8000:8005   */\n      dup3\n        /* \"#utility.yul\":7968:8006   */\n      tag_125\n      jump\t// in\n    tag_245:\n        /* \"#utility.yul\":8022:8092   */\n      tag_246\n        /* \"#utility.yul\":8085:8091   */\n      dup2\n        /* \"#utility.yul\":8080:8083   */\n      dup6\n        /* \"#utility.yul\":8022:8092   */\n      tag_126\n      jump\t// in\n    tag_246:\n        /* \"#utility.yul\":8015:8092   */\n      swap4\n      pop\n        /* \"#utility.yul\":8101:8166   */\n      tag_247\n        /* \"#utility.yul\":8159:8165   */\n      dup2\n        /* \"#utility.yul\":8154:8157   */\n      dup6\n        /* \"#utility.yul\":8147:8151   */\n      0x20\n        /* \"#utility.yul\":8140:8145   */\n      dup7\n        /* \"#utility.yul\":8136:8152   */\n      add\n        /* \"#utility.yul\":8101:8166   */\n      tag_127\n      jump\t// in\n    tag_247:\n        /* \"#utility.yul\":8191:8220   */\n      tag_248\n        /* \"#utility.yul\":8213:8219   */\n      dup2\n        /* \"#utility.yul\":8191:8220   */\n      tag_117\n      jump\t// in\n    tag_248:\n        /* \"#utility.yul\":8186:8189   */\n      dup5\n        /* \"#utility.yul\":8182:8221   */\n      add\n        /* \"#utility.yul\":8175:8221   */\n      swap2\n      pop\n        /* \"#utility.yul\":7944:8227   */\n      pop\n        /* \"#utility.yul\":7854:8227   */\n      swap3\n      swap2\n      pop\n      pop\n      jump\t// out\n        /* \"#utility.yul\":8233:8542   */\n    tag_57:\n        /* \"#utility.yul\":8344:8348   */\n      0x00\n        /* \"#utility.yul\":8382:8384   */\n      0x20\n        /* \"#utility.yul\":8371:8380   */\n      dup3\n        /* \"#utility.yul\":8367:8385   */\n      add\n        /* \"#utility.yul\":8359:8385   */\n      swap1\n      pop\n        /* \"#utility.yul\":8431:8440   */\n      dup2\n        /* \"#utility.yul\":8425:8429   */\n      dup2\n        /* \"#utility.yul\":8421:8441   */\n      sub\n        /* \"#utility.yul\":8417:8418   */\n      0x00\n        /* \"#utility.yul\":8406:8415   */\n      dup4\n        /* \"#utility.yul\":8402:8419   */\n      add\n        /* \"#utility.yul\":8395:8442   */\n      mstore\n        /* \"#utility.yul\":8459:8535   */\n      tag_250\n        /* \"#utility.yul\":8530:8534   */\n      dup2\n        /* \"#utility.yul\":8521:8527   */\n      dup5\n        /* \"#utility.yul\":8459:8535   */\n      tag_128\n      jump\t// in\n    tag_250:\n        /* \"#utility.yul\":8451:8535   */\n      swap1\n      pop\n        /* \"#utility.yul\":8233:8542   */\n      swap3\n      swap2\n      pop\n      pop\n      jump\t// out\n        /* \"#utility.yul\":8548:8717   */\n    tag_129:\n        /* \"#utility.yul\":8632:8643   */\n      0x00\n        /* \"#utility.yul\":8666:8672   */\n      dup3\n        /* \"#utility.yul\":8661:8664   */\n      dup3\n        /* \"#utility.yul\":8654:8673   */\n      mstore\n        /* \"#utility.yul\":8706:8710   */\n      0x20\n        /* \"#utility.yul\":8701:8704   */\n      dup3\n        /* \"#utility.yul\":8697:8711   */\n      add\n        /* \"#utility.yul\":8682:8711   */\n      swap1\n      pop\n        /* \"#utility.yul\":8548:8717   */\n      swap3\n      swap2\n      pop\n      pop\n      jump\t// out\n        /* \"#utility.yul\":8723:8904   */\n    tag_130:\n        /* \"#utility.yul\":8863:8896   */\n      0x596f7520617265206e6f7420746865206f776e65722c2061626f7274696e6700\n        /* \"#utility.yul\":8859:8860   */\n      0x00\n        /* \"#utility.yul\":8851:8857   */\n      dup3\n        /* \"#utility.yul\":8847:8861   */\n      add\n        /* \"#utility.yul\":8840:8897   */\n      mstore\n        /* \"#utility.yul\":8723:8904   */\n      pop\n      jump\t// out\n        /* \"#utility.yul\":8910:9276   */\n    tag_131:\n        /* \"#utility.yul\":9052:9055   */\n      0x00\n        /* \"#utility.yul\":9073:9140   */\n      tag_254\n        /* \"#utility.yul\":9137:9139   */\n      0x1f\n        /* \"#utility.yul\":9132:9135   */\n      dup4\n        /* \"#utility.yul\":9073:9140   */\n      tag_129\n      jump\t// in\n    tag_254:\n        /* \"#utility.yul\":9066:9140   */\n      swap2\n      pop\n        /* \"#utility.yul\":9149:9242   */\n      tag_255\n        /* \"#utility.yul\":9238:9241   */\n      dup3\n        /* \"#utility.yul\":9149:9242   */\n      tag_130\n      jump\t// in\n    tag_255:\n        /* \"#utility.yul\":9267:9269   */\n      0x20\n        /* \"#utility.yul\":9262:9265   */\n      dup3\n        /* \"#utility.yul\":9258:9270   */\n      add\n        /* \"#utility.yul\":9251:9270   */\n      swap1\n      pop\n        /* \"#utility.yul\":8910:9276   */\n      swap2\n      swap1\n      pop\n      jump\t// out\n        /* \"#utility.yul\":9282:9701   */\n    tag_61:\n        /* \"#utility.yul\":9448:9452   */\n      0x00\n        /* \"#utility.yul\":9486:9488   */\n      0x20\n        /* \"#utility.yul\":9475:9484   */\n      dup3\n        /* \"#utility.yul\":9471:9489   */\n      add\n        /* \"#utility.yul\":9463:9489   */\n      swap1\n      pop\n        /* \"#utility.yul\":9535:9544   */\n      dup2\n        /* \"#utility.yul\":9529:9533   */\n      dup2\n        /* \"#utility.yul\":9525:9545   */\n      sub\n        /* \"#utility.yul\":9521:9522   */\n      0x00\n        /* \"#utility.yul\":9510:9519   */\n      dup4\n        /* \"#utility.yul\":9506:9523   */\n      add\n        /* \"#utility.yul\":9499:9546   */\n      mstore\n        /* \"#utility.yul\":9563:9694   */\n      tag_257\n        /* \"#utility.yul\":9689:9693   */\n      dup2\n        /* \"#utility.yul\":9563:9694   */\n      tag_131\n      jump\t// in\n    tag_257:\n        /* \"#utility.yul\":9555:9694   */\n      swap1\n      pop\n        /* \"#utility.yul\":9282:9701   */\n      swap2\n      swap1\n      pop\n      jump\t// out\n        /* \"#utility.yul\":9707:9939   */\n    tag_132:\n        /* \"#utility.yul\":9847:9881   */\n      0x596f7520617265206e6f7420677561726469616e206f6620746869732077616c\n        /* \"#utility.yul\":9843:9844   */\n      0x00\n        /* \"#utility.yul\":9835:9841   */\n      dup3\n        /* \"#utility.yul\":9831:9845   */\n      add\n        /* \"#utility.yul\":9824:9882   */\n      mstore\n        /* \"#utility.yul\":9916:9931   */\n      0x6c65742c2061626f7274696e6700000000000000000000000000000000000000\n        /* \"#utility.yul\":9911:9913   */\n      0x20\n        /* \"#utility.yul\":9903:9909   */\n      dup3\n        /* \"#utility.yul\":9899:9914   */\n      add\n        /* \"#utility.yul\":9892:9932   */\n      mstore\n        /* \"#utility.yul\":9707:9939   */\n      pop\n      jump\t// out\n        /* \"#utility.yul\":9945:10311   */\n    tag_133:\n        /* \"#utility.yul\":10087:10090   */\n      0x00\n        /* \"#utility.yul\":10108:10175   */\n      tag_260\n        /* \"#utility.yul\":10172:10174   */\n      0x2d\n        /* \"#utility.yul\":10167:10170   */\n      dup4\n        /* \"#utility.yul\":10108:10175   */\n      tag_129\n      jump\t// in\n    tag_260:\n        /* \"#utility.yul\":10101:10175   */\n      swap2\n      pop\n        /* \"#utility.yul\":10184:10277   */\n      tag_261\n        /* \"#utility.yul\":10273:10276   */\n      dup3\n        /* \"#utility.yul\":10184:10277   */\n      tag_132\n      jump\t// in\n    tag_261:\n        /* \"#utility.yul\":10302:10304   */\n      0x40\n        /* \"#utility.yul\":10297:10300   */\n      dup3\n        /* \"#utility.yul\":10293:10305   */\n      add\n        /* \"#utility.yul\":10286:10305   */\n      swap1\n      pop\n        /* \"#utility.yul\":9945:10311   */\n      swap2\n      swap1\n      pop\n      jump\t// out\n        /* \"#utility.yul\":10317:10736   */\n    tag_68:\n        /* \"#utility.yul\":10483:10487   */\n      0x00\n        /* \"#utility.yul\":10521:10523   */\n      0x20\n        /* \"#utility.yul\":10510:10519   */\n      dup3\n        /* \"#utility.yul\":10506:10524   */\n      add\n        /* \"#utility.yul\":10498:10524   */\n      swap1\n      pop\n        /* \"#utility.yul\":10570:10579   */\n      dup2\n        /* \"#utility.yul\":10564:10568   */\n      dup2\n        /* \"#utility.yul\":10560:10580   */\n      sub\n        /* \"#utility.yul\":10556:10557   */\n      0x00\n        /* \"#utility.yul\":10545:10554   */\n      dup4\n        /* \"#utility.yul\":10541:10558   */\n      add\n        /* \"#utility.yul\":10534:10581   */\n      mstore\n        /* \"#utility.yul\":10598:10729   */\n      tag_263\n        /* \"#utility.yul\":10724:10728   */\n      dup2\n        /* \"#utility.yul\":10598:10729   */\n      tag_133\n      jump\t// in\n    tag_263:\n        /* \"#utility.yul\":10590:10729   */\n      swap1\n      pop\n        /* \"#utility.yul\":10317:10736   */\n      swap2\n      swap1\n      pop\n      jump\t// out\n        /* \"#utility.yul\":10742:10919   */\n    tag_134:\n        /* \"#utility.yul\":10882:10911   */\n      0x596f7520616c726561647920766f7465642c2061626f7274696e670000000000\n        /* \"#utility.yul\":10878:10879   */\n      0x00\n        /* \"#utility.yul\":10870:10876   */\n      dup3\n        /* \"#utility.yul\":10866:10880   */\n      add\n        /* \"#utility.yul\":10859:10912   */\n      mstore\n        /* \"#utility.yul\":10742:10919   */\n      pop\n      jump\t// out\n        /* \"#utility.yul\":10925:11291   */\n    tag_135:\n        /* \"#utility.yul\":11067:11070   */\n      0x00\n        /* \"#utility.yul\":11088:11155   */\n      tag_266\n        /* \"#utility.yul\":11152:11154   */\n      0x1b\n        /* \"#utility.yul\":11147:11150   */\n      dup4\n        /* \"#utility.yul\":11088:11155   */\n      tag_129\n      jump\t// in\n    tag_266:\n        /* \"#utility.yul\":11081:11155   */\n      swap2\n      pop\n        /* \"#utility.yul\":11164:11257   */\n      tag_267\n        /* \"#utility.yul\":11253:11256   */\n      dup3\n        /* \"#utility.yul\":11164:11257   */\n      tag_134\n      jump\t// in\n    tag_267:\n        /* \"#utility.yul\":11282:11284   */\n      0x20\n        /* \"#utility.yul\":11277:11280   */\n      dup3\n        /* \"#utility.yul\":11273:11285   */\n      add\n        /* \"#utility.yul\":11266:11285   */\n      swap1\n      pop\n        /* \"#utility.yul\":10925:11291   */\n      swap2\n      swap1\n      pop\n      jump\t// out\n        /* \"#utility.yul\":11297:11716   */\n    tag_71:\n        /* \"#utility.yul\":11463:11467   */\n      0x00\n        /* \"#utility.yul\":11501:11503   */\n      0x20\n        /* \"#utility.yul\":11490:11499   */\n      dup3\n        /* \"#utility.yul\":11486:11504   */\n      add\n        /* \"#utility.yul\":11478:11504   */\n      swap1\n      pop\n        /* \"#utility.yul\":11550:11559   */\n      dup2\n        /* \"#utility.yul\":11544:11548   */\n      dup2\n        /* \"#utility.yul\":11540:11560   */\n      sub\n        /* \"#utility.yul\":11536:11537   */\n      0x00\n        /* \"#utility.yul\":11525:11534   */\n      dup4\n        /* \"#utility.yul\":11521:11538   */\n      add\n        /* \"#utility.yul\":11514:11561   */\n      mstore\n        /* \"#utility.yul\":11578:11709   */\n      tag_269\n        /* \"#utility.yul\":11704:11708   */\n      dup2\n        /* \"#utility.yul\":11578:11709   */\n      tag_135\n      jump\t// in\n    tag_269:\n        /* \"#utility.yul\":11570:11709   */\n      swap1\n      pop\n        /* \"#utility.yul\":11297:11716   */\n      swap2\n      swap1\n      pop\n      jump\t// out\n        /* \"#utility.yul\":11722:11902   */\n    tag_136:\n        /* \"#utility.yul\":11770:11847   */\n      0x4e487b7100000000000000000000000000000000000000000000000000000000\n        /* \"#utility.yul\":11767:11768   */\n      0x00\n        /* \"#utility.yul\":11760:11848   */\n      mstore\n        /* \"#utility.yul\":11867:11871   */\n      0x11\n        /* \"#utility.yul\":11864:11865   */\n      0x04\n        /* \"#utility.yul\":11857:11872   */\n      mstore\n        /* \"#utility.yul\":11891:11895   */\n      0x24\n        /* \"#utility.yul\":11888:11889   */\n      0x00\n        /* \"#utility.yul\":11881:11896   */\n      revert\n        /* \"#utility.yul\":11908:12141   */\n    tag_74:\n        /* \"#utility.yul\":11947:11950   */\n      0x00\n        /* \"#utility.yul\":11970:11994   */\n      tag_272\n        /* \"#utility.yul\":11988:11993   */\n      dup3\n        /* \"#utility.yul\":11970:11994   */\n      tag_108\n      jump\t// in\n    tag_272:\n        /* \"#utility.yul\":11961:11994   */\n      swap2\n      pop\n        /* \"#utility.yul\":12016:12082   */\n      0xffffffffffffffffffffffffffffffffffffffffffffffffffffffffffffffff\n        /* \"#utility.yul\":12009:12014   */\n      dup3\n        /* \"#utility.yul\":12006:12083   */\n      sub\n        /* \"#utility.yul\":12003:12106   */\n      tag_273\n      jumpi\n        /* \"#utility.yul\":12086:12104   */\n      tag_274\n      tag_136\n      jump\t// in\n    tag_274:\n        /* \"#utility.yul\":12003:12106   */\n    tag_273:\n        /* \"#utility.yul\":12133:12134   */\n      0x01\n        /* \"#utility.yul\":12126:12131   */\n      dup3\n        /* \"#utility.yul\":12122:12135   */\n      add\n        /* \"#utility.yul\":12115:12135   */\n      swap1\n      pop\n        /* \"#utility.yul\":11908:12141   */\n      swap2\n      swap1\n      pop\n      jump\t// out\n        /* \"#utility.yul\":12147:12329   */\n    tag_137:\n        /* \"#utility.yul\":12287:12321   */\n      0x596f7520617265206e6f7420746865206f776e65722c2061626f7274696e672e\n        /* \"#utility.yul\":12283:12284   */\n      0x00\n        /* \"#utility.yul\":12275:12281   */\n      dup3\n        /* \"#utility.yul\":12271:12285   */\n      add\n        /* \"#utility.yul\":12264:12322   */\n      mstore\n        /* \"#utility.yul\":12147:12329   */\n      pop\n      jump\t// out\n        /* \"#utility.yul\":12335:12701   */\n    tag_138:\n        /* \"#utility.yul\":12477:12480   */\n      0x00\n        /* \"#utility.yul\":12498:12565   */\n      tag_277\n        /* \"#utility.yul\":12562:12564   */\n      0x20\n        /* \"#utility.yul\":12557:12560   */\n      dup4\n        /* \"#utility.yul\":12498:12565   */\n      tag_129\n      jump\t// in\n    tag_277:\n        /* \"#utility.yul\":12491:12565   */\n      swap2\n      pop\n        /* \"#utility.yul\":12574:12667   */\n      tag_278\n        /* \"#utility.yul\":12663:12666   */\n      dup3\n        /* \"#utility.yul\":12574:12667   */\n      tag_137\n      jump\t// in\n    tag_278:\n        /* \"#utility.yul\":12692:12694   */\n      0x20\n        /* \"#utility.yul\":12687:12690   */\n      dup3\n        /* \"#utility.yul\":12683:12695   */\n      add\n        /* \"#utility.yul\":12676:12695   */\n      swap1\n      pop\n        /* \"#utility.yul\":12335:12701   */\n      swap2\n      swap1\n      pop\n      jump\t// out\n        /* \"#utility.yul\":12707:13126   */\n    tag_79:\n        /* \"#utility.yul\":12873:12877   */\n      0x00\n        /* \"#utility.yul\":12911:12913   */\n      0x20\n        /* \"#utility.yul\":12900:12909   */\n      dup3\n        /* \"#utility.yul\":12896:12914   */\n      add\n        /* \"#utility.yul\":12888:12914   */\n      swap1\n      pop\n        /* \"#utility.yul\":12960:12969   */\n      dup2\n        /* \"#utility.yul\":12954:12958   */\n      dup2\n        /* \"#utility.yul\":12950:12970   */\n      sub\n        /* \"#utility.yul\":12946:12947   */\n      0x00\n        /* \"#utility.yul\":12935:12944   */\n      dup4\n        /* \"#utility.yul\":12931:12948   */\n      add\n        /* \"#utility.yul\":12924:12971   */\n      mstore\n        /* \"#utility.yul\":12988:13119   */\n      tag_280\n        /* \"#utility.yul\":13114:13118   */\n      dup2\n        /* \"#utility.yul\":12988:13119   */\n      tag_138\n      jump\t// in\n    tag_280:\n        /* \"#utility.yul\":12980:13119   */\n      swap1\n      pop\n        /* \"#utility.yul\":12707:13126   */\n      swap2\n      swap1\n      pop\n      jump\t// out\n        /* \"#utility.yul\":13132:13427   */\n    tag_139:\n        /* \"#utility.yul\":13272:13306   */\n      0x596f7520617265206e6f7420616c6c6f77656420746f2073656e6420616e7974\n        /* \"#utility.yul\":13268:13269   */\n      0x00\n        /* \"#utility.yul\":13260:13266   */\n      dup3\n        /* \"#utility.yul\":13256:13270   */\n      add\n        /* \"#utility.yul\":13249:13307   */\n      mstore\n        /* \"#utility.yul\":13341:13375   */\n      0x68696e672066726f6d207468697320736d61727420636f6e74726163742c2061\n        /* \"#utility.yul\":13336:13338   */\n      0x20\n        /* \"#utility.yul\":13328:13334   */\n      dup3\n        /* \"#utility.yul\":13324:13339   */\n      add\n        /* \"#utility.yul\":13317:13376   */\n      mstore\n        /* \"#utility.yul\":13410:13419   */\n      0x626f7274696e6700000000000000000000000000000000000000000000000000\n        /* \"#utility.yul\":13405:13407   */\n      0x40\n        /* \"#utility.yul\":13397:13403   */\n      dup3\n        /* \"#utility.yul\":13393:13408   */\n      add\n        /* \"#utility.yul\":13386:13420   */\n      mstore\n        /* \"#utility.yul\":13132:13427   */\n      pop\n      jump\t// out\n        /* \"#utility.yul\":13433:13799   */\n    tag_140:\n        /* \"#utility.yul\":13575:13578   */\n      0x00\n        /* \"#utility.yul\":13596:13663   */\n      tag_283\n        /* \"#utility.yul\":13660:13662   */\n      0x47\n        /* \"#utility.yul\":13655:13658   */\n      dup4\n        /* \"#utility.yul\":13596:13663   */\n      tag_129\n      jump\t// in\n    tag_283:\n        /* \"#utility.yul\":13589:13663   */\n      swap2\n      pop\n        /* \"#utility.yul\":13672:13765   */\n      tag_284\n        /* \"#utility.yul\":13761:13764   */\n      dup3\n        /* \"#utility.yul\":13672:13765   */\n      tag_139\n      jump\t// in\n    tag_284:\n        /* \"#utility.yul\":13790:13792   */\n      0x60\n        /* \"#utility.yul\":13785:13788   */\n      dup3\n        /* \"#utility.yul\":13781:13793   */\n      add\n        /* \"#utility.yul\":13774:13793   */\n      swap1\n      pop\n        /* \"#utility.yul\":13433:13799   */\n      swap2\n      swap1\n      pop\n      jump\t// out\n        /* \"#utility.yul\":13805:14224   */\n    tag_83:\n        /* \"#utility.yul\":13971:13975   */\n      0x00\n        /* \"#utility.yul\":14009:14011   */\n      0x20\n        /* \"#utility.yul\":13998:14007   */\n      dup3\n        /* \"#utility.yul\":13994:14012   */\n      add\n        /* \"#utility.yul\":13986:14012   */\n      swap1\n      pop\n        /* \"#utility.yul\":14058:14067   */\n      dup2\n        /* \"#utility.yul\":14052:14056   */\n      dup2\n        /* \"#utility.yul\":14048:14068   */\n      sub\n        /* \"#utility.yul\":14044:14045   */\n      0x00\n        /* \"#utility.yul\":14033:14042   */\n      dup4\n        /* \"#utility.yul\":14029:14046   */\n      add\n        /* \"#utility.yul\":14022:14069   */\n      mstore\n        /* \"#utility.yul\":14086:14217   */\n      tag_286\n        /* \"#utility.yul\":14212:14216   */\n      dup2\n        /* \"#utility.yul\":14086:14217   */\n      tag_140\n      jump\t// in\n    tag_286:\n        /* \"#utility.yul\":14078:14217   */\n      swap1\n      pop\n        /* \"#utility.yul\":13805:14224   */\n      swap2\n      swap1\n      pop\n      jump\t// out\n        /* \"#utility.yul\":14230:14478   */\n    tag_141:\n        /* \"#utility.yul\":14370:14404   */\n      0x596f752061726520747279696e6720746f2073656e64206d6f7265207468616e\n        /* \"#utility.yul\":14366:14367   */\n      0x00\n        /* \"#utility.yul\":14358:14364   */\n      dup3\n        /* \"#utility.yul\":14354:14368   */\n      add\n        /* \"#utility.yul\":14347:14405   */\n      mstore\n        /* \"#utility.yul\":14439:14470   */\n      0x20796f752061726520616c6c6f77656420746f2c2061626f7274696e67000000\n        /* \"#utility.yul\":14434:14436   */\n      0x20\n        /* \"#utility.yul\":14426:14432   */\n      dup3\n        /* \"#utility.yul\":14422:14437   */\n      add\n        /* \"#utility.yul\":14415:14471   */\n      mstore\n        /* \"#utility.yul\":14230:14478   */\n      pop\n      jump\t// out\n        /* \"#utility.yul\":14484:14850   */\n    tag_142:\n        /* \"#utility.yul\":14626:14629   */\n      0x00\n        /* \"#utility.yul\":14647:14714   */\n      tag_289\n        /* \"#utility.yul\":14711:14713   */\n      0x3d\n        /* \"#utility.yul\":14706:14709   */\n      dup4\n        /* \"#utility.yul\":14647:14714   */\n      tag_129\n      jump\t// in\n    tag_289:\n        /* \"#utility.yul\":14640:14714   */\n      swap2\n      pop\n        /* \"#utility.yul\":14723:14816   */\n      tag_290\n        /* \"#utility.yul\":14812:14815   */\n      dup3\n        /* \"#utility.yul\":14723:14816   */\n      tag_141\n      jump\t// in\n    tag_290:\n        /* \"#utility.yul\":14841:14843   */\n      0x40\n        /* \"#utility.yul\":14836:14839   */\n      dup3\n        /* \"#utility.yul\":14832:14844   */\n      add\n        /* \"#utility.yul\":14825:14844   */\n      swap1\n      pop\n        /* \"#utility.yul\":14484:14850   */\n      swap2\n      swap1\n      pop\n      jump\t// out\n        /* \"#utility.yul\":14856:15275   */\n    tag_86:\n        /* \"#utility.yul\":15022:15026   */\n      0x00\n        /* \"#utility.yul\":15060:15062   */\n      0x20\n        /* \"#utility.yul\":15049:15058   */\n      dup3\n        /* \"#utility.yul\":15045:15063   */\n      add\n        /* \"#utility.yul\":15037:15063   */\n      swap1\n      pop\n        /* \"#utility.yul\":15109:15118   */\n      dup2\n        /* \"#utility.yul\":15103:15107   */\n      dup2\n        /* \"#utility.yul\":15099:15119   */\n      sub\n        /* \"#utility.yul\":15095:15096   */\n      0x00\n        /* \"#utility.yul\":15084:15093   */\n      dup4\n        /* \"#utility.yul\":15080:15097   */\n      add\n        /* \"#utility.yul\":15073:15120   */\n      mstore\n        /* \"#utility.yul\":15137:15268   */\n      tag_292\n        /* \"#utility.yul\":15263:15267   */\n      dup2\n        /* \"#utility.yul\":15137:15268   */\n      tag_142\n      jump\t// in\n    tag_292:\n        /* \"#utility.yul\":15129:15268   */\n      swap1\n      pop\n        /* \"#utility.yul\":14856:15275   */\n      swap2\n      swap1\n      pop\n      jump\t// out\n        /* \"#utility.yul\":15281:15475   */\n    tag_88:\n        /* \"#utility.yul\":15321:15325   */\n      0x00\n        /* \"#utility.yul\":15341:15361   */\n      tag_294\n        /* \"#utility.yul\":15359:15360   */\n      dup3\n        /* \"#utility.yul\":15341:15361   */\n      tag_108\n      jump\t// in\n    tag_294:\n        /* \"#utility.yul\":15336:15361   */\n      swap2\n      pop\n        /* \"#utility.yul\":15375:15395   */\n      tag_295\n        /* \"#utility.yul\":15393:15394   */\n      dup4\n        /* \"#utility.yul\":15375:15395   */\n      tag_108\n      jump\t// in\n    tag_295:\n        /* \"#utility.yul\":15370:15395   */\n      swap3\n      pop\n        /* \"#utility.yul\":15419:15420   */\n      dup3\n        /* \"#utility.yul\":15416:15417   */\n      dup3\n        /* \"#utility.yul\":15412:15421   */\n      sub\n        /* \"#utility.yul\":15404:15421   */\n      swap1\n      pop\n        /* \"#utility.yul\":15443:15444   */\n      dup2\n        /* \"#utility.yul\":15437:15441   */\n      dup2\n        /* \"#utility.yul\":15434:15445   */\n      gt\n        /* \"#utility.yul\":15431:15468   */\n      iszero\n      tag_296\n      jumpi\n        /* \"#utility.yul\":15448:15466   */\n      tag_297\n      tag_136\n      jump\t// in\n    tag_297:\n        /* \"#utility.yul\":15431:15468   */\n    tag_296:\n        /* \"#utility.yul\":15281:15475   */\n      swap3\n      swap2\n      pop\n      pop\n      jump\t// out\n        /* \"#utility.yul\":15481:15628   */\n    tag_143:\n        /* \"#utility.yul\":15582:15593   */\n      0x00\n        /* \"#utility.yul\":15619:15622   */\n      dup2\n        /* \"#utility.yul\":15604:15622   */\n      swap1\n      pop\n        /* \"#utility.yul\":15481:15628   */\n      swap3\n      swap2\n      pop\n      pop\n      jump\t// out\n        /* \"#utility.yul\":15634:16020   */\n    tag_144:\n        /* \"#utility.yul\":15738:15741   */\n      0x00\n        /* \"#utility.yul\":15766:15804   */\n      tag_300\n        /* \"#utility.yul\":15798:15803   */\n      dup3\n        /* \"#utility.yul\":15766:15804   */\n      tag_125\n      jump\t// in\n    tag_300:\n        /* \"#utility.yul\":15820:15908   */\n      tag_301\n        /* \"#utility.yul\":15901:15907   */\n      dup2\n        /* \"#utility.yul\":15896:15899   */\n      dup6\n        /* \"#utility.yul\":15820:15908   */\n      tag_143\n      jump\t// in\n    tag_301:\n        /* \"#utility.yul\":15813:15908   */\n      swap4\n      pop\n        /* \"#utility.yul\":15917:15982   */\n      tag_302\n        /* \"#utility.yul\":15975:15981   */\n      dup2\n        /* \"#utility.yul\":15970:15973   */\n      dup6\n        /* \"#utility.yul\":15963:15967   */\n      0x20\n        /* \"#utility.yul\":15956:15961   */\n      dup7\n        /* \"#utility.yul\":15952:15968   */\n      add\n        /* \"#utility.yul\":15917:15982   */\n      tag_127\n      jump\t// in\n    tag_302:\n        /* \"#utility.yul\":16007:16013   */\n      dup1\n        /* \"#utility.yul\":16002:16005   */\n      dup5\n        /* \"#utility.yul\":15998:16014   */\n      add\n        /* \"#utility.yul\":15991:16014   */\n      swap2\n      pop\n        /* \"#utility.yul\":15742:16020   */\n      pop\n        /* \"#utility.yul\":15634:16020   */\n      swap3\n      swap2\n      pop\n      pop\n      jump\t// out\n        /* \"#utility.yul\":16026:16297   */\n    tag_90:\n        /* \"#utility.yul\":16156:16159   */\n      0x00\n        /* \"#utility.yul\":16178:16271   */\n      tag_304\n        /* \"#utility.yul\":16267:16270   */\n      dup3\n        /* \"#utility.yul\":16258:16264   */\n      dup5\n        /* \"#utility.yul\":16178:16271   */\n      tag_144\n      jump\t// in\n    tag_304:\n        /* \"#utility.yul\":16171:16271   */\n      swap2\n      pop\n        /* \"#utility.yul\":16288:16291   */\n      dup2\n        /* \"#utility.yul\":16281:16291   */\n      swap1\n      pop\n        /* \"#utility.yul\":16026:16297   */\n      swap3\n      swap2\n      pop\n      pop\n      jump\t// out\n        /* \"#utility.yul\":16303:16523   */\n    tag_145:\n        /* \"#utility.yul\":16443:16477   */\n      0x41626f7274696e672c2063616c6c20776173206e6f7420737563636573736675\n        /* \"#utility.yul\":16439:16440   */\n      0x00\n        /* \"#utility.yul\":16431:16437   */\n      dup3\n        /* \"#utility.yul\":16427:16441   */\n      add\n        /* \"#utility.yul\":16420:16478   */\n      mstore\n        /* \"#utility.yul\":16512:16515   */\n      0x6c00000000000000000000000000000000000000000000000000000000000000\n        /* \"#utility.yul\":16507:16509   */\n      0x20\n        /* \"#utility.yul\":16499:16505   */\n      dup3\n        /* \"#utility.yul\":16495:16510   */\n      add\n        /* \"#utility.yul\":16488:16516   */\n      mstore\n        /* \"#utility.yul\":16303:16523   */\n      pop\n      jump\t// out\n        /* \"#utility.yul\":16529:16895   */\n    tag_146:\n        /* \"#utility.yul\":16671:16674   */\n      0x00\n        /* \"#utility.yul\":16692:16759   */\n      tag_307\n        /* \"#utility.yul\":16756:16758   */\n      0x21\n        /* \"#utility.yul\":16751:16754   */\n      dup4\n        /* \"#utility.yul\":16692:16759   */\n      tag_129\n      jump\t// in\n    tag_307:\n        /* \"#utility.yul\":16685:16759   */\n      swap2\n      pop\n        /* \"#utility.yul\":16768:16861   */\n      tag_308\n        /* \"#utility.yul\":16857:16860   */\n      dup3\n        /* \"#utility.yul\":16768:16861   */\n      tag_145\n      jump\t// in\n    tag_308:\n        /* \"#utility.yul\":16886:16888   */\n      0x40\n        /* \"#utility.yul\":16881:16884   */\n      dup3\n        /* \"#utility.yul\":16877:16889   */\n      add\n        /* \"#utility.yul\":16870:16889   */\n      swap1\n      pop\n        /* \"#utility.yul\":16529:16895   */\n      swap2\n      swap1\n      pop\n      jump\t// out\n        /* \"#utility.yul\":16901:17320   */\n    tag_96:\n        /* \"#utility.yul\":17067:17071   */\n      0x00\n        /* \"#utility.yul\":17105:17107   */\n      0x20\n        /* \"#utility.yul\":17094:17103   */\n      dup3\n        /* \"#utility.yul\":17090:17108   */\n      add\n        /* \"#utility.yul\":17082:17108   */\n      swap1\n      pop\n        /* \"#utility.yul\":17154:17163   */\n      dup2\n        /* \"#utility.yul\":17148:17152   */\n      dup2\n        /* \"#utility.yul\":17144:17164   */\n      sub\n        /* \"#utility.yul\":17140:17141   */\n      0x00\n        /* \"#utility.yul\":17129:17138   */\n      dup4\n        /* \"#utility.yul\":17125:17142   */\n      add\n        /* \"#utility.yul\":17118:17165   */\n      mstore\n        /* \"#utility.yul\":17182:17313   */\n      tag_310\n        /* \"#utility.yul\":17308:17312   */\n      dup2\n        /* \"#utility.yul\":17182:17313   */\n      tag_146\n      jump\t// in\n    tag_310:\n        /* \"#utility.yul\":17174:17313   */\n      swap1\n      pop\n        /* \"#utility.yul\":16901:17320   */\n      swap2\n      swap1\n      pop\n      jump\t// out\n\n    auxdata: 0xa2646970667358221220f37cb516b1719abc85eb69a55dabe2d6c517c152ea4dcab24ffda3c59ac8b7f464736f6c63430008120033\n}\n",
				"bytecode": {
					"linkReferences": {},
					"object": "608060405234801561001057600080fd5b50336000806101000a81548173ffffffffffffffffffffffffffffffffffffffff021916908373ffffffffffffffffffffffffffffffffffffffff16021790555061148f806100606000396000f3fe60806040526004361061007f5760003560e01c80633e5beab91161004e5780633e5beab91461015757806358e404b114610194578063b1f8100d146101bf578063be45fd62146101e857610086565b80630633b14a1461008b578063069672ae146100c85780630bc605ad146100f1578063310ec4a71461012e57610086565b3661008657005b600080fd5b34801561009757600080fd5b506100b260048036038101906100ad9190610b68565b610225565b6040516100bf9190610bb0565b60405180910390f35b3480156100d457600080fd5b506100ef60048036038101906100ea9190610bf7565b610245565b005b3480156100fd57600080fd5b5061011860048036038101906101139190610b68565b61032e565b6040516101259190610bb0565b60405180910390f35b34801561013a57600080fd5b5061015560048036038101906101509190610c6d565b61034e565b005b34801561016357600080fd5b5061017e60048036038101906101799190610b68565b61047b565b60405161018b9190610cbc565b60405180910390f35b3480156101a057600080fd5b506101a9610493565b6040516101b69190610cbc565b60405180910390f35b3480156101cb57600080fd5b506101e660048036038101906101e19190610d15565b610498565b005b3480156101f457600080fd5b5061020f600480360381019061020a9190610e88565b6107f2565b60405161021c9190610f76565b60405180910390f35b60036020528060005260406000206000915054906101000a900460ff1681565b60008054906101000a900473ffffffffffffffffffffffffffffffffffffffff1673ffffffffffffffffffffffffffffffffffffffff163373ffffffffffffffffffffffffffffffffffffffff16146102d3576040517f08c379a00000000000000000000000000000000000000000000000000000000081526004016102ca90610ff5565b60405180910390fd5b80600360008473ffffffffffffffffffffffffffffffffffffffff1673ffffffffffffffffffffffffffffffffffffffff16815260200190815260200160002060006101000a81548160ff0219169083151502179055505050565b60016020528060005260406000206000915054906101000a900460ff1681565b60008054906101000a900473ffffffffffffffffffffffffffffffffffffffff1673ffffffffffffffffffffffffffffffffffffffff163373ffffffffffffffffffffffffffffffffffffffff16146103dc576040517f08c379a00000000000000000000000000000000000000000000000000000000081526004016103d390610ff5565b60405180910390fd5b60018060008473ffffffffffffffffffffffffffffffffffffffff1673ffffffffffffffffffffffffffffffffffffffff16815260200190815260200160002060006101000a81548160ff02191690831515021790555080600260008473ffffffffffffffffffffffffffffffffffffffff1673ffffffffffffffffffffffffffffffffffffffff168152602001908152602001600020819055505050565b60026020528060005260406000206000915090505481565b600381565b600360003373ffffffffffffffffffffffffffffffffffffffff1673ffffffffffffffffffffffffffffffffffffffff16815260200190815260200160002060009054906101000a900460ff16610524576040517f08c379a000000000000000000000000000000000000000000000000000000000815260040161051b90611087565b60405180910390fd5b60001515600560008373ffffffffffffffffffffffffffffffffffffffff1673ffffffffffffffffffffffffffffffffffffffff16815260200190815260200160002060003373ffffffffffffffffffffffffffffffffffffffff1673ffffffffffffffffffffffffffffffffffffffff16815260200190815260200160002060009054906101000a900460ff161515146105f4576040517f08c379a00000000000000000000000000000000000000000000000000000000081526004016105eb906110f3565b60405180910390fd5b8073ffffffffffffffffffffffffffffffffffffffff16600460009054906101000a900473ffffffffffffffffffffffffffffffffffffffff1673ffffffffffffffffffffffffffffffffffffffff16146106935780600460006101000a81548173ffffffffffffffffffffffffffffffffffffffff021916908373ffffffffffffffffffffffffffffffffffffffff16021790555060006006819055505b6001600560008373ffffffffffffffffffffffffffffffffffffffff1673ffffffffffffffffffffffffffffffffffffffff16815260200190815260200160002060003373ffffffffffffffffffffffffffffffffffffffff1673ffffffffffffffffffffffffffffffffffffffff16815260200190815260200160002060006101000a81548160ff0219169083151502179055506006600081548092919061073b90611142565b91905055506003600654106107ef57600460009054906101000a900473ffffffffffffffffffffffffffffffffffffffff166000806101000a81548173ffffffffffffffffffffffffffffffffffffffff021916908373ffffffffffffffffffffffffffffffffffffffff1602179055506000600460006101000a81548173ffffffffffffffffffffffffffffffffffffffff021916908373ffffffffffffffffffffffffffffffffffffffff1602179055505b50565b606060008054906101000a900473ffffffffffffffffffffffffffffffffffffffff1673ffffffffffffffffffffffffffffffffffffffff163373ffffffffffffffffffffffffffffffffffffffff1614610882576040517f08c379a0000000000000000000000000000000000000000000000000000000008152600401610879906111d6565b60405180910390fd5b60008054906101000a900473ffffffffffffffffffffffffffffffffffffffff1673ffffffffffffffffffffffffffffffffffffffff163373ffffffffffffffffffffffffffffffffffffffff1614610a3a57600160003373ffffffffffffffffffffffffffffffffffffffff1673ffffffffffffffffffffffffffffffffffffffff16815260200190815260200160002060009054906101000a900460ff16610961576040517f08c379a00000000000000000000000000000000000000000000000000000000081526004016109589061128e565b60405180910390fd5b82600260003373ffffffffffffffffffffffffffffffffffffffff1673ffffffffffffffffffffffffffffffffffffffff1681526020019081526020016000205410156109e3576040517f08c379a00000000000000000000000000000000000000000000000000000000081526004016109da90611320565b60405180910390fd5b82600260003373ffffffffffffffffffffffffffffffffffffffff1673ffffffffffffffffffffffffffffffffffffffff1681526020019081526020016000206000828254610a329190611340565b925050819055505b6000808573ffffffffffffffffffffffffffffffffffffffff168585604051610a6391906113b0565b60006040518083038185875af1925050503d8060008114610aa0576040519150601f19603f3d011682016040523d82523d6000602084013e610aa5565b606091505b509150915081610aea576040517f08c379a0000000000000000000000000000000000000000000000000000000008152600401610ae190611439565b60405180910390fd5b80925050509392505050565b6000604051905090565b600080fd5b600080fd5b600073ffffffffffffffffffffffffffffffffffffffff82169050919050565b6000610b3582610b0a565b9050919050565b610b4581610b2a565b8114610b5057600080fd5b50565b600081359050610b6281610b3c565b92915050565b600060208284031215610b7e57610b7d610b00565b5b6000610b8c84828501610b53565b91505092915050565b60008115159050919050565b610baa81610b95565b82525050565b6000602082019050610bc56000830184610ba1565b92915050565b610bd481610b95565b8114610bdf57600080fd5b50565b600081359050610bf181610bcb565b92915050565b60008060408385031215610c0e57610c0d610b00565b5b6000610c1c85828601610b53565b9250506020610c2d85828601610be2565b9150509250929050565b6000819050919050565b610c4a81610c37565b8114610c5557600080fd5b50565b600081359050610c6781610c41565b92915050565b60008060408385031215610c8457610c83610b00565b5b6000610c9285828601610b53565b9250506020610ca385828601610c58565b9150509250929050565b610cb681610c37565b82525050565b6000602082019050610cd16000830184610cad565b92915050565b6000610ce282610b0a565b9050919050565b610cf281610cd7565b8114610cfd57600080fd5b50565b600081359050610d0f81610ce9565b92915050565b600060208284031215610d2b57610d2a610b00565b5b6000610d3984828501610d00565b91505092915050565b600080fd5b600080fd5b6000601f19601f8301169050919050565b7f4e487b7100000000000000000000000000000000000000000000000000000000600052604160045260246000fd5b610d9582610d4c565b810181811067ffffffffffffffff82111715610db457610db3610d5d565b5b80604052505050565b6000610dc7610af6565b9050610dd38282610d8c565b919050565b600067ffffffffffffffff821115610df357610df2610d5d565b5b610dfc82610d4c565b9050602081019050919050565b82818337600083830152505050565b6000610e2b610e2684610dd8565b610dbd565b905082815260208101848484011115610e4757610e46610d47565b5b610e52848285610e09565b509392505050565b600082601f830112610e6f57610e6e610d42565b5b8135610e7f848260208601610e18565b91505092915050565b600080600060608486031215610ea157610ea0610b00565b5b6000610eaf86828701610d00565b9350506020610ec086828701610c58565b925050604084013567ffffffffffffffff811115610ee157610ee0610b05565b5b610eed86828701610e5a565b9150509250925092565b600081519050919050565b600082825260208201905092915050565b60005b83811015610f31578082015181840152602081019050610f16565b60008484015250505050565b6000610f4882610ef7565b610f528185610f02565b9350610f62818560208601610f13565b610f6b81610d4c565b840191505092915050565b60006020820190508181036000830152610f908184610f3d565b905092915050565b600082825260208201905092915050565b7f596f7520617265206e6f7420746865206f776e65722c2061626f7274696e6700600082015250565b6000610fdf601f83610f98565b9150610fea82610fa9565b602082019050919050565b6000602082019050818103600083015261100e81610fd2565b9050919050565b7f596f7520617265206e6f7420677561726469616e206f6620746869732077616c60008201527f6c65742c2061626f7274696e6700000000000000000000000000000000000000602082015250565b6000611071602d83610f98565b915061107c82611015565b604082019050919050565b600060208201905081810360008301526110a081611064565b9050919050565b7f596f7520616c726561647920766f7465642c2061626f7274696e670000000000600082015250565b60006110dd601b83610f98565b91506110e8826110a7565b602082019050919050565b6000602082019050818103600083015261110c816110d0565b9050919050565b7f4e487b7100000000000000000000000000000000000000000000000000000000600052601160045260246000fd5b600061114d82610c37565b91507fffffffffffffffffffffffffffffffffffffffffffffffffffffffffffffffff820361117f5761117e611113565b5b600182019050919050565b7f596f7520617265206e6f7420746865206f776e65722c2061626f7274696e672e600082015250565b60006111c0602083610f98565b91506111cb8261118a565b602082019050919050565b600060208201905081810360008301526111ef816111b3565b9050919050565b7f596f7520617265206e6f7420616c6c6f77656420746f2073656e6420616e797460008201527f68696e672066726f6d207468697320736d61727420636f6e74726163742c206160208201527f626f7274696e6700000000000000000000000000000000000000000000000000604082015250565b6000611278604783610f98565b9150611283826111f6565b606082019050919050565b600060208201905081810360008301526112a78161126b565b9050919050565b7f596f752061726520747279696e6720746f2073656e64206d6f7265207468616e60008201527f20796f752061726520616c6c6f77656420746f2c2061626f7274696e67000000602082015250565b600061130a603d83610f98565b9150611315826112ae565b604082019050919050565b60006020820190508181036000830152611339816112fd565b9050919050565b600061134b82610c37565b915061135683610c37565b925082820390508181111561136e5761136d611113565b5b92915050565b600081905092915050565b600061138a82610ef7565b6113948185611374565b93506113a4818560208601610f13565b80840191505092915050565b60006113bc828461137f565b915081905092915050565b7f41626f7274696e672c2063616c6c20776173206e6f742073756363657373667560008201527f6c00000000000000000000000000000000000000000000000000000000000000602082015250565b6000611423602183610f98565b915061142e826113c7565b604082019050919050565b6000602082019050818103600083015261145281611416565b905091905056fea2646970667358221220f37cb516b1719abc85eb69a55dabe2d6c517c152ea4dcab24ffda3c59ac8b7f464736f6c63430008120033",
					"opcodes": "PUSH1 0x80 PUSH1 0x40 MSTORE CALLVALUE DUP1 ISZERO PUSH2 0x10 JUMPI PUSH1 0x0 DUP1 REVERT JUMPDEST POP CALLER PUSH1 0x0 DUP1 PUSH2 0x100 EXP DUP2 SLOAD DUP2 PUSH20 0xFFFFFFFFFFFFFFFFFFFFFFFFFFFFFFFFFFFFFFFF MUL NOT AND SWAP1 DUP4 PUSH20 0xFFFFFFFFFFFFFFFFFFFFFFFFFFFFFFFFFFFFFFFF AND MUL OR SWAP1 SSTORE POP PUSH2 0x148F DUP1 PUSH2 0x60 PUSH1 0x0 CODECOPY PUSH1 0x0 RETURN INVALID PUSH1 0x80 PUSH1 0x40 MSTORE PUSH1 0x4 CALLDATASIZE LT PUSH2 0x7F JUMPI PUSH1 0x0 CALLDATALOAD PUSH1 0xE0 SHR DUP1 PUSH4 0x3E5BEAB9 GT PUSH2 0x4E JUMPI DUP1 PUSH4 0x3E5BEAB9 EQ PUSH2 0x157 JUMPI DUP1 PUSH4 0x58E404B1 EQ PUSH2 0x194 JUMPI DUP1 PUSH4 0xB1F8100D EQ PUSH2 0x1BF JUMPI DUP1 PUSH4 0xBE45FD62 EQ PUSH2 0x1E8 JUMPI PUSH2 0x86 JUMP JUMPDEST DUP1 PUSH4 0x633B14A EQ PUSH2 0x8B JUMPI DUP1 PUSH4 0x69672AE EQ PUSH2 0xC8 JUMPI DUP1 PUSH4 0xBC605AD EQ PUSH2 0xF1 JUMPI DUP1 PUSH4 0x310EC4A7 EQ PUSH2 0x12E JUMPI PUSH2 0x86 JUMP JUMPDEST CALLDATASIZE PUSH2 0x86 JUMPI STOP JUMPDEST PUSH1 0x0 DUP1 REVERT JUMPDEST CALLVALUE DUP1 ISZERO PUSH2 0x97 JUMPI PUSH1 0x0 DUP1 REVERT JUMPDEST POP PUSH2 0xB2 PUSH1 0x4 DUP1 CALLDATASIZE SUB DUP2 ADD SWAP1 PUSH2 0xAD SWAP2 SWAP1 PUSH2 0xB68 JUMP JUMPDEST PUSH2 0x225 JUMP JUMPDEST PUSH1 0x40 MLOAD PUSH2 0xBF SWAP2 SWAP1 PUSH2 0xBB0 JUMP JUMPDEST PUSH1 0x40 MLOAD DUP1 SWAP2 SUB SWAP1 RETURN JUMPDEST CALLVALUE DUP1 ISZERO PUSH2 0xD4 JUMPI PUSH1 0x0 DUP1 REVERT JUMPDEST POP PUSH2 0xEF PUSH1 0x4 DUP1 CALLDATASIZE SUB DUP2 ADD SWAP1 PUSH2 0xEA SWAP2 SWAP1 PUSH2 0xBF7 JUMP JUMPDEST PUSH2 0x245 JUMP JUMPDEST STOP JUMPDEST CALLVALUE DUP1 ISZERO PUSH2 0xFD JUMPI PUSH1 0x0 DUP1 REVERT JUMPDEST POP PUSH2 0x118 PUSH1 0x4 DUP1 CALLDATASIZE SUB DUP2 ADD SWAP1 PUSH2 0x113 SWAP2 SWAP1 PUSH2 0xB68 JUMP JUMPDEST PUSH2 0x32E JUMP JUMPDEST PUSH1 0x40 MLOAD PUSH2 0x125 SWAP2 SWAP1 PUSH2 0xBB0 JUMP JUMPDEST PUSH1 0x40 MLOAD DUP1 SWAP2 SUB SWAP1 RETURN JUMPDEST CALLVALUE DUP1 ISZERO PUSH2 0x13A JUMPI PUSH1 0x0 DUP1 REVERT JUMPDEST POP PUSH2 0x155 PUSH1 0x4 DUP1 CALLDATASIZE SUB DUP2 ADD SWAP1 PUSH2 0x150 SWAP2 SWAP1 PUSH2 0xC6D JUMP JUMPDEST PUSH2 0x34E JUMP JUMPDEST STOP JUMPDEST CALLVALUE DUP1 ISZERO PUSH2 0x163 JUMPI PUSH1 0x0 DUP1 REVERT JUMPDEST POP PUSH2 0x17E PUSH1 0x4 DUP1 CALLDATASIZE SUB DUP2 ADD SWAP1 PUSH2 0x179 SWAP2 SWAP1 PUSH2 0xB68 JUMP JUMPDEST PUSH2 0x47B JUMP JUMPDEST PUSH1 0x40 MLOAD PUSH2 0x18B SWAP2 SWAP1 PUSH2 0xCBC JUMP JUMPDEST PUSH1 0x40 MLOAD DUP1 SWAP2 SUB SWAP1 RETURN JUMPDEST CALLVALUE DUP1 ISZERO PUSH2 0x1A0 JUMPI PUSH1 0x0 DUP1 REVERT JUMPDEST POP PUSH2 0x1A9 PUSH2 0x493 JUMP JUMPDEST PUSH1 0x40 MLOAD PUSH2 0x1B6 SWAP2 SWAP1 PUSH2 0xCBC JUMP JUMPDEST PUSH1 0x40 MLOAD DUP1 SWAP2 SUB SWAP1 RETURN JUMPDEST CALLVALUE DUP1 ISZERO PUSH2 0x1CB JUMPI PUSH1 0x0 DUP1 REVERT JUMPDEST POP PUSH2 0x1E6 PUSH1 0x4 DUP1 CALLDATASIZE SUB DUP2 ADD SWAP1 PUSH2 0x1E1 SWAP2 SWAP1 PUSH2 0xD15 JUMP JUMPDEST PUSH2 0x498 JUMP JUMPDEST STOP JUMPDEST CALLVALUE DUP1 ISZERO PUSH2 0x1F4 JUMPI PUSH1 0x0 DUP1 REVERT JUMPDEST POP PUSH2 0x20F PUSH1 0x4 DUP1 CALLDATASIZE SUB DUP2 ADD SWAP1 PUSH2 0x20A SWAP2 SWAP1 PUSH2 0xE88 JUMP JUMPDEST PUSH2 0x7F2 JUMP JUMPDEST PUSH1 0x40 MLOAD PUSH2 0x21C SWAP2 SWAP1 PUSH2 0xF76 JUMP JUMPDEST PUSH1 0x40 MLOAD DUP1 SWAP2 SUB SWAP1 RETURN JUMPDEST PUSH1 0x3 PUSH1 0x20 MSTORE DUP1 PUSH1 0x0 MSTORE PUSH1 0x40 PUSH1 0x0 KECCAK256 PUSH1 0x0 SWAP2 POP SLOAD SWAP1 PUSH2 0x100 EXP SWAP1 DIV PUSH1 0xFF AND DUP2 JUMP JUMPDEST PUSH1 0x0 DUP1 SLOAD SWAP1 PUSH2 0x100 EXP SWAP1 DIV PUSH20 0xFFFFFFFFFFFFFFFFFFFFFFFFFFFFFFFFFFFFFFFF AND PUSH20 0xFFFFFFFFFFFFFFFFFFFFFFFFFFFFFFFFFFFFFFFF AND CALLER PUSH20 0xFFFFFFFFFFFFFFFFFFFFFFFFFFFFFFFFFFFFFFFF AND EQ PUSH2 0x2D3 JUMPI PUSH1 0x40 MLOAD PUSH32 0x8C379A000000000000000000000000000000000000000000000000000000000 DUP2 MSTORE PUSH1 0x4 ADD PUSH2 0x2CA SWAP1 PUSH2 0xFF5 JUMP JUMPDEST PUSH1 0x40 MLOAD DUP1 SWAP2 SUB SWAP1 REVERT JUMPDEST DUP1 PUSH1 0x3 PUSH1 0x0 DUP5 PUSH20 0xFFFFFFFFFFFFFFFFFFFFFFFFFFFFFFFFFFFFFFFF AND PUSH20 0xFFFFFFFFFFFFFFFFFFFFFFFFFFFFFFFFFFFFFFFF AND DUP2 MSTORE PUSH1 0x20 ADD SWAP1 DUP2 MSTORE PUSH1 0x20 ADD PUSH1 0x0 KECCAK256 PUSH1 0x0 PUSH2 0x100 EXP DUP2 SLOAD DUP2 PUSH1 0xFF MUL NOT AND SWAP1 DUP4 ISZERO ISZERO MUL OR SWAP1 SSTORE POP POP POP JUMP JUMPDEST PUSH1 0x1 PUSH1 0x20 MSTORE DUP1 PUSH1 0x0 MSTORE PUSH1 0x40 PUSH1 0x0 KECCAK256 PUSH1 0x0 SWAP2 POP SLOAD SWAP1 PUSH2 0x100 EXP SWAP1 DIV PUSH1 0xFF AND DUP2 JUMP JUMPDEST PUSH1 0x0 DUP1 SLOAD SWAP1 PUSH2 0x100 EXP SWAP1 DIV PUSH20 0xFFFFFFFFFFFFFFFFFFFFFFFFFFFFFFFFFFFFFFFF AND PUSH20 0xFFFFFFFFFFFFFFFFFFFFFFFFFFFFFFFFFFFFFFFF AND CALLER PUSH20 0xFFFFFFFFFFFFFFFFFFFFFFFFFFFFFFFFFFFFFFFF AND EQ PUSH2 0x3DC JUMPI PUSH1 0x40 MLOAD PUSH32 0x8C379A000000000000000000000000000000000000000000000000000000000 DUP2 MSTORE PUSH1 0x4 ADD PUSH2 0x3D3 SWAP1 PUSH2 0xFF5 JUMP JUMPDEST PUSH1 0x40 MLOAD DUP1 SWAP2 SUB SWAP1 REVERT JUMPDEST PUSH1 0x1 DUP1 PUSH1 0x0 DUP5 PUSH20 0xFFFFFFFFFFFFFFFFFFFFFFFFFFFFFFFFFFFFFFFF AND PUSH20 0xFFFFFFFFFFFFFFFFFFFFFFFFFFFFFFFFFFFFFFFF AND DUP2 MSTORE PUSH1 0x20 ADD SWAP1 DUP2 MSTORE PUSH1 0x20 ADD PUSH1 0x0 KECCAK256 PUSH1 0x0 PUSH2 0x100 EXP DUP2 SLOAD DUP2 PUSH1 0xFF MUL NOT AND SWAP1 DUP4 ISZERO ISZERO MUL OR SWAP1 SSTORE POP DUP1 PUSH1 0x2 PUSH1 0x0 DUP5 PUSH20 0xFFFFFFFFFFFFFFFFFFFFFFFFFFFFFFFFFFFFFFFF AND PUSH20 0xFFFFFFFFFFFFFFFFFFFFFFFFFFFFFFFFFFFFFFFF AND DUP2 MSTORE PUSH1 0x20 ADD SWAP1 DUP2 MSTORE PUSH1 0x20 ADD PUSH1 0x0 KECCAK256 DUP2 SWAP1 SSTORE POP POP POP JUMP JUMPDEST PUSH1 0x2 PUSH1 0x20 MSTORE DUP1 PUSH1 0x0 MSTORE PUSH1 0x40 PUSH1 0x0 KECCAK256 PUSH1 0x0 SWAP2 POP SWAP1 POP SLOAD DUP2 JUMP JUMPDEST PUSH1 0x3 DUP2 JUMP JUMPDEST PUSH1 0x3 PUSH1 0x0 CALLER PUSH20 0xFFFFFFFFFFFFFFFFFFFFFFFFFFFFFFFFFFFFFFFF AND PUSH20 0xFFFFFFFFFFFFFFFFFFFFFFFFFFFFFFFFFFFFFFFF AND DUP2 MSTORE PUSH1 0x20 ADD SWAP1 DUP2 MSTORE PUSH1 0x20 ADD PUSH1 0x0 KECCAK256 PUSH1 0x0 SWAP1 SLOAD SWAP1 PUSH2 0x100 EXP SWAP1 DIV PUSH1 0xFF AND PUSH2 0x524 JUMPI PUSH1 0x40 MLOAD PUSH32 0x8C379A000000000000000000000000000000000000000000000000000000000 DUP2 MSTORE PUSH1 0x4 ADD PUSH2 0x51B SWAP1 PUSH2 0x1087 JUMP JUMPDEST PUSH1 0x40 MLOAD DUP1 SWAP2 SUB SWAP1 REVERT JUMPDEST PUSH1 0x0 ISZERO ISZERO PUSH1 0x5 PUSH1 0x0 DUP4 PUSH20 0xFFFFFFFFFFFFFFFFFFFFFFFFFFFFFFFFFFFFFFFF AND PUSH20 0xFFFFFFFFFFFFFFFFFFFFFFFFFFFFFFFFFFFFFFFF AND DUP2 MSTORE PUSH1 0x20 ADD SWAP1 DUP2 MSTORE PUSH1 0x20 ADD PUSH1 0x0 KECCAK256 PUSH1 0x0 CALLER PUSH20 0xFFFFFFFFFFFFFFFFFFFFFFFFFFFFFFFFFFFFFFFF AND PUSH20 0xFFFFFFFFFFFFFFFFFFFFFFFFFFFFFFFFFFFFFFFF AND DUP2 MSTORE PUSH1 0x20 ADD SWAP1 DUP2 MSTORE PUSH1 0x20 ADD PUSH1 0x0 KECCAK256 PUSH1 0x0 SWAP1 SLOAD SWAP1 PUSH2 0x100 EXP SWAP1 DIV PUSH1 0xFF AND ISZERO ISZERO EQ PUSH2 0x5F4 JUMPI PUSH1 0x40 MLOAD PUSH32 0x8C379A000000000000000000000000000000000000000000000000000000000 DUP2 MSTORE PUSH1 0x4 ADD PUSH2 0x5EB SWAP1 PUSH2 0x10F3 JUMP JUMPDEST PUSH1 0x40 MLOAD DUP1 SWAP2 SUB SWAP1 REVERT JUMPDEST DUP1 PUSH20 0xFFFFFFFFFFFFFFFFFFFFFFFFFFFFFFFFFFFFFFFF AND PUSH1 0x4 PUSH1 0x0 SWAP1 SLOAD SWAP1 PUSH2 0x100 EXP SWAP1 DIV PUSH20 0xFFFFFFFFFFFFFFFFFFFFFFFFFFFFFFFFFFFFFFFF AND PUSH20 0xFFFFFFFFFFFFFFFFFFFFFFFFFFFFFFFFFFFFFFFF AND EQ PUSH2 0x693 JUMPI DUP1 PUSH1 0x4 PUSH1 0x0 PUSH2 0x100 EXP DUP2 SLOAD DUP2 PUSH20 0xFFFFFFFFFFFFFFFFFFFFFFFFFFFFFFFFFFFFFFFF MUL NOT AND SWAP1 DUP4 PUSH20 0xFFFFFFFFFFFFFFFFFFFFFFFFFFFFFFFFFFFFFFFF AND MUL OR SWAP1 SSTORE POP PUSH1 0x0 PUSH1 0x6 DUP2 SWAP1 SSTORE POP JUMPDEST PUSH1 0x1 PUSH1 0x5 PUSH1 0x0 DUP4 PUSH20 0xFFFFFFFFFFFFFFFFFFFFFFFFFFFFFFFFFFFFFFFF AND PUSH20 0xFFFFFFFFFFFFFFFFFFFFFFFFFFFFFFFFFFFFFFFF AND DUP2 MSTORE PUSH1 0x20 ADD SWAP1 DUP2 MSTORE PUSH1 0x20 ADD PUSH1 0x0 KECCAK256 PUSH1 0x0 CALLER PUSH20 0xFFFFFFFFFFFFFFFFFFFFFFFFFFFFFFFFFFFFFFFF AND PUSH20 0xFFFFFFFFFFFFFFFFFFFFFFFFFFFFFFFFFFFFFFFF AND DUP2 MSTORE PUSH1 0x20 ADD SWAP1 DUP2 MSTORE PUSH1 0x20 ADD PUSH1 0x0 KECCAK256 PUSH1 0x0 PUSH2 0x100 EXP DUP2 SLOAD DUP2 PUSH1 0xFF MUL NOT AND SWAP1 DUP4 ISZERO ISZERO MUL OR SWAP1 SSTORE POP PUSH1 0x6 PUSH1 0x0 DUP2 SLOAD DUP1 SWAP3 SWAP2 SWAP1 PUSH2 0x73B SWAP1 PUSH2 0x1142 JUMP JUMPDEST SWAP2 SWAP1 POP SSTORE POP PUSH1 0x3 PUSH1 0x6 SLOAD LT PUSH2 0x7EF JUMPI PUSH1 0x4 PUSH1 0x0 SWAP1 SLOAD SWAP1 PUSH2 0x100 EXP SWAP1 DIV PUSH20 0xFFFFFFFFFFFFFFFFFFFFFFFFFFFFFFFFFFFFFFFF AND PUSH1 0x0 DUP1 PUSH2 0x100 EXP DUP2 SLOAD DUP2 PUSH20 0xFFFFFFFFFFFFFFFFFFFFFFFFFFFFFFFFFFFFFFFF MUL NOT AND SWAP1 DUP4 PUSH20 0xFFFFFFFFFFFFFFFFFFFFFFFFFFFFFFFFFFFFFFFF AND MUL OR SWAP1 SSTORE POP PUSH1 0x0 PUSH1 0x4 PUSH1 0x0 PUSH2 0x100 EXP DUP2 SLOAD DUP2 PUSH20 0xFFFFFFFFFFFFFFFFFFFFFFFFFFFFFFFFFFFFFFFF MUL NOT AND SWAP1 DUP4 PUSH20 0xFFFFFFFFFFFFFFFFFFFFFFFFFFFFFFFFFFFFFFFF AND MUL OR SWAP1 SSTORE POP JUMPDEST POP JUMP JUMPDEST PUSH1 0x60 PUSH1 0x0 DUP1 SLOAD SWAP1 PUSH2 0x100 EXP SWAP1 DIV PUSH20 0xFFFFFFFFFFFFFFFFFFFFFFFFFFFFFFFFFFFFFFFF AND PUSH20 0xFFFFFFFFFFFFFFFFFFFFFFFFFFFFFFFFFFFFFFFF AND CALLER PUSH20 0xFFFFFFFFFFFFFFFFFFFFFFFFFFFFFFFFFFFFFFFF AND EQ PUSH2 0x882 JUMPI PUSH1 0x40 MLOAD PUSH32 0x8C379A000000000000000000000000000000000000000000000000000000000 DUP2 MSTORE PUSH1 0x4 ADD PUSH2 0x879 SWAP1 PUSH2 0x11D6 JUMP JUMPDEST PUSH1 0x40 MLOAD DUP1 SWAP2 SUB SWAP1 REVERT JUMPDEST PUSH1 0x0 DUP1 SLOAD SWAP1 PUSH2 0x100 EXP SWAP1 DIV PUSH20 0xFFFFFFFFFFFFFFFFFFFFFFFFFFFFFFFFFFFFFFFF AND PUSH20 0xFFFFFFFFFFFFFFFFFFFFFFFFFFFFFFFFFFFFFFFF AND CALLER PUSH20 0xFFFFFFFFFFFFFFFFFFFFFFFFFFFFFFFFFFFFFFFF AND EQ PUSH2 0xA3A JUMPI PUSH1 0x1 PUSH1 0x0 CALLER PUSH20 0xFFFFFFFFFFFFFFFFFFFFFFFFFFFFFFFFFFFFFFFF AND PUSH20 0xFFFFFFFFFFFFFFFFFFFFFFFFFFFFFFFFFFFFFFFF AND DUP2 MSTORE PUSH1 0x20 ADD SWAP1 DUP2 MSTORE PUSH1 0x20 ADD PUSH1 0x0 KECCAK256 PUSH1 0x0 SWAP1 SLOAD SWAP1 PUSH2 0x100 EXP SWAP1 DIV PUSH1 0xFF AND PUSH2 0x961 JUMPI PUSH1 0x40 MLOAD PUSH32 0x8C379A000000000000000000000000000000000000000000000000000000000 DUP2 MSTORE PUSH1 0x4 ADD PUSH2 0x958 SWAP1 PUSH2 0x128E JUMP JUMPDEST PUSH1 0x40 MLOAD DUP1 SWAP2 SUB SWAP1 REVERT JUMPDEST DUP3 PUSH1 0x2 PUSH1 0x0 CALLER PUSH20 0xFFFFFFFFFFFFFFFFFFFFFFFFFFFFFFFFFFFFFFFF AND PUSH20 0xFFFFFFFFFFFFFFFFFFFFFFFFFFFFFFFFFFFFFFFF AND DUP2 MSTORE PUSH1 0x20 ADD SWAP1 DUP2 MSTORE PUSH1 0x20 ADD PUSH1 0x0 KECCAK256 SLOAD LT ISZERO PUSH2 0x9E3 JUMPI PUSH1 0x40 MLOAD PUSH32 0x8C379A000000000000000000000000000000000000000000000000000000000 DUP2 MSTORE PUSH1 0x4 ADD PUSH2 0x9DA SWAP1 PUSH2 0x1320 JUMP JUMPDEST PUSH1 0x40 MLOAD DUP1 SWAP2 SUB SWAP1 REVERT JUMPDEST DUP3 PUSH1 0x2 PUSH1 0x0 CALLER PUSH20 0xFFFFFFFFFFFFFFFFFFFFFFFFFFFFFFFFFFFFFFFF AND PUSH20 0xFFFFFFFFFFFFFFFFFFFFFFFFFFFFFFFFFFFFFFFF AND DUP2 MSTORE PUSH1 0x20 ADD SWAP1 DUP2 MSTORE PUSH1 0x20 ADD PUSH1 0x0 KECCAK256 PUSH1 0x0 DUP3 DUP3 SLOAD PUSH2 0xA32 SWAP2 SWAP1 PUSH2 0x1340 JUMP JUMPDEST SWAP3 POP POP DUP2 SWAP1 SSTORE POP JUMPDEST PUSH1 0x0 DUP1 DUP6 PUSH20 0xFFFFFFFFFFFFFFFFFFFFFFFFFFFFFFFFFFFFFFFF AND DUP6 DUP6 PUSH1 0x40 MLOAD PUSH2 0xA63 SWAP2 SWAP1 PUSH2 0x13B0 JUMP JUMPDEST PUSH1 0x0 PUSH1 0x40 MLOAD DUP1 DUP4 SUB DUP2 DUP6 DUP8 GAS CALL SWAP3 POP POP POP RETURNDATASIZE DUP1 PUSH1 0x0 DUP2 EQ PUSH2 0xAA0 JUMPI PUSH1 0x40 MLOAD SWAP2 POP PUSH1 0x1F NOT PUSH1 0x3F RETURNDATASIZE ADD AND DUP3 ADD PUSH1 0x40 MSTORE RETURNDATASIZE DUP3 MSTORE RETURNDATASIZE PUSH1 0x0 PUSH1 0x20 DUP5 ADD RETURNDATACOPY PUSH2 0xAA5 JUMP JUMPDEST PUSH1 0x60 SWAP2 POP JUMPDEST POP SWAP2 POP SWAP2 POP DUP2 PUSH2 0xAEA JUMPI PUSH1 0x40 MLOAD PUSH32 0x8C379A000000000000000000000000000000000000000000000000000000000 DUP2 MSTORE PUSH1 0x4 ADD PUSH2 0xAE1 SWAP1 PUSH2 0x1439 JUMP JUMPDEST PUSH1 0x40 MLOAD DUP1 SWAP2 SUB SWAP1 REVERT JUMPDEST DUP1 SWAP3 POP POP POP SWAP4 SWAP3 POP POP POP JUMP JUMPDEST PUSH1 0x0 PUSH1 0x40 MLOAD SWAP1 POP SWAP1 JUMP JUMPDEST PUSH1 0x0 DUP1 REVERT JUMPDEST PUSH1 0x0 DUP1 REVERT JUMPDEST PUSH1 0x0 PUSH20 0xFFFFFFFFFFFFFFFFFFFFFFFFFFFFFFFFFFFFFFFF DUP3 AND SWAP1 POP SWAP2 SWAP1 POP JUMP JUMPDEST PUSH1 0x0 PUSH2 0xB35 DUP3 PUSH2 0xB0A JUMP JUMPDEST SWAP1 POP SWAP2 SWAP1 POP JUMP JUMPDEST PUSH2 0xB45 DUP2 PUSH2 0xB2A JUMP JUMPDEST DUP2 EQ PUSH2 0xB50 JUMPI PUSH1 0x0 DUP1 REVERT JUMPDEST POP JUMP JUMPDEST PUSH1 0x0 DUP2 CALLDATALOAD SWAP1 POP PUSH2 0xB62 DUP2 PUSH2 0xB3C JUMP JUMPDEST SWAP3 SWAP2 POP POP JUMP JUMPDEST PUSH1 0x0 PUSH1 0x20 DUP3 DUP5 SUB SLT ISZERO PUSH2 0xB7E JUMPI PUSH2 0xB7D PUSH2 0xB00 JUMP JUMPDEST JUMPDEST PUSH1 0x0 PUSH2 0xB8C DUP5 DUP3 DUP6 ADD PUSH2 0xB53 JUMP JUMPDEST SWAP2 POP POP SWAP3 SWAP2 POP POP JUMP JUMPDEST PUSH1 0x0 DUP2 ISZERO ISZERO SWAP1 POP SWAP2 SWAP1 POP JUMP JUMPDEST PUSH2 0xBAA DUP2 PUSH2 0xB95 JUMP JUMPDEST DUP3 MSTORE POP POP JUMP JUMPDEST PUSH1 0x0 PUSH1 0x20 DUP3 ADD SWAP1 POP PUSH2 0xBC5 PUSH1 0x0 DUP4 ADD DUP5 PUSH2 0xBA1 JUMP JUMPDEST SWAP3 SWAP2 POP POP JUMP JUMPDEST PUSH2 0xBD4 DUP2 PUSH2 0xB95 JUMP JUMPDEST DUP2 EQ PUSH2 0xBDF JUMPI PUSH1 0x0 DUP1 REVERT JUMPDEST POP JUMP JUMPDEST PUSH1 0x0 DUP2 CALLDATALOAD SWAP1 POP PUSH2 0xBF1 DUP2 PUSH2 0xBCB JUMP JUMPDEST SWAP3 SWAP2 POP POP JUMP JUMPDEST PUSH1 0x0 DUP1 PUSH1 0x40 DUP4 DUP6 SUB SLT ISZERO PUSH2 0xC0E JUMPI PUSH2 0xC0D PUSH2 0xB00 JUMP JUMPDEST JUMPDEST PUSH1 0x0 PUSH2 0xC1C DUP6 DUP3 DUP7 ADD PUSH2 0xB53 JUMP JUMPDEST SWAP3 POP POP PUSH1 0x20 PUSH2 0xC2D DUP6 DUP3 DUP7 ADD PUSH2 0xBE2 JUMP JUMPDEST SWAP2 POP POP SWAP3 POP SWAP3 SWAP1 POP JUMP JUMPDEST PUSH1 0x0 DUP2 SWAP1 POP SWAP2 SWAP1 POP JUMP JUMPDEST PUSH2 0xC4A DUP2 PUSH2 0xC37 JUMP JUMPDEST DUP2 EQ PUSH2 0xC55 JUMPI PUSH1 0x0 DUP1 REVERT JUMPDEST POP JUMP JUMPDEST PUSH1 0x0 DUP2 CALLDATALOAD SWAP1 POP PUSH2 0xC67 DUP2 PUSH2 0xC41 JUMP JUMPDEST SWAP3 SWAP2 POP POP JUMP JUMPDEST PUSH1 0x0 DUP1 PUSH1 0x40 DUP4 DUP6 SUB SLT ISZERO PUSH2 0xC84 JUMPI PUSH2 0xC83 PUSH2 0xB00 JUMP JUMPDEST JUMPDEST PUSH1 0x0 PUSH2 0xC92 DUP6 DUP3 DUP7 ADD PUSH2 0xB53 JUMP JUMPDEST SWAP3 POP POP PUSH1 0x20 PUSH2 0xCA3 DUP6 DUP3 DUP7 ADD PUSH2 0xC58 JUMP JUMPDEST SWAP2 POP POP SWAP3 POP SWAP3 SWAP1 POP JUMP JUMPDEST PUSH2 0xCB6 DUP2 PUSH2 0xC37 JUMP JUMPDEST DUP3 MSTORE POP POP JUMP JUMPDEST PUSH1 0x0 PUSH1 0x20 DUP3 ADD SWAP1 POP PUSH2 0xCD1 PUSH1 0x0 DUP4 ADD DUP5 PUSH2 0xCAD JUMP JUMPDEST SWAP3 SWAP2 POP POP JUMP JUMPDEST PUSH1 0x0 PUSH2 0xCE2 DUP3 PUSH2 0xB0A JUMP JUMPDEST SWAP1 POP SWAP2 SWAP1 POP JUMP JUMPDEST PUSH2 0xCF2 DUP2 PUSH2 0xCD7 JUMP JUMPDEST DUP2 EQ PUSH2 0xCFD JUMPI PUSH1 0x0 DUP1 REVERT JUMPDEST POP JUMP JUMPDEST PUSH1 0x0 DUP2 CALLDATALOAD SWAP1 POP PUSH2 0xD0F DUP2 PUSH2 0xCE9 JUMP JUMPDEST SWAP3 SWAP2 POP POP JUMP JUMPDEST PUSH1 0x0 PUSH1 0x20 DUP3 DUP5 SUB SLT ISZERO PUSH2 0xD2B JUMPI PUSH2 0xD2A PUSH2 0xB00 JUMP JUMPDEST JUMPDEST PUSH1 0x0 PUSH2 0xD39 DUP5 DUP3 DUP6 ADD PUSH2 0xD00 JUMP JUMPDEST SWAP2 POP POP SWAP3 SWAP2 POP POP JUMP JUMPDEST PUSH1 0x0 DUP1 REVERT JUMPDEST PUSH1 0x0 DUP1 REVERT JUMPDEST PUSH1 0x0 PUSH1 0x1F NOT PUSH1 0x1F DUP4 ADD AND SWAP1 POP SWAP2 SWAP1 POP JUMP JUMPDEST PUSH32 0x4E487B7100000000000000000000000000000000000000000000000000000000 PUSH1 0x0 MSTORE PUSH1 0x41 PUSH1 0x4 MSTORE PUSH1 0x24 PUSH1 0x0 REVERT JUMPDEST PUSH2 0xD95 DUP3 PUSH2 0xD4C JUMP JUMPDEST DUP2 ADD DUP2 DUP2 LT PUSH8 0xFFFFFFFFFFFFFFFF DUP3 GT OR ISZERO PUSH2 0xDB4 JUMPI PUSH2 0xDB3 PUSH2 0xD5D JUMP JUMPDEST JUMPDEST DUP1 PUSH1 0x40 MSTORE POP POP POP JUMP JUMPDEST PUSH1 0x0 PUSH2 0xDC7 PUSH2 0xAF6 JUMP JUMPDEST SWAP1 POP PUSH2 0xDD3 DUP3 DUP3 PUSH2 0xD8C JUMP JUMPDEST SWAP2 SWAP1 POP JUMP JUMPDEST PUSH1 0x0 PUSH8 0xFFFFFFFFFFFFFFFF DUP3 GT ISZERO PUSH2 0xDF3 JUMPI PUSH2 0xDF2 PUSH2 0xD5D JUMP JUMPDEST JUMPDEST PUSH2 0xDFC DUP3 PUSH2 0xD4C JUMP JUMPDEST SWAP1 POP PUSH1 0x20 DUP2 ADD SWAP1 POP SWAP2 SWAP1 POP JUMP JUMPDEST DUP3 DUP2 DUP4 CALLDATACOPY PUSH1 0x0 DUP4 DUP4 ADD MSTORE POP POP POP JUMP JUMPDEST PUSH1 0x0 PUSH2 0xE2B PUSH2 0xE26 DUP5 PUSH2 0xDD8 JUMP JUMPDEST PUSH2 0xDBD JUMP JUMPDEST SWAP1 POP DUP3 DUP2 MSTORE PUSH1 0x20 DUP2 ADD DUP5 DUP5 DUP5 ADD GT ISZERO PUSH2 0xE47 JUMPI PUSH2 0xE46 PUSH2 0xD47 JUMP JUMPDEST JUMPDEST PUSH2 0xE52 DUP5 DUP3 DUP6 PUSH2 0xE09 JUMP JUMPDEST POP SWAP4 SWAP3 POP POP POP JUMP JUMPDEST PUSH1 0x0 DUP3 PUSH1 0x1F DUP4 ADD SLT PUSH2 0xE6F JUMPI PUSH2 0xE6E PUSH2 0xD42 JUMP JUMPDEST JUMPDEST DUP2 CALLDATALOAD PUSH2 0xE7F DUP5 DUP3 PUSH1 0x20 DUP7 ADD PUSH2 0xE18 JUMP JUMPDEST SWAP2 POP POP SWAP3 SWAP2 POP POP JUMP JUMPDEST PUSH1 0x0 DUP1 PUSH1 0x0 PUSH1 0x60 DUP5 DUP7 SUB SLT ISZERO PUSH2 0xEA1 JUMPI PUSH2 0xEA0 PUSH2 0xB00 JUMP JUMPDEST JUMPDEST PUSH1 0x0 PUSH2 0xEAF DUP7 DUP3 DUP8 ADD PUSH2 0xD00 JUMP JUMPDEST SWAP4 POP POP PUSH1 0x20 PUSH2 0xEC0 DUP7 DUP3 DUP8 ADD PUSH2 0xC58 JUMP JUMPDEST SWAP3 POP POP PUSH1 0x40 DUP5 ADD CALLDATALOAD PUSH8 0xFFFFFFFFFFFFFFFF DUP2 GT ISZERO PUSH2 0xEE1 JUMPI PUSH2 0xEE0 PUSH2 0xB05 JUMP JUMPDEST JUMPDEST PUSH2 0xEED DUP7 DUP3 DUP8 ADD PUSH2 0xE5A JUMP JUMPDEST SWAP2 POP POP SWAP3 POP SWAP3 POP SWAP3 JUMP JUMPDEST PUSH1 0x0 DUP2 MLOAD SWAP1 POP SWAP2 SWAP1 POP JUMP JUMPDEST PUSH1 0x0 DUP3 DUP3 MSTORE PUSH1 0x20 DUP3 ADD SWAP1 POP SWAP3 SWAP2 POP POP JUMP JUMPDEST PUSH1 0x0 JUMPDEST DUP4 DUP2 LT ISZERO PUSH2 0xF31 JUMPI DUP1 DUP3 ADD MLOAD DUP2 DUP5 ADD MSTORE PUSH1 0x20 DUP2 ADD SWAP1 POP PUSH2 0xF16 JUMP JUMPDEST PUSH1 0x0 DUP5 DUP5 ADD MSTORE POP POP POP POP JUMP JUMPDEST PUSH1 0x0 PUSH2 0xF48 DUP3 PUSH2 0xEF7 JUMP JUMPDEST PUSH2 0xF52 DUP2 DUP6 PUSH2 0xF02 JUMP JUMPDEST SWAP4 POP PUSH2 0xF62 DUP2 DUP6 PUSH1 0x20 DUP7 ADD PUSH2 0xF13 JUMP JUMPDEST PUSH2 0xF6B DUP2 PUSH2 0xD4C JUMP JUMPDEST DUP5 ADD SWAP2 POP POP SWAP3 SWAP2 POP POP JUMP JUMPDEST PUSH1 0x0 PUSH1 0x20 DUP3 ADD SWAP1 POP DUP2 DUP2 SUB PUSH1 0x0 DUP4 ADD MSTORE PUSH2 0xF90 DUP2 DUP5 PUSH2 0xF3D JUMP JUMPDEST SWAP1 POP SWAP3 SWAP2 POP POP JUMP JUMPDEST PUSH1 0x0 DUP3 DUP3 MSTORE PUSH1 0x20 DUP3 ADD SWAP1 POP SWAP3 SWAP2 POP POP JUMP JUMPDEST PUSH32 0x596F7520617265206E6F7420746865206F776E65722C2061626F7274696E6700 PUSH1 0x0 DUP3 ADD MSTORE POP JUMP JUMPDEST PUSH1 0x0 PUSH2 0xFDF PUSH1 0x1F DUP4 PUSH2 0xF98 JUMP JUMPDEST SWAP2 POP PUSH2 0xFEA DUP3 PUSH2 0xFA9 JUMP JUMPDEST PUSH1 0x20 DUP3 ADD SWAP1 POP SWAP2 SWAP1 POP JUMP JUMPDEST PUSH1 0x0 PUSH1 0x20 DUP3 ADD SWAP1 POP DUP2 DUP2 SUB PUSH1 0x0 DUP4 ADD MSTORE PUSH2 0x100E DUP2 PUSH2 0xFD2 JUMP JUMPDEST SWAP1 POP SWAP2 SWAP1 POP JUMP JUMPDEST PUSH32 0x596F7520617265206E6F7420677561726469616E206F6620746869732077616C PUSH1 0x0 DUP3 ADD MSTORE PUSH32 0x6C65742C2061626F7274696E6700000000000000000000000000000000000000 PUSH1 0x20 DUP3 ADD MSTORE POP JUMP JUMPDEST PUSH1 0x0 PUSH2 0x1071 PUSH1 0x2D DUP4 PUSH2 0xF98 JUMP JUMPDEST SWAP2 POP PUSH2 0x107C DUP3 PUSH2 0x1015 JUMP JUMPDEST PUSH1 0x40 DUP3 ADD SWAP1 POP SWAP2 SWAP1 POP JUMP JUMPDEST PUSH1 0x0 PUSH1 0x20 DUP3 ADD SWAP1 POP DUP2 DUP2 SUB PUSH1 0x0 DUP4 ADD MSTORE PUSH2 0x10A0 DUP2 PUSH2 0x1064 JUMP JUMPDEST SWAP1 POP SWAP2 SWAP1 POP JUMP JUMPDEST PUSH32 0x596F7520616C726561647920766F7465642C2061626F7274696E670000000000 PUSH1 0x0 DUP3 ADD MSTORE POP JUMP JUMPDEST PUSH1 0x0 PUSH2 0x10DD PUSH1 0x1B DUP4 PUSH2 0xF98 JUMP JUMPDEST SWAP2 POP PUSH2 0x10E8 DUP3 PUSH2 0x10A7 JUMP JUMPDEST PUSH1 0x20 DUP3 ADD SWAP1 POP SWAP2 SWAP1 POP JUMP JUMPDEST PUSH1 0x0 PUSH1 0x20 DUP3 ADD SWAP1 POP DUP2 DUP2 SUB PUSH1 0x0 DUP4 ADD MSTORE PUSH2 0x110C DUP2 PUSH2 0x10D0 JUMP JUMPDEST SWAP1 POP SWAP2 SWAP1 POP JUMP JUMPDEST PUSH32 0x4E487B7100000000000000000000000000000000000000000000000000000000 PUSH1 0x0 MSTORE PUSH1 0x11 PUSH1 0x4 MSTORE PUSH1 0x24 PUSH1 0x0 REVERT JUMPDEST PUSH1 0x0 PUSH2 0x114D DUP3 PUSH2 0xC37 JUMP JUMPDEST SWAP2 POP PUSH32 0xFFFFFFFFFFFFFFFFFFFFFFFFFFFFFFFFFFFFFFFFFFFFFFFFFFFFFFFFFFFFFFFF DUP3 SUB PUSH2 0x117F JUMPI PUSH2 0x117E PUSH2 0x1113 JUMP JUMPDEST JUMPDEST PUSH1 0x1 DUP3 ADD SWAP1 POP SWAP2 SWAP1 POP JUMP JUMPDEST PUSH32 0x596F7520617265206E6F7420746865206F776E65722C2061626F7274696E672E PUSH1 0x0 DUP3 ADD MSTORE POP JUMP JUMPDEST PUSH1 0x0 PUSH2 0x11C0 PUSH1 0x20 DUP4 PUSH2 0xF98 JUMP JUMPDEST SWAP2 POP PUSH2 0x11CB DUP3 PUSH2 0x118A JUMP JUMPDEST PUSH1 0x20 DUP3 ADD SWAP1 POP SWAP2 SWAP1 POP JUMP JUMPDEST PUSH1 0x0 PUSH1 0x20 DUP3 ADD SWAP1 POP DUP2 DUP2 SUB PUSH1 0x0 DUP4 ADD MSTORE PUSH2 0x11EF DUP2 PUSH2 0x11B3 JUMP JUMPDEST SWAP1 POP SWAP2 SWAP1 POP JUMP JUMPDEST PUSH32 0x596F7520617265206E6F7420616C6C6F77656420746F2073656E6420616E7974 PUSH1 0x0 DUP3 ADD MSTORE PUSH32 0x68696E672066726F6D207468697320736D61727420636F6E74726163742C2061 PUSH1 0x20 DUP3 ADD MSTORE PUSH32 0x626F7274696E6700000000000000000000000000000000000000000000000000 PUSH1 0x40 DUP3 ADD MSTORE POP JUMP JUMPDEST PUSH1 0x0 PUSH2 0x1278 PUSH1 0x47 DUP4 PUSH2 0xF98 JUMP JUMPDEST SWAP2 POP PUSH2 0x1283 DUP3 PUSH2 0x11F6 JUMP JUMPDEST PUSH1 0x60 DUP3 ADD SWAP1 POP SWAP2 SWAP1 POP JUMP JUMPDEST PUSH1 0x0 PUSH1 0x20 DUP3 ADD SWAP1 POP DUP2 DUP2 SUB PUSH1 0x0 DUP4 ADD MSTORE PUSH2 0x12A7 DUP2 PUSH2 0x126B JUMP JUMPDEST SWAP1 POP SWAP2 SWAP1 POP JUMP JUMPDEST PUSH32 0x596F752061726520747279696E6720746F2073656E64206D6F7265207468616E PUSH1 0x0 DUP3 ADD MSTORE PUSH32 0x20796F752061726520616C6C6F77656420746F2C2061626F7274696E67000000 PUSH1 0x20 DUP3 ADD MSTORE POP JUMP JUMPDEST PUSH1 0x0 PUSH2 0x130A PUSH1 0x3D DUP4 PUSH2 0xF98 JUMP JUMPDEST SWAP2 POP PUSH2 0x1315 DUP3 PUSH2 0x12AE JUMP JUMPDEST PUSH1 0x40 DUP3 ADD SWAP1 POP SWAP2 SWAP1 POP JUMP JUMPDEST PUSH1 0x0 PUSH1 0x20 DUP3 ADD SWAP1 POP DUP2 DUP2 SUB PUSH1 0x0 DUP4 ADD MSTORE PUSH2 0x1339 DUP2 PUSH2 0x12FD JUMP JUMPDEST SWAP1 POP SWAP2 SWAP1 POP JUMP JUMPDEST PUSH1 0x0 PUSH2 0x134B DUP3 PUSH2 0xC37 JUMP JUMPDEST SWAP2 POP PUSH2 0x1356 DUP4 PUSH2 0xC37 JUMP JUMPDEST SWAP3 POP DUP3 DUP3 SUB SWAP1 POP DUP2 DUP2 GT ISZERO PUSH2 0x136E JUMPI PUSH2 0x136D PUSH2 0x1113 JUMP JUMPDEST JUMPDEST SWAP3 SWAP2 POP POP JUMP JUMPDEST PUSH1 0x0 DUP2 SWAP1 POP SWAP3 SWAP2 POP POP JUMP JUMPDEST PUSH1 0x0 PUSH2 0x138A DUP3 PUSH2 0xEF7 JUMP JUMPDEST PUSH2 0x1394 DUP2 DUP6 PUSH2 0x1374 JUMP JUMPDEST SWAP4 POP PUSH2 0x13A4 DUP2 DUP6 PUSH1 0x20 DUP7 ADD PUSH2 0xF13 JUMP JUMPDEST DUP1 DUP5 ADD SWAP2 POP POP SWAP3 SWAP2 POP POP JUMP JUMPDEST PUSH1 0x0 PUSH2 0x13BC DUP3 DUP5 PUSH2 0x137F JUMP JUMPDEST SWAP2 POP DUP2 SWAP1 POP SWAP3 SWAP2 POP POP JUMP JUMPDEST PUSH32 0x41626F7274696E672C2063616C6C20776173206E6F7420737563636573736675 PUSH1 0x0 DUP3 ADD MSTORE PUSH32 0x6C00000000000000000000000000000000000000000000000000000000000000 PUSH1 0x20 DUP3 ADD MSTORE POP JUMP JUMPDEST PUSH1 0x0 PUSH2 0x1423 PUSH1 0x21 DUP4 PUSH2 0xF98 JUMP JUMPDEST SWAP2 POP PUSH2 0x142E DUP3 PUSH2 0x13C7 JUMP JUMPDEST PUSH1 0x40 DUP3 ADD SWAP1 POP SWAP2 SWAP1 POP JUMP JUMPDEST PUSH1 0x0 PUSH1 0x20 DUP3 ADD SWAP1 POP DUP2 DUP2 SUB PUSH1 0x0 DUP4 ADD MSTORE PUSH2 0x1452 DUP2 PUSH2 0x1416 JUMP JUMPDEST SWAP1 POP SWAP2 SWAP1 POP JUMP INVALID LOG2 PUSH5 0x6970667358 0x22 SLT KECCAK256 RETURN PUSH29 0xB516B1719ABC85EB69A55DABE2D6C517C152EA4DCAB24FFDA3C59AC8B7 DELEGATECALL PUSH5 0x736F6C6343 STOP ADDMOD SLT STOP CALLER "
				},
				"gasEstimates": {
					"creation": {
						"codeDepositCost": "1052600",
						"executionCost": "25360",
						"totalCost": "1077960"
					},
					"external": {
						"allowance(address)": "2814",
						"confirmationFromGuardiansForReset()": "351",
						"guardians(address)": "2846",
						"isAllowedToSend(address)": "2890",
						"proposeNewOwner(address)": "138139",
						"setAllowance(address,uint256)": "49423",
						"setGuarding(address,bool)": "27181",
						"transfer(address,uint256,bytes)": "infinite"
					}
				},
				"methodIdentifiers": {
					"allowance(address)": "3e5beab9",
					"confirmationFromGuardiansForReset()": "58e404b1",
					"guardians(address)": "0633b14a",
					"isAllowedToSend(address)": "0bc605ad",
					"proposeNewOwner(address)": "b1f8100d",
					"setAllowance(address,uint256)": "310ec4a7",
					"setGuarding(address,bool)": "069672ae",
					"transfer(address,uint256,bytes)": "be45fd62"
				}
			},
			"storageLayout": {
				"storage": [
					{
						"astId": 3,
						"contract": "Section5/SmartContractWallet.sol:SmartContractWallet",
						"label": "owner",
						"offset": 0,
						"slot": "0",
						"type": "t_address_payable"
					},
					{
						"astId": 7,
						"contract": "Section5/SmartContractWallet.sol:SmartContractWallet",
						"label": "isAllowedToSend",
						"offset": 0,
						"slot": "1",
						"type": "t_mapping(t_address,t_bool)"
					},
					{
						"astId": 11,
						"contract": "Section5/SmartContractWallet.sol:SmartContractWallet",
						"label": "allowance",
						"offset": 0,
						"slot": "2",
						"type": "t_mapping(t_address,t_uint256)"
					},
					{
						"astId": 15,
						"contract": "Section5/SmartContractWallet.sol:SmartContractWallet",
						"label": "guardians",
						"offset": 0,
						"slot": "3",
						"type": "t_mapping(t_address,t_bool)"
					},
					{
						"astId": 17,
						"contract": "Section5/SmartContractWallet.sol:SmartContractWallet",
						"label": "nextOwner",
						"offset": 0,
						"slot": "4",
						"type": "t_address_payable"
					},
					{
						"astId": 23,
						"contract": "Section5/SmartContractWallet.sol:SmartContractWallet",
						"label": "nextOwnerGuardianVotedBool",
						"offset": 0,
						"slot": "5",
						"type": "t_mapping(t_address,t_mapping(t_address,t_bool))"
					},
					{
						"astId": 25,
						"contract": "Section5/SmartContractWallet.sol:SmartContractWallet",
						"label": "guardiansResetCount",
						"offset": 0,
						"slot": "6",
						"type": "t_uint256"
					}
				],
				"types": {
					"t_address": {
						"encoding": "inplace",
						"label": "address",
						"numberOfBytes": "20"
					},
					"t_address_payable": {
						"encoding": "inplace",
						"label": "address payable",
						"numberOfBytes": "20"
					},
					"t_bool": {
						"encoding": "inplace",
						"label": "bool",
						"numberOfBytes": "1"
					},
					"t_mapping(t_address,t_bool)": {
						"encoding": "mapping",
						"key": "t_address",
						"label": "mapping(address => bool)",
						"numberOfBytes": "32",
						"value": "t_bool"
					},
					"t_mapping(t_address,t_mapping(t_address,t_bool))": {
						"encoding": "mapping",
						"key": "t_address",
						"label": "mapping(address => mapping(address => bool))",
						"numberOfBytes": "32",
						"value": "t_mapping(t_address,t_bool)"
					},
					"t_mapping(t_address,t_uint256)": {
						"encoding": "mapping",
						"key": "t_address",
						"label": "mapping(address => uint256)",
						"numberOfBytes": "32",
						"value": "t_uint256"
					},
					"t_uint256": {
						"encoding": "inplace",
						"label": "uint256",
						"numberOfBytes": "32"
					}
				}
			},
			"userdoc": {
				"kind": "user",
				"methods": {},
				"version": 1
			}
		}
	}
}