{
	"data": {
		"bytecode": {
			"linkReferences": {},
			"object": "6080604052670de0b6b3a764000060005534801561001c57600080fd5b506040516109f63803806109f6833981810160405281019061003e9190610129565b33600260006101000a81548173ffffffffffffffffffffffffffffffffffffffff021916908373ffffffffffffffffffffffffffffffffffffffff16021790555080600160006101000a81548173ffffffffffffffffffffffffffffffffffffffff021916908373ffffffffffffffffffffffffffffffffffffffff16021790555050610156565b600080fd5b600073ffffffffffffffffffffffffffffffffffffffff82169050919050565b60006100f6826100cb565b9050919050565b610106816100eb565b811461011157600080fd5b50565b600081519050610123816100fd565b92915050565b60006020828403121561013f5761013e6100c6565b5b600061014d84828501610114565b91505092915050565b610891806101656000396000f3fe60806040526004361061003f5760003560e01c80632f8de8101461004457806364edfbf01461006f578063a3e6761014610079578063fc0c546a146100a4575b600080fd5b34801561005057600080fd5b506100596100cf565b6040516100669190610363565b60405180910390f35b6100776100d5565b005b34801561008557600080fd5b5061008e6102fe565b60405161009b91906103bf565b60405180910390f35b3480156100b057600080fd5b506100b9610324565b6040516100c69190610439565b60405180910390f35b60005481565b60005434101561011a576040517f08c379a0000000000000000000000000000000000000000000000000000000008152600401610111906104b1565b60405180910390fd5b6000805434610129919061052f565b9050600080548261013a9190610560565b3461014591906105a2565b9050600160009054906101000a900473ffffffffffffffffffffffffffffffffffffffff1673ffffffffffffffffffffffffffffffffffffffff166323b872dd600260009054906101000a900473ffffffffffffffffffffffffffffffffffffffff1633600160009054906101000a900473ffffffffffffffffffffffffffffffffffffffff1673ffffffffffffffffffffffffffffffffffffffff1663313ce5676040518163ffffffff1660e01b8152600401602060405180830381865afa158015610216573d6000803e3d6000fd5b505050506040513d601f19601f8201168201806040525081019061023a9190610614565b600a6102469190610774565b866102519190610560565b6040518463ffffffff1660e01b815260040161026f939291906107bf565b6020604051808303816000875af115801561028e573d6000803e3d6000fd5b505050506040513d601f19601f820116820180604052508101906102b2919061082e565b503373ffffffffffffffffffffffffffffffffffffffff166108fc829081150290604051600060405180830381858888f193505050501580156102f9573d6000803e3d6000fd5b505050565b600260009054906101000a900473ffffffffffffffffffffffffffffffffffffffff1681565b600160009054906101000a900473ffffffffffffffffffffffffffffffffffffffff1681565b6000819050919050565b61035d8161034a565b82525050565b60006020820190506103786000830184610354565b92915050565b600073ffffffffffffffffffffffffffffffffffffffff82169050919050565b60006103a98261037e565b9050919050565b6103b98161039e565b82525050565b60006020820190506103d460008301846103b0565b92915050565b6000819050919050565b60006103ff6103fa6103f58461037e565b6103da565b61037e565b9050919050565b6000610411826103e4565b9050919050565b600061042382610406565b9050919050565b61043381610418565b82525050565b600060208201905061044e600083018461042a565b92915050565b600082825260208201905092915050565b7f4e6f7420656e6f756768206d6f6e65792073656e740000000000000000000000600082015250565b600061049b601583610454565b91506104a682610465565b602082019050919050565b600060208201905081810360008301526104ca8161048e565b9050919050565b7f4e487b7100000000000000000000000000000000000000000000000000000000600052601260045260246000fd5b7f4e487b7100000000000000000000000000000000000000000000000000000000600052601160045260246000fd5b600061053a8261034a565b91506105458361034a565b925082610555576105546104d1565b5b828204905092915050565b600061056b8261034a565b91506105768361034a565b92508282026105848161034a565b9150828204841483151761059b5761059a610500565b5b5092915050565b60006105ad8261034a565b91506105b88361034a565b92508282039050818111156105d0576105cf610500565b5b92915050565b600080fd5b600060ff82169050919050565b6105f1816105db565b81146105fc57600080fd5b50565b60008151905061060e816105e8565b92915050565b60006020828403121561062a576106296105d6565b5b6000610638848285016105ff565b91505092915050565b60008160011c9050919050565b6000808291508390505b60018511156106985780860481111561067457610673610500565b5b60018516156106835780820291505b808102905061069185610641565b9450610658565b94509492505050565b6000826106b1576001905061076d565b816106bf576000905061076d565b81600181146106d557600281146106df5761070e565b600191505061076d565b60ff8411156106f1576106f0610500565b5b8360020a91508482111561070857610707610500565b5b5061076d565b5060208310610133831016604e8410600b84101617156107435782820a90508381111561073e5761073d610500565b5b61076d565b610750848484600161064e565b9250905081840481111561076757610766610500565b5b81810290505b9392505050565b600061077f8261034a565b915061078a836105db565b92506107b77fffffffffffffffffffffffffffffffffffffffffffffffffffffffffffffffff84846106a1565b905092915050565b60006060820190506107d460008301866103b0565b6107e160208301856103b0565b6107ee6040830184610354565b949350505050565b60008115159050919050565b61080b816107f6565b811461081657600080fd5b50565b60008151905061082881610802565b92915050565b600060208284031215610844576108436105d6565b5b600061085284828501610819565b9150509291505056fea264697066735822122035dd5620f10c22fdc2df3217e0d912194dda8f6301c300cb6206db15e2fbfbe464736f6c63430008120033",
			"opcodes": "PUSH1 0x80 PUSH1 0x40 MSTORE PUSH8 0xDE0B6B3A7640000 PUSH1 0x0 SSTORE CALLVALUE DUP1 ISZERO PUSH2 0x1C JUMPI PUSH1 0x0 DUP1 REVERT JUMPDEST POP PUSH1 0x40 MLOAD PUSH2 0x9F6 CODESIZE SUB DUP1 PUSH2 0x9F6 DUP4 CODECOPY DUP2 DUP2 ADD PUSH1 0x40 MSTORE DUP2 ADD SWAP1 PUSH2 0x3E SWAP2 SWAP1 PUSH2 0x129 JUMP JUMPDEST CALLER PUSH1 0x2 PUSH1 0x0 PUSH2 0x100 EXP DUP2 SLOAD DUP2 PUSH20 0xFFFFFFFFFFFFFFFFFFFFFFFFFFFFFFFFFFFFFFFF MUL NOT AND SWAP1 DUP4 PUSH20 0xFFFFFFFFFFFFFFFFFFFFFFFFFFFFFFFFFFFFFFFF AND MUL OR SWAP1 SSTORE POP DUP1 PUSH1 0x1 PUSH1 0x0 PUSH2 0x100 EXP DUP2 SLOAD DUP2 PUSH20 0xFFFFFFFFFFFFFFFFFFFFFFFFFFFFFFFFFFFFFFFF MUL NOT AND SWAP1 DUP4 PUSH20 0xFFFFFFFFFFFFFFFFFFFFFFFFFFFFFFFFFFFFFFFF AND MUL OR SWAP1 SSTORE POP POP PUSH2 0x156 JUMP JUMPDEST PUSH1 0x0 DUP1 REVERT JUMPDEST PUSH1 0x0 PUSH20 0xFFFFFFFFFFFFFFFFFFFFFFFFFFFFFFFFFFFFFFFF DUP3 AND SWAP1 POP SWAP2 SWAP1 POP JUMP JUMPDEST PUSH1 0x0 PUSH2 0xF6 DUP3 PUSH2 0xCB JUMP JUMPDEST SWAP1 POP SWAP2 SWAP1 POP JUMP JUMPDEST PUSH2 0x106 DUP2 PUSH2 0xEB JUMP JUMPDEST DUP2 EQ PUSH2 0x111 JUMPI PUSH1 0x0 DUP1 REVERT JUMPDEST POP JUMP JUMPDEST PUSH1 0x0 DUP2 MLOAD SWAP1 POP PUSH2 0x123 DUP2 PUSH2 0xFD JUMP JUMPDEST SWAP3 SWAP2 POP POP JUMP JUMPDEST PUSH1 0x0 PUSH1 0x20 DUP3 DUP5 SUB SLT ISZERO PUSH2 0x13F JUMPI PUSH2 0x13E PUSH2 0xC6 JUMP JUMPDEST JUMPDEST PUSH1 0x0 PUSH2 0x14D DUP5 DUP3 DUP6 ADD PUSH2 0x114 JUMP JUMPDEST SWAP2 POP POP SWAP3 SWAP2 POP POP JUMP JUMPDEST PUSH2 0x891 DUP1 PUSH2 0x165 PUSH1 0x0 CODECOPY PUSH1 0x0 RETURN INVALID PUSH1 0x80 PUSH1 0x40 MSTORE PUSH1 0x4 CALLDATASIZE LT PUSH2 0x3F JUMPI PUSH1 0x0 CALLDATALOAD PUSH1 0xE0 SHR DUP1 PUSH4 0x2F8DE810 EQ PUSH2 0x44 JUMPI DUP1 PUSH4 0x64EDFBF0 EQ PUSH2 0x6F JUMPI DUP1 PUSH4 0xA3E67610 EQ PUSH2 0x79 JUMPI DUP1 PUSH4 0xFC0C546A EQ PUSH2 0xA4 JUMPI JUMPDEST PUSH1 0x0 DUP1 REVERT JUMPDEST CALLVALUE DUP1 ISZERO PUSH2 0x50 JUMPI PUSH1 0x0 DUP1 REVERT JUMPDEST POP PUSH2 0x59 PUSH2 0xCF JUMP JUMPDEST PUSH1 0x40 MLOAD PUSH2 0x66 SWAP2 SWAP1 PUSH2 0x363 JUMP JUMPDEST PUSH1 0x40 MLOAD DUP1 SWAP2 SUB SWAP1 RETURN JUMPDEST PUSH2 0x77 PUSH2 0xD5 JUMP JUMPDEST STOP JUMPDEST CALLVALUE DUP1 ISZERO PUSH2 0x85 JUMPI PUSH1 0x0 DUP1 REVERT JUMPDEST POP PUSH2 0x8E PUSH2 0x2FE JUMP JUMPDEST PUSH1 0x40 MLOAD PUSH2 0x9B SWAP2 SWAP1 PUSH2 0x3BF JUMP JUMPDEST PUSH1 0x40 MLOAD DUP1 SWAP2 SUB SWAP1 RETURN JUMPDEST CALLVALUE DUP1 ISZERO PUSH2 0xB0 JUMPI PUSH1 0x0 DUP1 REVERT JUMPDEST POP PUSH2 0xB9 PUSH2 0x324 JUMP JUMPDEST PUSH1 0x40 MLOAD PUSH2 0xC6 SWAP2 SWAP1 PUSH2 0x439 JUMP JUMPDEST PUSH1 0x40 MLOAD DUP1 SWAP2 SUB SWAP1 RETURN JUMPDEST PUSH1 0x0 SLOAD DUP2 JUMP JUMPDEST PUSH1 0x0 SLOAD CALLVALUE LT ISZERO PUSH2 0x11A JUMPI PUSH1 0x40 MLOAD PUSH32 0x8C379A000000000000000000000000000000000000000000000000000000000 DUP2 MSTORE PUSH1 0x4 ADD PUSH2 0x111 SWAP1 PUSH2 0x4B1 JUMP JUMPDEST PUSH1 0x40 MLOAD DUP1 SWAP2 SUB SWAP1 REVERT JUMPDEST PUSH1 0x0 DUP1 SLOAD CALLVALUE PUSH2 0x129 SWAP2 SWAP1 PUSH2 0x52F JUMP JUMPDEST SWAP1 POP PUSH1 0x0 DUP1 SLOAD DUP3 PUSH2 0x13A SWAP2 SWAP1 PUSH2 0x560 JUMP JUMPDEST CALLVALUE PUSH2 0x145 SWAP2 SWAP1 PUSH2 0x5A2 JUMP JUMPDEST SWAP1 POP PUSH1 0x1 PUSH1 0x0 SWAP1 SLOAD SWAP1 PUSH2 0x100 EXP SWAP1 DIV PUSH20 0xFFFFFFFFFFFFFFFFFFFFFFFFFFFFFFFFFFFFFFFF AND PUSH20 0xFFFFFFFFFFFFFFFFFFFFFFFFFFFFFFFFFFFFFFFF AND PUSH4 0x23B872DD PUSH1 0x2 PUSH1 0x0 SWAP1 SLOAD SWAP1 PUSH2 0x100 EXP SWAP1 DIV PUSH20 0xFFFFFFFFFFFFFFFFFFFFFFFFFFFFFFFFFFFFFFFF AND CALLER PUSH1 0x1 PUSH1 0x0 SWAP1 SLOAD SWAP1 PUSH2 0x100 EXP SWAP1 DIV PUSH20 0xFFFFFFFFFFFFFFFFFFFFFFFFFFFFFFFFFFFFFFFF AND PUSH20 0xFFFFFFFFFFFFFFFFFFFFFFFFFFFFFFFFFFFFFFFF AND PUSH4 0x313CE567 PUSH1 0x40 MLOAD DUP2 PUSH4 0xFFFFFFFF AND PUSH1 0xE0 SHL DUP2 MSTORE PUSH1 0x4 ADD PUSH1 0x20 PUSH1 0x40 MLOAD DUP1 DUP4 SUB DUP2 DUP7 GAS STATICCALL ISZERO DUP1 ISZERO PUSH2 0x216 JUMPI RETURNDATASIZE PUSH1 0x0 DUP1 RETURNDATACOPY RETURNDATASIZE PUSH1 0x0 REVERT JUMPDEST POP POP POP POP PUSH1 0x40 MLOAD RETURNDATASIZE PUSH1 0x1F NOT PUSH1 0x1F DUP3 ADD AND DUP3 ADD DUP1 PUSH1 0x40 MSTORE POP DUP2 ADD SWAP1 PUSH2 0x23A SWAP2 SWAP1 PUSH2 0x614 JUMP JUMPDEST PUSH1 0xA PUSH2 0x246 SWAP2 SWAP1 PUSH2 0x774 JUMP JUMPDEST DUP7 PUSH2 0x251 SWAP2 SWAP1 PUSH2 0x560 JUMP JUMPDEST PUSH1 0x40 MLOAD DUP5 PUSH4 0xFFFFFFFF AND PUSH1 0xE0 SHL DUP2 MSTORE PUSH1 0x4 ADD PUSH2 0x26F SWAP4 SWAP3 SWAP2 SWAP1 PUSH2 0x7BF JUMP JUMPDEST PUSH1 0x20 PUSH1 0x40 MLOAD DUP1 DUP4 SUB DUP2 PUSH1 0x0 DUP8 GAS CALL ISZERO DUP1 ISZERO PUSH2 0x28E JUMPI RETURNDATASIZE PUSH1 0x0 DUP1 RETURNDATACOPY RETURNDATASIZE PUSH1 0x0 REVERT JUMPDEST POP POP POP POP PUSH1 0x40 MLOAD RETURNDATASIZE PUSH1 0x1F NOT PUSH1 0x1F DUP3 ADD AND DUP3 ADD DUP1 PUSH1 0x40 MSTORE POP DUP2 ADD SWAP1 PUSH2 0x2B2 SWAP2 SWAP1 PUSH2 0x82E JUMP JUMPDEST POP CALLER PUSH20 0xFFFFFFFFFFFFFFFFFFFFFFFFFFFFFFFFFFFFFFFF AND PUSH2 0x8FC DUP3 SWAP1 DUP2 ISZERO MUL SWAP1 PUSH1 0x40 MLOAD PUSH1 0x0 PUSH1 0x40 MLOAD DUP1 DUP4 SUB DUP2 DUP6 DUP9 DUP9 CALL SWAP4 POP POP POP POP ISZERO DUP1 ISZERO PUSH2 0x2F9 JUMPI RETURNDATASIZE PUSH1 0x0 DUP1 RETURNDATACOPY RETURNDATASIZE PUSH1 0x0 REVERT JUMPDEST POP POP POP JUMP JUMPDEST PUSH1 0x2 PUSH1 0x0 SWAP1 SLOAD SWAP1 PUSH2 0x100 EXP SWAP1 DIV PUSH20 0xFFFFFFFFFFFFFFFFFFFFFFFFFFFFFFFFFFFFFFFF AND DUP2 JUMP JUMPDEST PUSH1 0x1 PUSH1 0x0 SWAP1 SLOAD SWAP1 PUSH2 0x100 EXP SWAP1 DIV PUSH20 0xFFFFFFFFFFFFFFFFFFFFFFFFFFFFFFFFFFFFFFFF AND DUP2 JUMP JUMPDEST PUSH1 0x0 DUP2 SWAP1 POP SWAP2 SWAP1 POP JUMP JUMPDEST PUSH2 0x35D DUP2 PUSH2 0x34A JUMP JUMPDEST DUP3 MSTORE POP POP JUMP JUMPDEST PUSH1 0x0 PUSH1 0x20 DUP3 ADD SWAP1 POP PUSH2 0x378 PUSH1 0x0 DUP4 ADD DUP5 PUSH2 0x354 JUMP JUMPDEST SWAP3 SWAP2 POP POP JUMP JUMPDEST PUSH1 0x0 PUSH20 0xFFFFFFFFFFFFFFFFFFFFFFFFFFFFFFFFFFFFFFFF DUP3 AND SWAP1 POP SWAP2 SWAP1 POP JUMP JUMPDEST PUSH1 0x0 PUSH2 0x3A9 DUP3 PUSH2 0x37E JUMP JUMPDEST SWAP1 POP SWAP2 SWAP1 POP JUMP JUMPDEST PUSH2 0x3B9 DUP2 PUSH2 0x39E JUMP JUMPDEST DUP3 MSTORE POP POP JUMP JUMPDEST PUSH1 0x0 PUSH1 0x20 DUP3 ADD SWAP1 POP PUSH2 0x3D4 PUSH1 0x0 DUP4 ADD DUP5 PUSH2 0x3B0 JUMP JUMPDEST SWAP3 SWAP2 POP POP JUMP JUMPDEST PUSH1 0x0 DUP2 SWAP1 POP SWAP2 SWAP1 POP JUMP JUMPDEST PUSH1 0x0 PUSH2 0x3FF PUSH2 0x3FA PUSH2 0x3F5 DUP5 PUSH2 0x37E JUMP JUMPDEST PUSH2 0x3DA JUMP JUMPDEST PUSH2 0x37E JUMP JUMPDEST SWAP1 POP SWAP2 SWAP1 POP JUMP JUMPDEST PUSH1 0x0 PUSH2 0x411 DUP3 PUSH2 0x3E4 JUMP JUMPDEST SWAP1 POP SWAP2 SWAP1 POP JUMP JUMPDEST PUSH1 0x0 PUSH2 0x423 DUP3 PUSH2 0x406 JUMP JUMPDEST SWAP1 POP SWAP2 SWAP1 POP JUMP JUMPDEST PUSH2 0x433 DUP2 PUSH2 0x418 JUMP JUMPDEST DUP3 MSTORE POP POP JUMP JUMPDEST PUSH1 0x0 PUSH1 0x20 DUP3 ADD SWAP1 POP PUSH2 0x44E PUSH1 0x0 DUP4 ADD DUP5 PUSH2 0x42A JUMP JUMPDEST SWAP3 SWAP2 POP POP JUMP JUMPDEST PUSH1 0x0 DUP3 DUP3 MSTORE PUSH1 0x20 DUP3 ADD SWAP1 POP SWAP3 SWAP2 POP POP JUMP JUMPDEST PUSH32 0x4E6F7420656E6F756768206D6F6E65792073656E740000000000000000000000 PUSH1 0x0 DUP3 ADD MSTORE POP JUMP JUMPDEST PUSH1 0x0 PUSH2 0x49B PUSH1 0x15 DUP4 PUSH2 0x454 JUMP JUMPDEST SWAP2 POP PUSH2 0x4A6 DUP3 PUSH2 0x465 JUMP JUMPDEST PUSH1 0x20 DUP3 ADD SWAP1 POP SWAP2 SWAP1 POP JUMP JUMPDEST PUSH1 0x0 PUSH1 0x20 DUP3 ADD SWAP1 POP DUP2 DUP2 SUB PUSH1 0x0 DUP4 ADD MSTORE PUSH2 0x4CA DUP2 PUSH2 0x48E JUMP JUMPDEST SWAP1 POP SWAP2 SWAP1 POP JUMP JUMPDEST PUSH32 0x4E487B7100000000000000000000000000000000000000000000000000000000 PUSH1 0x0 MSTORE PUSH1 0x12 PUSH1 0x4 MSTORE PUSH1 0x24 PUSH1 0x0 REVERT JUMPDEST PUSH32 0x4E487B7100000000000000000000000000000000000000000000000000000000 PUSH1 0x0 MSTORE PUSH1 0x11 PUSH1 0x4 MSTORE PUSH1 0x24 PUSH1 0x0 REVERT JUMPDEST PUSH1 0x0 PUSH2 0x53A DUP3 PUSH2 0x34A JUMP JUMPDEST SWAP2 POP PUSH2 0x545 DUP4 PUSH2 0x34A JUMP JUMPDEST SWAP3 POP DUP3 PUSH2 0x555 JUMPI PUSH2 0x554 PUSH2 0x4D1 JUMP JUMPDEST JUMPDEST DUP3 DUP3 DIV SWAP1 POP SWAP3 SWAP2 POP POP JUMP JUMPDEST PUSH1 0x0 PUSH2 0x56B DUP3 PUSH2 0x34A JUMP JUMPDEST SWAP2 POP PUSH2 0x576 DUP4 PUSH2 0x34A JUMP JUMPDEST SWAP3 POP DUP3 DUP3 MUL PUSH2 0x584 DUP2 PUSH2 0x34A JUMP JUMPDEST SWAP2 POP DUP3 DUP3 DIV DUP5 EQ DUP4 ISZERO OR PUSH2 0x59B JUMPI PUSH2 0x59A PUSH2 0x500 JUMP JUMPDEST JUMPDEST POP SWAP3 SWAP2 POP POP JUMP JUMPDEST PUSH1 0x0 PUSH2 0x5AD DUP3 PUSH2 0x34A JUMP JUMPDEST SWAP2 POP PUSH2 0x5B8 DUP4 PUSH2 0x34A JUMP JUMPDEST SWAP3 POP DUP3 DUP3 SUB SWAP1 POP DUP2 DUP2 GT ISZERO PUSH2 0x5D0 JUMPI PUSH2 0x5CF PUSH2 0x500 JUMP JUMPDEST JUMPDEST SWAP3 SWAP2 POP POP JUMP JUMPDEST PUSH1 0x0 DUP1 REVERT JUMPDEST PUSH1 0x0 PUSH1 0xFF DUP3 AND SWAP1 POP SWAP2 SWAP1 POP JUMP JUMPDEST PUSH2 0x5F1 DUP2 PUSH2 0x5DB JUMP JUMPDEST DUP2 EQ PUSH2 0x5FC JUMPI PUSH1 0x0 DUP1 REVERT JUMPDEST POP JUMP JUMPDEST PUSH1 0x0 DUP2 MLOAD SWAP1 POP PUSH2 0x60E DUP2 PUSH2 0x5E8 JUMP JUMPDEST SWAP3 SWAP2 POP POP JUMP JUMPDEST PUSH1 0x0 PUSH1 0x20 DUP3 DUP5 SUB SLT ISZERO PUSH2 0x62A JUMPI PUSH2 0x629 PUSH2 0x5D6 JUMP JUMPDEST JUMPDEST PUSH1 0x0 PUSH2 0x638 DUP5 DUP3 DUP6 ADD PUSH2 0x5FF JUMP JUMPDEST SWAP2 POP POP SWAP3 SWAP2 POP POP JUMP JUMPDEST PUSH1 0x0 DUP2 PUSH1 0x1 SHR SWAP1 POP SWAP2 SWAP1 POP JUMP JUMPDEST PUSH1 0x0 DUP1 DUP3 SWAP2 POP DUP4 SWAP1 POP JUMPDEST PUSH1 0x1 DUP6 GT ISZERO PUSH2 0x698 JUMPI DUP1 DUP7 DIV DUP2 GT ISZERO PUSH2 0x674 JUMPI PUSH2 0x673 PUSH2 0x500 JUMP JUMPDEST JUMPDEST PUSH1 0x1 DUP6 AND ISZERO PUSH2 0x683 JUMPI DUP1 DUP3 MUL SWAP2 POP JUMPDEST DUP1 DUP2 MUL SWAP1 POP PUSH2 0x691 DUP6 PUSH2 0x641 JUMP JUMPDEST SWAP5 POP PUSH2 0x658 JUMP JUMPDEST SWAP5 POP SWAP5 SWAP3 POP POP POP JUMP JUMPDEST PUSH1 0x0 DUP3 PUSH2 0x6B1 JUMPI PUSH1 0x1 SWAP1 POP PUSH2 0x76D JUMP JUMPDEST DUP2 PUSH2 0x6BF JUMPI PUSH1 0x0 SWAP1 POP PUSH2 0x76D JUMP JUMPDEST DUP2 PUSH1 0x1 DUP2 EQ PUSH2 0x6D5 JUMPI PUSH1 0x2 DUP2 EQ PUSH2 0x6DF JUMPI PUSH2 0x70E JUMP JUMPDEST PUSH1 0x1 SWAP2 POP POP PUSH2 0x76D JUMP JUMPDEST PUSH1 0xFF DUP5 GT ISZERO PUSH2 0x6F1 JUMPI PUSH2 0x6F0 PUSH2 0x500 JUMP JUMPDEST JUMPDEST DUP4 PUSH1 0x2 EXP SWAP2 POP DUP5 DUP3 GT ISZERO PUSH2 0x708 JUMPI PUSH2 0x707 PUSH2 0x500 JUMP JUMPDEST JUMPDEST POP PUSH2 0x76D JUMP JUMPDEST POP PUSH1 0x20 DUP4 LT PUSH2 0x133 DUP4 LT AND PUSH1 0x4E DUP5 LT PUSH1 0xB DUP5 LT AND OR ISZERO PUSH2 0x743 JUMPI DUP3 DUP3 EXP SWAP1 POP DUP4 DUP2 GT ISZERO PUSH2 0x73E JUMPI PUSH2 0x73D PUSH2 0x500 JUMP JUMPDEST JUMPDEST PUSH2 0x76D JUMP JUMPDEST PUSH2 0x750 DUP5 DUP5 DUP5 PUSH1 0x1 PUSH2 0x64E JUMP JUMPDEST SWAP3 POP SWAP1 POP DUP2 DUP5 DIV DUP2 GT ISZERO PUSH2 0x767 JUMPI PUSH2 0x766 PUSH2 0x500 JUMP JUMPDEST JUMPDEST DUP2 DUP2 MUL SWAP1 POP JUMPDEST SWAP4 SWAP3 POP POP POP JUMP JUMPDEST PUSH1 0x0 PUSH2 0x77F DUP3 PUSH2 0x34A JUMP JUMPDEST SWAP2 POP PUSH2 0x78A DUP4 PUSH2 0x5DB JUMP JUMPDEST SWAP3 POP PUSH2 0x7B7 PUSH32 0xFFFFFFFFFFFFFFFFFFFFFFFFFFFFFFFFFFFFFFFFFFFFFFFFFFFFFFFFFFFFFFFF DUP5 DUP5 PUSH2 0x6A1 JUMP JUMPDEST SWAP1 POP SWAP3 SWAP2 POP POP JUMP JUMPDEST PUSH1 0x0 PUSH1 0x60 DUP3 ADD SWAP1 POP PUSH2 0x7D4 PUSH1 0x0 DUP4 ADD DUP7 PUSH2 0x3B0 JUMP JUMPDEST PUSH2 0x7E1 PUSH1 0x20 DUP4 ADD DUP6 PUSH2 0x3B0 JUMP JUMPDEST PUSH2 0x7EE PUSH1 0x40 DUP4 ADD DUP5 PUSH2 0x354 JUMP JUMPDEST SWAP5 SWAP4 POP POP POP POP JUMP JUMPDEST PUSH1 0x0 DUP2 ISZERO ISZERO SWAP1 POP SWAP2 SWAP1 POP JUMP JUMPDEST PUSH2 0x80B DUP2 PUSH2 0x7F6 JUMP JUMPDEST DUP2 EQ PUSH2 0x816 JUMPI PUSH1 0x0 DUP1 REVERT JUMPDEST POP JUMP JUMPDEST PUSH1 0x0 DUP2 MLOAD SWAP1 POP PUSH2 0x828 DUP2 PUSH2 0x802 JUMP JUMPDEST SWAP3 SWAP2 POP POP JUMP JUMPDEST PUSH1 0x0 PUSH1 0x20 DUP3 DUP5 SUB SLT ISZERO PUSH2 0x844 JUMPI PUSH2 0x843 PUSH2 0x5D6 JUMP JUMPDEST JUMPDEST PUSH1 0x0 PUSH2 0x852 DUP5 DUP3 DUP6 ADD PUSH2 0x819 JUMP JUMPDEST SWAP2 POP POP SWAP3 SWAP2 POP POP JUMP INVALID LOG2 PUSH5 0x6970667358 0x22 SLT KECCAK256 CALLDATALOAD 0xDD JUMP KECCAK256 CALL 0xC 0x22 REVERT 0xC2 0xDF ORIGIN OR 0xE0 0xD9 SLT NOT 0x4D 0xDA DUP16 PUSH4 0x1C300CB PUSH3 0x6DB15 0xE2 0xFB 0xFB 0xE4 PUSH5 0x736F6C6343 STOP ADDMOD SLT STOP CALLER "
		},
		"gasEstimates": {
			"creation": {
				"codeDepositCost": "438600",
				"executionCost": "infinite",
				"totalCost": "infinite"
			},
			"external": {
				"purchase()": "infinite",
				"token()": "infinite",
				"tokenOwner()": "2536",
				"tokenPriceInWei()": "2407"
			}
		},
		"methodIdentifiers": {
			"purchase()": "64edfbf0",
			"token()": "fc0c546a",
			"tokenOwner()": "a3e67610",
			"tokenPriceInWei()": "2f8de810"
		}
	},
	"abi": [
		{
			"inputs": [
				{
					"internalType": "address",
					"name": "_token",
					"type": "address"
				}
			],
			"stateMutability": "nonpayable",
			"type": "constructor"
		},
		{
			"inputs": [],
			"name": "purchase",
			"outputs": [],
			"stateMutability": "payable",
			"type": "function"
		},
		{
			"inputs": [],
			"name": "token",
			"outputs": [
				{
					"internalType": "contract ERC20",
					"name": "",
					"type": "address"
				}
			],
			"stateMutability": "view",
			"type": "function"
		},
		{
			"inputs": [],
			"name": "tokenOwner",
			"outputs": [
				{
					"internalType": "address",
					"name": "",
					"type": "address"
				}
			],
			"stateMutability": "view",
			"type": "function"
		},
		{
			"inputs": [],
			"name": "tokenPriceInWei",
			"outputs": [
				{
					"internalType": "uint256",
					"name": "",
					"type": "uint256"
				}
			],
			"stateMutability": "view",
			"type": "function"
		}
	]
}